{
  "contractName": "CarPool",
  "abi": [
    {
      "inputs": [
        {
          "internalType": "contract CarToken",
          "name": "ctAddress",
          "type": "address"
        }
      ],
      "payable": false,
      "stateMutability": "nonpayable",
      "type": "constructor"
    },
    {
      "anonymous": false,
      "inputs": [
        {
          "indexed": false,
          "internalType": "uint256",
          "name": "_carId",
          "type": "uint256"
        },
        {
          "indexed": false,
          "internalType": "string",
          "name": "_description",
          "type": "string"
        },
        {
          "indexed": false,
          "internalType": "uint8",
          "name": "_capacity",
          "type": "uint8"
        },
        {
          "indexed": false,
          "internalType": "string",
          "name": "_plateNum",
          "type": "string"
        }
      ],
      "name": "AddedCar",
      "type": "event"
    },
    {
      "constant": true,
      "inputs": [
        {
          "internalType": "uint256",
          "name": "",
          "type": "uint256"
        }
      ],
      "name": "allCars",
      "outputs": [
        {
          "internalType": "string",
          "name": "description",
          "type": "string"
        },
        {
          "internalType": "uint8",
          "name": "capacity",
          "type": "uint8"
        },
        {
          "internalType": "string",
          "name": "licenseType",
          "type": "string"
        },
        {
          "internalType": "string",
          "name": "plateNum",
          "type": "string"
        },
        {
          "internalType": "bool",
          "name": "insured",
          "type": "bool"
        },
        {
          "internalType": "string",
          "name": "coords",
          "type": "string"
        },
        {
          "internalType": "enum CarPool.carState",
          "name": "status",
          "type": "uint8"
        },
        {
          "internalType": "address",
          "name": "owner",
          "type": "address"
        },
        {
          "internalType": "string",
          "name": "condition",
          "type": "string"
        }
      ],
      "payable": false,
      "stateMutability": "view",
      "type": "function"
    },
    {
      "constant": true,
      "inputs": [
        {
          "internalType": "uint256",
          "name": "",
          "type": "uint256"
        }
      ],
      "name": "allRentals",
      "outputs": [
        {
          "internalType": "uint256",
          "name": "carId",
          "type": "uint256"
        },
        {
          "internalType": "address",
          "name": "renter",
          "type": "address"
        },
        {
          "internalType": "uint256",
          "name": "duration",
          "type": "uint256"
        },
        {
          "internalType": "uint256",
          "name": "rate",
          "type": "uint256"
        },
        {
          "internalType": "uint256",
          "name": "total",
          "type": "uint256"
        },
        {
          "internalType": "enum CarPool.rentalState",
          "name": "status",
          "type": "uint8"
        }
      ],
      "payable": false,
      "stateMutability": "view",
      "type": "function"
    },
    {
      "constant": true,
      "inputs": [],
      "name": "totalCarsCounter",
      "outputs": [
        {
          "internalType": "uint256",
          "name": "",
          "type": "uint256"
        }
      ],
      "payable": false,
      "stateMutability": "view",
      "type": "function"
    },
    {
      "constant": false,
      "inputs": [
        {
          "internalType": "string",
          "name": "_description",
          "type": "string"
        },
        {
          "internalType": "uint8",
          "name": "_capacity",
          "type": "uint8"
        },
        {
          "internalType": "string",
          "name": "_plateNum",
          "type": "string"
        },
        {
          "internalType": "string",
          "name": "_licenseType",
          "type": "string"
        },
        {
          "internalType": "string",
          "name": "_coords",
          "type": "string"
        },
        {
          "internalType": "string",
          "name": "_condition",
          "type": "string"
        }
      ],
      "name": "addCar",
      "outputs": [
        {
          "internalType": "uint256",
          "name": "",
          "type": "uint256"
        }
      ],
      "payable": false,
      "stateMutability": "nonpayable",
      "type": "function"
    },
    {
      "constant": false,
      "inputs": [
        {
          "internalType": "uint256",
          "name": "_carId",
          "type": "uint256"
        }
      ],
      "name": "removeCar",
      "outputs": [],
      "payable": false,
      "stateMutability": "nonpayable",
      "type": "function"
    },
    {
      "constant": false,
      "inputs": [
        {
          "internalType": "uint256",
          "name": "_carId",
          "type": "uint256"
        },
        {
          "internalType": "string",
          "name": "_coords",
          "type": "string"
        },
        {
          "internalType": "bool",
          "name": "_insured",
          "type": "bool"
        },
        {
          "internalType": "address",
          "name": "_owner",
          "type": "address"
        }
      ],
      "name": "editCar",
      "outputs": [],
      "payable": false,
      "stateMutability": "nonpayable",
      "type": "function"
    },
    {
      "constant": false,
      "inputs": [
        {
          "internalType": "uint256",
          "name": "_carId",
          "type": "uint256"
        },
        {
          "internalType": "string",
          "name": "_status",
          "type": "string"
        }
      ],
      "name": "updateStatus",
      "outputs": [],
      "payable": false,
      "stateMutability": "nonpayable",
      "type": "function"
    },
    {
      "constant": false,
      "inputs": [
        {
          "internalType": "uint256",
          "name": "_carId",
          "type": "uint256"
        },
        {
          "internalType": "string",
          "name": "_condition",
          "type": "string"
        }
      ],
      "name": "updateCondition",
      "outputs": [],
      "payable": false,
      "stateMutability": "nonpayable",
      "type": "function"
    },
    {
      "constant": false,
      "inputs": [
        {
          "internalType": "uint256",
          "name": "_carId",
          "type": "uint256"
        }
      ],
      "name": "listCar",
      "outputs": [],
      "payable": false,
      "stateMutability": "nonpayable",
      "type": "function"
    },
    {
      "constant": false,
      "inputs": [
        {
          "internalType": "uint256",
          "name": "_carId",
          "type": "uint256"
        }
      ],
      "name": "delistCar",
      "outputs": [],
      "payable": false,
      "stateMutability": "nonpayable",
      "type": "function"
    },
    {
      "constant": false,
      "inputs": [
        {
          "internalType": "uint256",
          "name": "_carId",
          "type": "uint256"
        },
        {
          "internalType": "address",
          "name": "_renter",
          "type": "address"
        },
        {
          "internalType": "uint256",
          "name": "_rate",
          "type": "uint256"
        },
        {
          "internalType": "uint256",
          "name": "_duration",
          "type": "uint256"
        }
      ],
      "name": "rentCar",
      "outputs": [],
      "payable": false,
      "stateMutability": "nonpayable",
      "type": "function"
    },
    {
      "constant": false,
      "inputs": [
        {
          "internalType": "uint256",
          "name": "_carId",
          "type": "uint256"
        }
      ],
      "name": "cancelRental",
      "outputs": [],
      "payable": false,
      "stateMutability": "nonpayable",
      "type": "function"
    },
    {
      "constant": false,
      "inputs": [
        {
          "internalType": "uint256",
          "name": "_carId",
          "type": "uint256"
        }
      ],
      "name": "startRental",
      "outputs": [],
      "payable": false,
      "stateMutability": "nonpayable",
      "type": "function"
    },
    {
      "constant": false,
      "inputs": [
        {
          "internalType": "uint256",
          "name": "_carId",
          "type": "uint256"
        }
      ],
      "name": "endRental",
      "outputs": [],
      "payable": false,
      "stateMutability": "nonpayable",
      "type": "function"
    },
    {
      "constant": false,
      "inputs": [
        {
          "internalType": "address",
          "name": "_from",
          "type": "address"
        },
        {
          "internalType": "address",
          "name": "_to",
          "type": "address"
        },
        {
          "internalType": "uint256",
          "name": "_amt",
          "type": "uint256"
        }
      ],
      "name": "transferCT",
      "outputs": [],
      "payable": false,
      "stateMutability": "nonpayable",
      "type": "function"
    },
    {
      "constant": true,
      "inputs": [
        {
          "internalType": "uint256",
          "name": "_carId",
          "type": "uint256"
        }
      ],
      "name": "getRenter",
      "outputs": [
        {
          "internalType": "address",
          "name": "",
          "type": "address"
        }
      ],
      "payable": false,
      "stateMutability": "view",
      "type": "function"
    },
    {
      "constant": true,
      "inputs": [
        {
          "internalType": "uint256",
          "name": "_carId",
          "type": "uint256"
        }
      ],
      "name": "getDuration",
      "outputs": [
        {
          "internalType": "uint256",
          "name": "",
          "type": "uint256"
        }
      ],
      "payable": false,
      "stateMutability": "view",
      "type": "function"
    },
    {
      "constant": true,
      "inputs": [
        {
          "internalType": "uint256",
          "name": "_carId",
          "type": "uint256"
        }
      ],
      "name": "getRate",
      "outputs": [
        {
          "internalType": "uint256",
          "name": "",
          "type": "uint256"
        }
      ],
      "payable": false,
      "stateMutability": "view",
      "type": "function"
    },
    {
      "constant": true,
      "inputs": [
        {
          "internalType": "uint256",
          "name": "_carId",
          "type": "uint256"
        }
      ],
      "name": "getOwner",
      "outputs": [
        {
          "internalType": "address",
          "name": "",
          "type": "address"
        }
      ],
      "payable": false,
      "stateMutability": "view",
      "type": "function"
    },
    {
      "constant": true,
      "inputs": [
        {
          "internalType": "uint256",
          "name": "_carId",
          "type": "uint256"
        }
      ],
      "name": "getCarDescription",
      "outputs": [
        {
          "internalType": "string",
          "name": "",
          "type": "string"
        }
      ],
      "payable": false,
      "stateMutability": "view",
      "type": "function"
    },
    {
      "constant": true,
      "inputs": [
        {
          "internalType": "uint256",
          "name": "_carId",
          "type": "uint256"
        }
      ],
      "name": "getCarCapacity",
      "outputs": [
        {
          "internalType": "uint8",
          "name": "",
          "type": "uint8"
        }
      ],
      "payable": false,
      "stateMutability": "view",
      "type": "function"
    },
    {
      "constant": true,
      "inputs": [
        {
          "internalType": "uint256",
          "name": "_carId",
          "type": "uint256"
        }
      ],
      "name": "getCarLicenseType",
      "outputs": [
        {
          "internalType": "string",
          "name": "",
          "type": "string"
        }
      ],
      "payable": false,
      "stateMutability": "view",
      "type": "function"
    },
    {
      "constant": true,
      "inputs": [
        {
          "internalType": "uint256",
          "name": "_carId",
          "type": "uint256"
        }
      ],
      "name": "getCarLocation",
      "outputs": [
        {
          "internalType": "string",
          "name": "",
          "type": "string"
        }
      ],
      "payable": false,
      "stateMutability": "view",
      "type": "function"
    },
    {
      "constant": true,
      "inputs": [
        {
          "internalType": "uint256",
          "name": "_carId",
          "type": "uint256"
        }
      ],
      "name": "getCarState",
      "outputs": [
        {
          "internalType": "enum CarPool.carState",
          "name": "",
          "type": "uint8"
        }
      ],
      "payable": false,
      "stateMutability": "view",
      "type": "function"
    },
    {
      "constant": true,
      "inputs": [
        {
          "internalType": "uint256",
          "name": "_carId",
          "type": "uint256"
        }
      ],
      "name": "checkRentalStatus",
      "outputs": [
        {
          "internalType": "uint8",
          "name": "",
          "type": "uint8"
        }
      ],
      "payable": false,
      "stateMutability": "view",
      "type": "function"
    },
    {
      "constant": true,
      "inputs": [
        {
          "internalType": "uint256",
          "name": "_carId",
          "type": "uint256"
        }
      ],
      "name": "checkLicenseType",
      "outputs": [
        {
          "internalType": "string",
          "name": "",
          "type": "string"
        }
      ],
      "payable": false,
      "stateMutability": "view",
      "type": "function"
    }
  ],
  "bytecode": "0x6080604052600060015534801561001557600080fd5b506040516200429e3803806200429e8339818101604052602081101561003a57600080fd5b8101908080519060200190929190505050806000806101000a81548173ffffffffffffffffffffffffffffffffffffffff021916908373ffffffffffffffffffffffffffffffffffffffff16021790555050614202806200009c6000396000f3fe608060405234801561001057600080fd5b506004361061018e5760003560e01c80638dbbfc5d116100de578063bb3c510d11610097578063c6527dbf11610071578063c6527dbf14610f1f578063cfc9262d14610fc6578063d1b34dd81461100e578063d9f5c56f146110d35761018e565b8063bb3c510d14610dce578063bd5ff06014610e93578063c41a360a14610eb15761018e565b80638dbbfc5d1461068c57806390ba33ce146106ba57806397491d6f146109f25780639c9ff43914610a205780639f2e322214610ac7578063b56a399b14610b175761018e565b80634eec42c11161014b5780636846490711610125578063684649071461052d5780636a38ddb3146105d45780636f36d44b146106025780638bb126a71461064a5761018e565b80634eec42c11461045b57806357764094146104bd5780635e0dacb4146104ff5761018e565b80630a7ec705146101935780630c3e1dd0146102015780633009c19b1461022f57806338b5400b1461029d57806340a919e01461033c57806348625ebf1461036a575b600080fd5b6101ff600480360360608110156101a957600080fd5b81019080803573ffffffffffffffffffffffffffffffffffffffff169060200190929190803573ffffffffffffffffffffffffffffffffffffffff1690602001909291908035906020019092919050505061117a565b005b61022d6004803603602081101561021757600080fd5b8101908080359060200190929190505050611273565b005b61025b6004803603602081101561024557600080fd5b8101908080359060200190929190505050611327565b604051808273ffffffffffffffffffffffffffffffffffffffff1673ffffffffffffffffffffffffffffffffffffffff16815260200191505060405180910390f35b6102c9600480360360208110156102b357600080fd5b8101908080359060200190929190505050611367565b604051808781526020018673ffffffffffffffffffffffffffffffffffffffff1673ffffffffffffffffffffffffffffffffffffffff16815260200185815260200184815260200183815260200182600481111561032357fe5b60ff168152602001965050505050505060405180910390f35b6103686004803603602081101561035257600080fd5b81019080803590602001909291905050506113d0565b005b6104596004803603608081101561038057600080fd5b8101908080359060200190929190803590602001906401000000008111156103a757600080fd5b8201836020820111156103b957600080fd5b803590602001918460018302840111640100000000831117156103db57600080fd5b91908080601f016020809104026020016040519081016040528093929190818152602001838380828437600081840152601f19601f820116905080830192505050505050509192919290803515159060200190929190803573ffffffffffffffffffffffffffffffffffffffff169060200190929190505050611485565b005b6104bb6004803603608081101561047157600080fd5b8101908080359060200190929190803573ffffffffffffffffffffffffffffffffffffffff1690602001909291908035906020019092919080359060200190929190505050611b7b565b005b6104e9600480360360208110156104d357600080fd5b8101908080359060200190929190505050611d06565b6040518082815260200191505060405180910390f35b61052b6004803603602081101561051557600080fd5b8101908080359060200190929190505050611d26565b005b6105596004803603602081101561054357600080fd5b8101908080359060200190929190505050611eb1565b6040518080602001828103825283818151815260200191508051906020019080838360005b8381101561059957808201518184015260208101905061057e565b50505050905090810190601f1680156105c65780820380516001836020036101000a031916815260200191505b509250505060405180910390f35b610600600480360360208110156105ea57600080fd5b8101908080359060200190929190505050611f69565b005b61062e6004803603602081101561061857600080fd5b8101908080359060200190929190505050612111565b604051808260ff1660ff16815260200191505060405180910390f35b6106766004803603602081101561066057600080fd5b810190808035906020019092919050505061213e565b6040518082815260200191505060405180910390f35b6106b8600480360360208110156106a257600080fd5b810190808035906020019092919050505061215e565b005b6109dc600480360360c08110156106d057600080fd5b81019080803590602001906401000000008111156106ed57600080fd5b8201836020820111156106ff57600080fd5b8035906020019184600183028401116401000000008311171561072157600080fd5b91908080601f016020809104026020016040519081016040528093929190818152602001838380828437600081840152601f19601f820116905080830192505050505050509192919290803560ff1690602001909291908035906020019064010000000081111561079157600080fd5b8201836020820111156107a357600080fd5b803590602001918460018302840111640100000000831117156107c557600080fd5b91908080601f016020809104026020016040519081016040528093929190818152602001838380828437600081840152601f19601f8201169050808301925050505050505091929192908035906020019064010000000081111561082857600080fd5b82018360208201111561083a57600080fd5b8035906020019184600183028401116401000000008311171561085c57600080fd5b91908080601f016020809104026020016040519081016040528093929190818152602001838380828437600081840152601f19601f820116905080830192505050505050509192919290803590602001906401000000008111156108bf57600080fd5b8201836020820111156108d157600080fd5b803590602001918460018302840111640100000000831117156108f357600080fd5b91908080601f016020809104026020016040519081016040528093929190818152602001838380828437600081840152601f19601f8201169050808301925050505050505091929192908035906020019064010000000081111561095657600080fd5b82018360208201111561096857600080fd5b8035906020019184600183028401116401000000008311171561098a57600080fd5b91908080601f016020809104026020016040519081016040528093929190818152602001838380828437600081840152601f19601f820116905080830192505050505050509192919290505050612213565b6040518082815260200191505060405180910390f35b610a1e60048036036020811015610a0857600080fd5b81019080803590602001909291905050506128dd565b005b610a4c60048036036020811015610a3657600080fd5b8101908080359060200190929190505050612992565b6040518080602001828103825283818151815260200191508051906020019080838360005b83811015610a8c578082015181840152602081019050610a71565b50505050905090810190601f168015610ab95780820380516001836020036101000a031916815260200191505b509250505060405180910390f35b610af360048036036020811015610add57600080fd5b8101908080359060200190929190505050612a4a565b60405180826002811115610b0357fe5b60ff16815260200191505060405180910390f35b610b4360048036036020811015610b2d57600080fd5b8101908080359060200190929190505050612a77565b60405180806020018a60ff1660ff16815260200180602001806020018915151515815260200180602001886002811115610b7957fe5b60ff1681526020018773ffffffffffffffffffffffffffffffffffffffff1673ffffffffffffffffffffffffffffffffffffffff1681526020018060200186810386528f818151815260200191508051906020019080838360005b83811015610bef578082015181840152602081019050610bd4565b50505050905090810190601f168015610c1c5780820380516001836020036101000a031916815260200191505b5086810385528d818151815260200191508051906020019080838360005b83811015610c55578082015181840152602081019050610c3a565b50505050905090810190601f168015610c825780820380516001836020036101000a031916815260200191505b5086810384528c818151815260200191508051906020019080838360005b83811015610cbb578082015181840152602081019050610ca0565b50505050905090810190601f168015610ce85780820380516001836020036101000a031916815260200191505b5086810383528a818151815260200191508051906020019080838360005b83811015610d21578082015181840152602081019050610d06565b50505050905090810190601f168015610d4e5780820380516001836020036101000a031916815260200191505b50868103825287818151815260200191508051906020019080838360005b83811015610d87578082015181840152602081019050610d6c565b50505050905090810190601f168015610db45780820380516001836020036101000a031916815260200191505b509e50505050505050505050505050505060405180910390f35b610e9160048036036040811015610de457600080fd5b810190808035906020019092919080359060200190640100000000811115610e0b57600080fd5b820183602082011115610e1d57600080fd5b80359060200191846001830284011164010000000083111715610e3f57600080fd5b91908080601f016020809104026020016040519081016040528093929190818152602001838380828437600081840152601f19601f820116905080830192505050505050509192919290505050612e04565b005b610e9b6134b1565b6040518082815260200191505060405180910390f35b610edd60048036036020811015610ec757600080fd5b81019080803590602001909291905050506134b7565b604051808273ffffffffffffffffffffffffffffffffffffffff1673ffffffffffffffffffffffffffffffffffffffff16815260200191505060405180910390f35b610f4b60048036036020811015610f3557600080fd5b81019080803590602001909291905050506134f7565b6040518080602001828103825283818151815260200191508051906020019080838360005b83811015610f8b578082015181840152602081019050610f70565b50505050905090810190601f168015610fb85780820380516001836020036101000a031916815260200191505b509250505060405180910390f35b610ff260048036036020811015610fdc57600080fd5b81019080803590602001909291905050506135af565b604051808260ff1660ff16815260200191505060405180910390f35b6110d16004803603604081101561102457600080fd5b81019080803590602001909291908035906020019064010000000081111561104b57600080fd5b82018360208201111561105d57600080fd5b8035906020019184600183028401116401000000008311171561107f57600080fd5b91908080601f016020809104026020016040519081016040528093929190818152602001838380828437600081840152601f19601f8201169050808301925050505050505091929192905050506136e9565b005b6110ff600480360360208110156110e957600080fd5b8101908080359060200190929190505050613f57565b6040518080602001828103825283818151815260200191508051906020019080838360005b8381101561113f578082015181840152602081019050611124565b50505050905090810190601f16801561116c5780820380516001836020036101000a031916815260200191505b509250505060405180910390f35b6000809054906101000a900473ffffffffffffffffffffffffffffffffffffffff1673ffffffffffffffffffffffffffffffffffffffff1663beabacc88484846040518463ffffffff1660e01b8152600401808473ffffffffffffffffffffffffffffffffffffffff1673ffffffffffffffffffffffffffffffffffffffff1681526020018373ffffffffffffffffffffffffffffffffffffffff1673ffffffffffffffffffffffffffffffffffffffff1681526020018281526020019350505050600060405180830381600087803b15801561125657600080fd5b505af115801561126a573d6000803e3d6000fd5b50505050505050565b806001548111156112ec576040517f08c379a000000000000000000000000000000000000000000000000000000000815260040180806020018281038252601d8152602001807f596f7520656e746572656420616e20696e76616c69642063617249642100000081525060200191505060405180910390fd5b600380600084815260200190815260200160002060050160006101000a81548160ff0219169083600481111561131e57fe5b02179055505050565b60006003600083815260200190815260200160002060010160009054906101000a900473ffffffffffffffffffffffffffffffffffffffff169050919050565b60036020528060005260406000206000915090508060000154908060010160009054906101000a900473ffffffffffffffffffffffffffffffffffffffff16908060020154908060030154908060040154908060050160009054906101000a900460ff16905086565b80600154811115611449576040517f08c379a000000000000000000000000000000000000000000000000000000000815260040180806020018281038252601d8152602001807f596f7520656e746572656420616e20696e76616c69642063617249642100000081525060200191505060405180910390fd5b60016003600084815260200190815260200160002060050160006101000a81548160ff0219169083600481111561147c57fe5b02179055505050565b836002600082815260200190815260200160002060060160019054906101000a900473ffffffffffffffffffffffffffffffffffffffff1673ffffffffffffffffffffffffffffffffffffffff163373ffffffffffffffffffffffffffffffffffffffff1614611540576040517f08c379a00000000000000000000000000000000000000000000000000000000081526004018080602001828103825260228152602001806141ac6022913960400191505060405180910390fd5b846001548111156115b9576040517f08c379a000000000000000000000000000000000000000000000000000000000815260040180806020018281038252601d8152602001807f596f7520656e746572656420616e20696e76616c69642063617249642100000081525060200191505060405180910390fd5b6115c161400f565b6002600088815260200190815260200160002060405180610120016040529081600082018054600181600116156101000203166002900480601f0160208091040260200160405190810160405280929190818152602001828054600181600116156101000203166002900480156116795780601f1061164e57610100808354040283529160200191611679565b820191906000526020600020905b81548152906001019060200180831161165c57829003601f168201915b505050505081526020016001820160009054906101000a900460ff1660ff1660ff168152602001600282018054600181600116156101000203166002900480601f0160208091040260200160405190810160405280929190818152602001828054600181600116156101000203166002900480156117385780601f1061170d57610100808354040283529160200191611738565b820191906000526020600020905b81548152906001019060200180831161171b57829003601f168201915b50505050508152602001600382018054600181600116156101000203166002900480601f0160208091040260200160405190810160405280929190818152602001828054600181600116156101000203166002900480156117da5780601f106117af576101008083540402835291602001916117da565b820191906000526020600020905b8154815290600101906020018083116117bd57829003601f168201915b505050505081526020016004820160009054906101000a900460ff16151515158152602001600582018054600181600116156101000203166002900480601f0160208091040260200160405190810160405280929190818152602001828054600181600116156101000203166002900480156118975780601f1061186c57610100808354040283529160200191611897565b820191906000526020600020905b81548152906001019060200180831161187a57829003601f168201915b505050505081526020016006820160009054906101000a900460ff1660028111156118be57fe5b60028111156118c957fe5b81526020016006820160019054906101000a900473ffffffffffffffffffffffffffffffffffffffff1673ffffffffffffffffffffffffffffffffffffffff1673ffffffffffffffffffffffffffffffffffffffff168152602001600782018054600181600116156101000203166002900480601f0160208091040260200160405190810160405280929190818152602001828054600181600116156101000203166002900480156119bc5780601f10611991576101008083540402835291602001916119bc565b820191906000526020600020905b81548152906001019060200180831161199f57829003601f168201915b5050505050815250509050858160a0018190525084816080019015159081151581525050838160e0019073ffffffffffffffffffffffffffffffffffffffff16908173ffffffffffffffffffffffffffffffffffffffff168152505080600260008981526020019081526020016000206000820151816000019080519060200190611a48929190614081565b5060208201518160010160006101000a81548160ff021916908360ff1602179055506040820151816002019080519060200190611a86929190614081565b506060820151816003019080519060200190611aa3929190614081565b5060808201518160040160006101000a81548160ff02191690831515021790555060a0820151816005019080519060200190611ae0929190614081565b5060c08201518160060160006101000a81548160ff02191690836002811115611b0557fe5b021790555060e08201518160060160016101000a81548173ffffffffffffffffffffffffffffffffffffffff021916908373ffffffffffffffffffffffffffffffffffffffff160217905550610100820151816007019080519060200190611b6e929190614081565b5090505050505050505050565b83600154811115611bf4576040517f08c379a000000000000000000000000000000000000000000000000000000000815260040180806020018281038252601d8152602001807f596f7520656e746572656420616e20696e76616c69642063617249642100000081525060200191505060405180910390fd5b611bfc614101565b6040518060c001604052808781526020018673ffffffffffffffffffffffffffffffffffffffff168152602001848152602001858152602001858502815260200160026004811115611c4a57fe5b815250905080600360008881526020019081526020016000206000820151816000015560208201518160010160006101000a81548173ffffffffffffffffffffffffffffffffffffffff021916908373ffffffffffffffffffffffffffffffffffffffff16021790555060408201518160020155606082015181600301556080820151816004015560a08201518160050160006101000a81548160ff02191690836004811115611cf657fe5b0217905550905050505050505050565b600060036000838152602001908152602001600020600301549050919050565b80600154811115611d9f576040517f08c379a000000000000000000000000000000000000000000000000000000000815260040180806020018281038252601d8152602001807f596f7520656e746572656420616e20696e76616c69642063617249642100000081525060200191505060405180910390fd5b611da7614101565b6040518060c0016040528060015481526020013373ffffffffffffffffffffffffffffffffffffffff16815260200160008152602001600081526020016000815260200160016004811115611df857fe5b815250905080600360008581526020019081526020016000206000820151816000015560208201518160010160006101000a81548173ffffffffffffffffffffffffffffffffffffffff021916908373ffffffffffffffffffffffffffffffffffffffff16021790555060408201518160020155606082015181600301556080820151816004015560a08201518160050160006101000a81548160ff02191690836004811115611ea457fe5b0217905550905050505050565b6060600260008381526020019081526020016000206005018054600181600116156101000203166002900480601f016020809104026020016040519081016040528092919081815260200182805460018160011615610100020316600290048015611f5d5780601f10611f3257610100808354040283529160200191611f5d565b820191906000526020600020905b815481529060010190602001808311611f4057829003601f168201915b50505050509050919050565b806002600082815260200190815260200160002060060160019054906101000a900473ffffffffffffffffffffffffffffffffffffffff1673ffffffffffffffffffffffffffffffffffffffff163373ffffffffffffffffffffffffffffffffffffffff1614612024576040517f08c379a00000000000000000000000000000000000000000000000000000000081526004018080602001828103825260228152602001806141ac6022913960400191505060405180910390fd5b8160015481111561209d576040517f08c379a000000000000000000000000000000000000000000000000000000000815260040180806020018281038252601d8152602001807f596f7520656e746572656420616e20696e76616c69642063617249642100000081525060200191505060405180910390fd5b600280600085815260200190815260200160002060060160006101000a81548160ff021916908360028111156120cf57fe5b021790555060006003600085815260200190815260200160002060050160006101000a81548160ff0219169083600481111561210757fe5b0217905550505050565b60006002600083815260200190815260200160002060010160009054906101000a900460ff169050919050565b600060036000838152602001908152602001600020600201549050919050565b806001548111156121d7576040517f08c379a000000000000000000000000000000000000000000000000000000000815260040180806020018281038252601d8152602001807f596f7520656e746572656420616e20696e76616c69642063617249642100000081525060200191505060405180910390fd5b60006003600084815260200190815260200160002060050160006101000a81548160ff0219169083600481111561220a57fe5b02179055505050565b6000846000600190506000600190505b600154811161234957826040516020018082805190602001908083835b602083106122635780518252602082019150602081019050602083039250612240565b6001836020036101000a038019825116818451168082178552505050505050905001915050604051602081830303815290604052805190602001206002600083815260200190815260200160002060030160405160200180828054600181600116156101000203166002900480156123125780601f106122f0576101008083540402835291820191612312565b820191906000526020600020905b8154815290600101906020018083116122fe575b505091505060405160208183030381529060405280519060200120141561233c5760009150612349565b8080600101915050612223565b5060011515811515146123a7576040517f08c379a000000000000000000000000000000000000000000000000000000000815260040180806020018281038252602e81526020018061417e602e913960400191505060405180910390fd5b600089511180156123bb575060008860ff16115b80156123cb575060088860ff1611155b80156123d8575060008751115b61244a576040517f08c379a000000000000000000000000000000000000000000000000000000000815260040180806020018281038252601a8152602001807f436865636b2076656869636c6520696e666f726d6174696f6e2e00000000000081525060200191505060405180910390fd5b60008451116124c1576040517f08c379a00000000000000000000000000000000000000000000000000000000081526004018080602001828103825260188152602001807f436865636b2076656869636c6520636f6e646974696f6e2e000000000000000081525060200191505060405180910390fd5b60018054016001819055506124d461400f565b6040518061012001604052808b81526020018a60ff1681526020018881526020018981526020016001151581526020018781526020016000600281111561251757fe5b81526020013373ffffffffffffffffffffffffffffffffffffffff168152602001868152509050612546614101565b6040518060c0016040528060015481526020013373ffffffffffffffffffffffffffffffffffffffff1681526020016000815260200160008152602001600081526020016000600481111561259757fe5b81525090508160026000600154815260200190815260200160002060008201518160000190805190602001906125ce929190614081565b5060208201518160010160006101000a81548160ff021916908360ff160217905550604082015181600201908051906020019061260c929190614081565b506060820151816003019080519060200190612629929190614081565b5060808201518160040160006101000a81548160ff02191690831515021790555060a0820151816005019080519060200190612666929190614081565b5060c08201518160060160006101000a81548160ff0219169083600281111561268b57fe5b021790555060e08201518160060160016101000a81548173ffffffffffffffffffffffffffffffffffffffff021916908373ffffffffffffffffffffffffffffffffffffffff1602179055506101008201518160070190805190602001906126f4929190614081565b50905050806003600060015481526020019081526020016000206000820151816000015560208201518160010160006101000a81548173ffffffffffffffffffffffffffffffffffffffff021916908373ffffffffffffffffffffffffffffffffffffffff16021790555060408201518160020155606082015181600301556080820151816004015560a08201518160050160006101000a81548160ff021916908360048111156127a157fe5b02179055509050507fbc3b4258995f32087a943a07f31ffa9525fc80c54e7d4eae5482dfd347e82a756001548c8c8c60405180858152602001806020018460ff1660ff16815260200180602001838103835286818151815260200191508051906020019080838360005b8381101561282657808201518184015260208101905061280b565b50505050905090810190601f1680156128535780820380516001836020036101000a031916815260200191505b50838103825284818151815260200191508051906020019080838360005b8381101561288c578082015181840152602081019050612871565b50505050905090810190601f1680156128b95780820380516001836020036101000a031916815260200191505b50965050505050505060405180910390a16001549450505050509695505050505050565b80600154811115612956576040517f08c379a000000000000000000000000000000000000000000000000000000000815260040180806020018281038252601d8152602001807f596f7520656e746572656420616e20696e76616c69642063617249642100000081525060200191505060405180910390fd5b60016003600084815260200190815260200160002060050160006101000a81548160ff0219169083600481111561298957fe5b02179055505050565b6060600260008381526020019081526020016000206002018054600181600116156101000203166002900480601f016020809104026020016040519081016040528092919081815260200182805460018160011615610100020316600290048015612a3e5780601f10612a1357610100808354040283529160200191612a3e565b820191906000526020600020905b815481529060010190602001808311612a2157829003601f168201915b50505050509050919050565b60006002600083815260200190815260200160002060060160009054906101000a900460ff169050919050565b6002602052806000526040600020600091509050806000018054600181600116156101000203166002900480601f016020809104026020016040519081016040528092919081815260200182805460018160011615610100020316600290048015612b235780601f10612af857610100808354040283529160200191612b23565b820191906000526020600020905b815481529060010190602001808311612b0657829003601f168201915b5050505050908060010160009054906101000a900460ff1690806002018054600181600116156101000203166002900480601f016020809104026020016040519081016040528092919081815260200182805460018160011615610100020316600290048015612bd45780601f10612ba957610100808354040283529160200191612bd4565b820191906000526020600020905b815481529060010190602001808311612bb757829003601f168201915b505050505090806003018054600181600116156101000203166002900480601f016020809104026020016040519081016040528092919081815260200182805460018160011615610100020316600290048015612c725780601f10612c4757610100808354040283529160200191612c72565b820191906000526020600020905b815481529060010190602001808311612c5557829003601f168201915b5050505050908060040160009054906101000a900460ff1690806005018054600181600116156101000203166002900480601f016020809104026020016040519081016040528092919081815260200182805460018160011615610100020316600290048015612d235780601f10612cf857610100808354040283529160200191612d23565b820191906000526020600020905b815481529060010190602001808311612d0657829003601f168201915b5050505050908060060160009054906101000a900460ff16908060060160019054906101000a900473ffffffffffffffffffffffffffffffffffffffff1690806007018054600181600116156101000203166002900480601f016020809104026020016040519081016040528092919081815260200182805460018160011615610100020316600290048015612dfa5780601f10612dcf57610100808354040283529160200191612dfa565b820191906000526020600020905b815481529060010190602001808311612ddd57829003601f168201915b5050505050905089565b816002600082815260200190815260200160002060060160019054906101000a900473ffffffffffffffffffffffffffffffffffffffff1673ffffffffffffffffffffffffffffffffffffffff163373ffffffffffffffffffffffffffffffffffffffff1614612ebf576040517f08c379a00000000000000000000000000000000000000000000000000000000081526004018080602001828103825260228152602001806141ac6022913960400191505060405180910390fd5b82600154811115612f38576040517f08c379a000000000000000000000000000000000000000000000000000000000815260040180806020018281038252601d8152602001807f596f7520656e746572656420616e20696e76616c69642063617249642100000081525060200191505060405180910390fd5b612f4061400f565b6002600086815260200190815260200160002060405180610120016040529081600082018054600181600116156101000203166002900480601f016020809104026020016040519081016040528092919081815260200182805460018160011615610100020316600290048015612ff85780601f10612fcd57610100808354040283529160200191612ff8565b820191906000526020600020905b815481529060010190602001808311612fdb57829003601f168201915b505050505081526020016001820160009054906101000a900460ff1660ff1660ff168152602001600282018054600181600116156101000203166002900480601f0160208091040260200160405190810160405280929190818152602001828054600181600116156101000203166002900480156130b75780601f1061308c576101008083540402835291602001916130b7565b820191906000526020600020905b81548152906001019060200180831161309a57829003601f168201915b50505050508152602001600382018054600181600116156101000203166002900480601f0160208091040260200160405190810160405280929190818152602001828054600181600116156101000203166002900480156131595780601f1061312e57610100808354040283529160200191613159565b820191906000526020600020905b81548152906001019060200180831161313c57829003601f168201915b505050505081526020016004820160009054906101000a900460ff16151515158152602001600582018054600181600116156101000203166002900480601f0160208091040260200160405190810160405280929190818152602001828054600181600116156101000203166002900480156132165780601f106131eb57610100808354040283529160200191613216565b820191906000526020600020905b8154815290600101906020018083116131f957829003601f168201915b505050505081526020016006820160009054906101000a900460ff16600281111561323d57fe5b600281111561324857fe5b81526020016006820160019054906101000a900473ffffffffffffffffffffffffffffffffffffffff1673ffffffffffffffffffffffffffffffffffffffff1673ffffffffffffffffffffffffffffffffffffffff168152602001600782018054600181600116156101000203166002900480601f01602080910402602001604051908101604052809291908181526020018280546001816001161561010002031660029004801561333b5780601f106133105761010080835404028352916020019161333b565b820191906000526020600020905b81548152906001019060200180831161331e57829003601f168201915b50505050508152505090508381610100018190525080600260008781526020019081526020016000206000820151816000019080519060200190613380929190614081565b5060208201518160010160006101000a81548160ff021916908360ff16021790555060408201518160020190805190602001906133be929190614081565b5060608201518160030190805190602001906133db929190614081565b5060808201518160040160006101000a81548160ff02191690831515021790555060a0820151816005019080519060200190613418929190614081565b5060c08201518160060160006101000a81548160ff0219169083600281111561343d57fe5b021790555060e08201518160060160016101000a81548173ffffffffffffffffffffffffffffffffffffffff021916908373ffffffffffffffffffffffffffffffffffffffff1602179055506101008201518160070190805190602001906134a6929190614081565b509050505050505050565b60015481565b60006002600083815260200190815260200160002060060160019054906101000a900473ffffffffffffffffffffffffffffffffffffffff169050919050565b6060600260008381526020019081526020016000206002018054600181600116156101000203166002900480601f0160208091040260200160405190810160405280929190818152602001828054600181600116156101000203166002900480156135a35780601f10613578576101008083540402835291602001916135a3565b820191906000526020600020905b81548152906001019060200180831161358657829003601f168201915b50505050509050919050565b60008060009050600160048111156135c357fe5b6003600085815260200190815260200160002060050160009054906101000a900460ff1660048111156135f257fe5b141561360157600190506136e0565b6002600481111561360e57fe5b6003600085815260200190815260200160002060050160009054906101000a900460ff16600481111561363d57fe5b141561364c57600290506136df565b6003600481111561365957fe5b6003600085815260200190815260200160002060050160009054906101000a900460ff16600481111561368857fe5b141561369757600390506136de565b6004808111156136a357fe5b6003600085815260200190815260200160002060050160009054906101000a900460ff1660048111156136d257fe5b14156136dd57600490505b5b5b5b80915050919050565b816002600082815260200190815260200160002060060160019054906101000a900473ffffffffffffffffffffffffffffffffffffffff1673ffffffffffffffffffffffffffffffffffffffff163373ffffffffffffffffffffffffffffffffffffffff16146137a4576040517f08c379a00000000000000000000000000000000000000000000000000000000081526004018080602001828103825260228152602001806141ac6022913960400191505060405180910390fd5b8260015481111561381d576040517f08c379a000000000000000000000000000000000000000000000000000000000815260040180806020018281038252601d8152602001807f596f7520656e746572656420616e20696e76616c69642063617249642100000081525060200191505060405180910390fd5b61382561400f565b6002600086815260200190815260200160002060405180610120016040529081600082018054600181600116156101000203166002900480601f0160208091040260200160405190810160405280929190818152602001828054600181600116156101000203166002900480156138dd5780601f106138b2576101008083540402835291602001916138dd565b820191906000526020600020905b8154815290600101906020018083116138c057829003601f168201915b505050505081526020016001820160009054906101000a900460ff1660ff1660ff168152602001600282018054600181600116156101000203166002900480601f01602080910402602001604051908101604052809291908181526020018280546001816001161561010002031660029004801561399c5780601f106139715761010080835404028352916020019161399c565b820191906000526020600020905b81548152906001019060200180831161397f57829003601f168201915b50505050508152602001600382018054600181600116156101000203166002900480601f016020809104026020016040519081016040528092919081815260200182805460018160011615610100020316600290048015613a3e5780601f10613a1357610100808354040283529160200191613a3e565b820191906000526020600020905b815481529060010190602001808311613a2157829003601f168201915b505050505081526020016004820160009054906101000a900460ff16151515158152602001600582018054600181600116156101000203166002900480601f016020809104026020016040519081016040528092919081815260200182805460018160011615610100020316600290048015613afb5780601f10613ad057610100808354040283529160200191613afb565b820191906000526020600020905b815481529060010190602001808311613ade57829003601f168201915b505050505081526020016006820160009054906101000a900460ff166002811115613b2257fe5b6002811115613b2d57fe5b81526020016006820160019054906101000a900473ffffffffffffffffffffffffffffffffffffffff1673ffffffffffffffffffffffffffffffffffffffff1673ffffffffffffffffffffffffffffffffffffffff168152602001600782018054600181600116156101000203166002900480601f016020809104026020016040519081016040528092919081815260200182805460018160011615610100020316600290048015613c205780601f10613bf557610100808354040283529160200191613c20565b820191906000526020600020905b815481529060010190602001808311613c0357829003601f168201915b505050505081525050905060405160200180807f5245414459000000000000000000000000000000000000000000000000000000815250600501905060405160208183030381529060405280519060200120846040516020018082805190602001908083835b60208310613ca95780518252602082019150602081019050602083039250613c86565b6001836020036101000a038019825116818451168082178552505050505050905001915050604051602081830303815290604052805190602001201415613d125760008160c001906002811115613cfc57fe5b90816002811115613d0957fe5b81525050613df6565b60405160200180807f5245504149520000000000000000000000000000000000000000000000000000815250600601905060405160208183030381529060405280519060200120846040516020018082805190602001908083835b60208310613d905780518252602082019150602081019050602083039250613d6d565b6001836020036101000a038019825116818451168082178552505050505050905001915050604051602081830303815290604052805190602001201415613df55760018160c001906002811115613de357fe5b90816002811115613df057fe5b815250505b5b80600260008781526020019081526020016000206000820151816000019080519060200190613e26929190614081565b5060208201518160010160006101000a81548160ff021916908360ff1602179055506040820151816002019080519060200190613e64929190614081565b506060820151816003019080519060200190613e81929190614081565b5060808201518160040160006101000a81548160ff02191690831515021790555060a0820151816005019080519060200190613ebe929190614081565b5060c08201518160060160006101000a81548160ff02191690836002811115613ee357fe5b021790555060e08201518160060160016101000a81548173ffffffffffffffffffffffffffffffffffffffff021916908373ffffffffffffffffffffffffffffffffffffffff160217905550610100820151816007019080519060200190613f4c929190614081565b509050505050505050565b6060600260008381526020019081526020016000206000018054600181600116156101000203166002900480601f0160208091040260200160405190810160405280929190818152602001828054600181600116156101000203166002900480156140035780601f10613fd857610100808354040283529160200191614003565b820191906000526020600020905b815481529060010190602001808311613fe657829003601f168201915b50505050509050919050565b60405180610120016040528060608152602001600060ff1681526020016060815260200160608152602001600015158152602001606081526020016000600281111561405757fe5b8152602001600073ffffffffffffffffffffffffffffffffffffffff168152602001606081525090565b828054600181600116156101000203166002900490600052602060002090601f016020900481019282601f106140c257805160ff19168380011785556140f0565b828001600101855582156140f0579182015b828111156140ef5782518255916020019190600101906140d4565b5b5090506140fd9190614158565b5090565b6040518060c0016040528060008152602001600073ffffffffffffffffffffffffffffffffffffffff1681526020016000815260200160008152602001600081526020016000600481111561415257fe5b81525090565b61417a91905b8082111561417657600081600090555060010161415e565b5090565b9056fe5468617420706c617465206e756d6265722068617320616c7265616479206265656e207265676973746572656421596f7520617265206e6f7420746865206f776e6572206f6620746869732063617221a265627a7a723158204cd5879cac3bb82e3b706b364fa2a8d0a7f78ad43fc71e7a248682e2ed5d70f164736f6c63430005100032",
  "source": "pragma solidity ^0.5.0;\r\nimport \"./CarToken.sol\";\r\n\r\ncontract CarPool {\r\n    \r\n    CarToken ctContract;\r\n\r\n    constructor (CarToken ctAddress) public {\r\n        ctContract = ctAddress;\r\n    }\r\n    \r\n    enum carState {READY, REPAIR, REMOVED}\r\n    enum rentalState {NONE, LISTED, RENTED, COLLECTED, RETURNED}\r\n\r\n    struct Car {\r\n        string description;\r\n        uint8 capacity;\r\n        string licenseType;\r\n        string plateNum;\r\n        bool insured;\r\n        string coords;\r\n        carState status;\r\n        address owner;\r\n        string condition; // damage issues of the car\r\n    }\r\n\r\n    struct Rental {\r\n        uint256 carId;\r\n        address renter;\r\n        uint256 duration;\r\n        uint256 rate;\r\n        uint256 total;\r\n        rentalState status;\r\n    }\r\n\r\n    uint256 public totalCarsCounter = 0; \r\n    mapping(uint256 => Car) public allCars;\r\n    mapping(uint256 => Rental) public allRentals;\r\n    mapping(address => uint256[]) owners;\r\n\r\n    event AddedCar(uint256 _carId, string _description, uint8 _capacity, string _plateNum);\r\n\r\n    modifier ownerOnly(uint256 _carId) {\r\n        require(msg.sender == allCars[_carId].owner, \"You are not the owner of this car!\");\r\n        _;\r\n    }\r\n\r\n    modifier validCarId(uint256 _carId) {\r\n        require(_carId <= totalCarsCounter, \"You entered an invalid carId!\");\r\n        _;\r\n    }\r\n\r\n    modifier validPlateNum(string memory _plateNum) {\r\n        bool unique = true;\r\n        for (uint i=1; i<=totalCarsCounter; i++) {\r\n            if (keccak256(abi.encodePacked(allCars[i].plateNum)) == keccak256(abi.encodePacked(_plateNum))) {\r\n                unique = false;\r\n                break;\r\n            }\r\n        }\r\n        require(unique == true, \"That plate number has already been registered!\");\r\n        _;\r\n    }\r\n\r\n    // register/unregister a car\r\n    function addCar(string memory _description, uint8 _capacity, string memory _plateNum, string memory _licenseType, string memory _coords, string memory _condition) public validPlateNum(_plateNum) returns(uint256) {\r\n        require(bytes(_description).length > 0 && _capacity > 0 && _capacity <= 8 && bytes(_plateNum).length > 0, \"Check vehicle information.\");\r\n        require(bytes(_condition).length > 0, \"Check vehicle condition.\");\r\n\r\n        totalCarsCounter = totalCarsCounter + 1;\r\n        \r\n        Car memory myCar = Car({\r\n            description: _description,\r\n            capacity: _capacity,\r\n            plateNum: _plateNum,\r\n            licenseType: _licenseType,\r\n            insured: true,\r\n            coords: _coords,\r\n            status: carState.READY,\r\n            owner: msg.sender,\r\n            condition: _condition\r\n        });\r\n\r\n        Rental memory myRental = Rental({\r\n            carId: totalCarsCounter,\r\n            renter: msg.sender,\r\n            duration: 0,\r\n            rate: 0,\r\n            total: 0,\r\n            status: rentalState.NONE\r\n        });\r\n        \r\n        allCars[totalCarsCounter] = myCar;\r\n        allRentals[totalCarsCounter] = myRental;\r\n        emit AddedCar(totalCarsCounter, _description, _capacity, _plateNum);\r\n        return totalCarsCounter;\r\n    }\r\n\r\n    function removeCar(uint256 _carId) public ownerOnly(_carId) validCarId(_carId) {\r\n        allCars[_carId].status = carState.REMOVED;\r\n        allRentals[_carId].status = rentalState.NONE;\r\n    }\r\n    \r\n    // edit car properties (location, insurance and owner). these 3 are commonly associated with transfer of car ownership\r\n    function editCar(uint256 _carId, string memory _coords, bool _insured, address _owner) public ownerOnly(_carId) validCarId(_carId) {\r\n        Car memory myCar = allCars[_carId];\r\n        myCar.coords = _coords;\r\n        myCar.insured = _insured;\r\n        myCar.owner = _owner;\r\n\r\n        allCars[_carId] = myCar;\r\n    }\r\n\r\n    // update car status\r\n    function updateStatus(uint256 _carId, string memory _status) public ownerOnly(_carId) validCarId(_carId) {\r\n        Car memory myCar = allCars[_carId];\r\n        if (keccak256(abi.encodePacked(_status)) == keccak256(abi.encodePacked(\"READY\"))) {\r\n            myCar.status = carState.READY;\r\n        } else if (keccak256(abi.encodePacked(_status)) == keccak256(abi.encodePacked(\"REPAIR\"))) {\r\n            myCar.status = carState.REPAIR;\r\n        }\r\n\r\n        allCars[_carId] = myCar;\r\n    }\r\n\r\n    // update car condition\r\n    function updateCondition(uint256 _carId, string memory _condition) public ownerOnly(_carId) validCarId(_carId) {\r\n        Car memory myCar = allCars[_carId];\r\n        myCar.condition = _condition;\r\n\r\n        allCars[_carId] = myCar;\r\n    }\r\n\r\n    // list car for rent\r\n    function listCar(uint256 _carId) public validCarId(_carId) {\r\n        allRentals[_carId].status = rentalState.LISTED;\r\n    }\r\n\r\n    // delist car for rent\r\n    function delistCar(uint256 _carId) public validCarId(_carId) {\r\n        allRentals[_carId].status = rentalState.NONE;\r\n    }\r\n\r\n    // rent the car (will be called from car rental contract)\r\n    function rentCar(uint256 _carId, address _renter, uint256 _rate, uint256 _duration) public validCarId(_carId) {\r\n        Rental memory myRental = Rental({\r\n            carId: _carId,\r\n            renter: _renter,\r\n            duration: _duration,\r\n            rate: _rate,\r\n            total: _duration*_rate,\r\n            status: rentalState.RENTED\r\n        });\r\n        allRentals[_carId] = myRental;\r\n    }\r\n\r\n    // cancel rental (will be called from car rental contract)\r\n    function cancelRental(uint256 _carId) public validCarId(_carId) {\r\n        Rental memory myRental = Rental({\r\n            carId: totalCarsCounter,\r\n            renter: msg.sender,\r\n            duration: 0,\r\n            rate: 0,\r\n            total: 0,\r\n            status: rentalState.LISTED\r\n        });\r\n        allRentals[_carId] = myRental;\r\n    }\r\n\r\n    // renter to start rental (will be called from car rental contract)\r\n    function startRental(uint256 _carId) public validCarId(_carId) {\r\n        allRentals[_carId].status = rentalState.COLLECTED;\r\n    }\r\n\r\n    // owner to end rental (will be called from car rental contract)\r\n    function endRental(uint256 _carId) public validCarId(_carId) {\r\n        allRentals[_carId].status = rentalState.LISTED;\r\n    }\r\n\r\n    // transfer CarToken as payment\r\n    function transferCT(address _from, address _to, uint256 _amt) public {\r\n        ctContract.transfer(_from, _to, _amt);\r\n    }\r\n\r\n    // get renter\r\n    function getRenter(uint256 _carId) public view returns(address) {\r\n        return allRentals[_carId].renter;\r\n    }\r\n\r\n    // get duration\r\n    function getDuration(uint256 _carId) public view returns(uint256) {\r\n        return allRentals[_carId].duration;\r\n    }\r\n\r\n    // get rate\r\n    function getRate(uint256 _carId) public view returns(uint256) {\r\n        return allRentals[_carId].rate;\r\n    }\r\n\r\n    // get owner\r\n    function getOwner(uint256 _carId) public view returns(address) {\r\n        return allCars[_carId].owner;\r\n    }\r\n\r\n    // get car info\r\n    function getCarDescription(uint256 _carId) public view returns(string memory) {\r\n        return allCars[_carId].description;\r\n    }\r\n    function getCarCapacity(uint256 _carId) public view returns(uint8) {\r\n        return allCars[_carId].capacity;\r\n    }\r\n    function getCarLicenseType(uint256 _carId) public view returns(string memory) {\r\n        return allCars[_carId].licenseType;\r\n    }\r\n    function getCarLocation(uint256 _carId) public view returns(string memory) {\r\n        return allCars[_carId].coords;\r\n    }\r\n    function getCarState(uint256 _carId) public view returns(carState){\r\n        return allCars[_carId].status;\r\n    }\r\n\r\n    // check rental status\r\n    function checkRentalStatus(uint256 _carId) public view returns(uint8) {\r\n        uint8 val = 0;\r\n        if (allRentals[_carId].status == rentalState.LISTED) {\r\n            val = 1;\r\n        } else if (allRentals[_carId].status == rentalState.RENTED) {\r\n            val = 2;\r\n        } else if (allRentals[_carId].status == rentalState.COLLECTED) {\r\n            val = 3;\r\n        } else if (allRentals[_carId].status == rentalState.RETURNED) {\r\n            val = 4;\r\n        }\r\n        return val;\r\n    }\r\n\r\n    // check license type\r\n    function checkLicenseType(uint256 _carId) public view returns(string memory) {\r\n        return allCars[_carId].licenseType;\r\n    }\r\n\r\n}",
  "sourcePath": "D:\\ANG\\Desktop\\semester2\\IS4302\\IS4302_Group22\\src\\contracts\\CarPool.sol",
  "compiler": {
    "name": "solc",
    "version": "0.5.16+commit.9c3226ce.Emscripten.clang"
  },
  "schemaVersion": "3.4.4",
  "updatedAt": "2022-04-10T09:20:02.230Z",
  "networkType": "ethereum",
  "devdoc": {
    "methods": {}
  },
  "userdoc": {
    "methods": {}
  }
}