{
  "contractName": "CarPool",
  "abi": [
    {
      "inputs": [
        {
          "internalType": "contract CarToken",
          "name": "ctAddress",
          "type": "address"
        }
      ],
      "payable": false,
      "stateMutability": "nonpayable",
      "type": "constructor"
    },
    {
      "anonymous": false,
      "inputs": [
        {
          "indexed": false,
          "internalType": "uint256",
          "name": "_carId",
          "type": "uint256"
        },
        {
          "indexed": false,
          "internalType": "string",
          "name": "_description",
          "type": "string"
        },
        {
          "indexed": false,
          "internalType": "uint8",
          "name": "_capacity",
          "type": "uint8"
        },
        {
          "indexed": false,
          "internalType": "string",
          "name": "_plateNum",
          "type": "string"
        }
      ],
      "name": "AddedCar",
      "type": "event"
    },
    {
      "constant": true,
      "inputs": [
        {
          "internalType": "uint256",
          "name": "",
          "type": "uint256"
        }
      ],
      "name": "allCars",
      "outputs": [
        {
          "internalType": "string",
          "name": "description",
          "type": "string"
        },
        {
          "internalType": "uint8",
          "name": "capacity",
          "type": "uint8"
        },
        {
          "internalType": "string",
          "name": "licenseType",
          "type": "string"
        },
        {
          "internalType": "string",
          "name": "plateNum",
          "type": "string"
        },
        {
          "internalType": "bool",
          "name": "insured",
          "type": "bool"
        },
        {
          "internalType": "string",
          "name": "coords",
          "type": "string"
        },
        {
          "internalType": "enum CarPool.carState",
          "name": "status",
          "type": "uint8"
        },
        {
          "internalType": "address",
          "name": "owner",
          "type": "address"
        },
        {
          "internalType": "string",
          "name": "condition",
          "type": "string"
        }
      ],
      "payable": false,
      "stateMutability": "view",
      "type": "function"
    },
    {
      "constant": true,
      "inputs": [
        {
          "internalType": "uint256",
          "name": "",
          "type": "uint256"
        }
      ],
      "name": "allRentals",
      "outputs": [
        {
          "internalType": "uint256",
          "name": "carId",
          "type": "uint256"
        },
        {
          "internalType": "address",
          "name": "renter",
          "type": "address"
        },
        {
          "internalType": "uint256",
          "name": "duration",
          "type": "uint256"
        },
        {
          "internalType": "uint256",
          "name": "rate",
          "type": "uint256"
        },
        {
          "internalType": "uint256",
          "name": "total",
          "type": "uint256"
        },
        {
          "internalType": "enum CarPool.rentalState",
          "name": "status",
          "type": "uint8"
        }
      ],
      "payable": false,
      "stateMutability": "view",
      "type": "function"
    },
    {
      "constant": true,
      "inputs": [],
      "name": "totalCarsCounter",
      "outputs": [
        {
          "internalType": "uint256",
          "name": "",
          "type": "uint256"
        }
      ],
      "payable": false,
      "stateMutability": "view",
      "type": "function"
    },
    {
      "constant": false,
      "inputs": [
        {
          "internalType": "string",
          "name": "_description",
          "type": "string"
        },
        {
          "internalType": "uint8",
          "name": "_capacity",
          "type": "uint8"
        },
        {
          "internalType": "string",
          "name": "_plateNum",
          "type": "string"
        },
        {
          "internalType": "string",
          "name": "_licenseType",
          "type": "string"
        },
        {
          "internalType": "string",
          "name": "_coords",
          "type": "string"
        },
        {
          "internalType": "string",
          "name": "_condition",
          "type": "string"
        }
      ],
      "name": "addCar",
      "outputs": [
        {
          "internalType": "uint256",
          "name": "",
          "type": "uint256"
        }
      ],
      "payable": false,
      "stateMutability": "nonpayable",
      "type": "function"
    },
    {
      "constant": false,
      "inputs": [
        {
          "internalType": "uint256",
          "name": "_carId",
          "type": "uint256"
        }
      ],
      "name": "removeCar",
      "outputs": [],
      "payable": false,
      "stateMutability": "nonpayable",
      "type": "function"
    },
    {
      "constant": false,
      "inputs": [
        {
          "internalType": "uint256",
          "name": "_carId",
          "type": "uint256"
        },
        {
          "internalType": "string",
          "name": "_coords",
          "type": "string"
        },
        {
          "internalType": "bool",
          "name": "_insured",
          "type": "bool"
        },
        {
          "internalType": "address",
          "name": "_owner",
          "type": "address"
        }
      ],
      "name": "editCar",
      "outputs": [],
      "payable": false,
      "stateMutability": "nonpayable",
      "type": "function"
    },
    {
      "constant": false,
      "inputs": [
        {
          "internalType": "uint256",
          "name": "_carId",
          "type": "uint256"
        },
        {
          "internalType": "string",
          "name": "_status",
          "type": "string"
        }
      ],
      "name": "updateStatus",
      "outputs": [],
      "payable": false,
      "stateMutability": "nonpayable",
      "type": "function"
    },
    {
      "constant": false,
      "inputs": [
        {
          "internalType": "uint256",
          "name": "_carId",
          "type": "uint256"
        },
        {
          "internalType": "string",
          "name": "_condition",
          "type": "string"
        }
      ],
      "name": "updateCondition",
      "outputs": [],
      "payable": false,
      "stateMutability": "nonpayable",
      "type": "function"
    },
    {
      "constant": false,
      "inputs": [
        {
          "internalType": "uint256",
          "name": "_carId",
          "type": "uint256"
        }
      ],
      "name": "listCar",
      "outputs": [],
      "payable": false,
      "stateMutability": "nonpayable",
      "type": "function"
    },
    {
      "constant": false,
      "inputs": [
        {
          "internalType": "uint256",
          "name": "_carId",
          "type": "uint256"
        }
      ],
      "name": "delistCar",
      "outputs": [],
      "payable": false,
      "stateMutability": "nonpayable",
      "type": "function"
    },
    {
      "constant": false,
      "inputs": [
        {
          "internalType": "uint256",
          "name": "_carId",
          "type": "uint256"
        },
        {
          "internalType": "address",
          "name": "_renter",
          "type": "address"
        },
        {
          "internalType": "uint256",
          "name": "_rate",
          "type": "uint256"
        },
        {
          "internalType": "uint256",
          "name": "_duration",
          "type": "uint256"
        }
      ],
      "name": "rentCar",
      "outputs": [],
      "payable": false,
      "stateMutability": "nonpayable",
      "type": "function"
    },
    {
      "constant": false,
      "inputs": [
        {
          "internalType": "uint256",
          "name": "_carId",
          "type": "uint256"
        }
      ],
      "name": "cancelRental",
      "outputs": [],
      "payable": false,
      "stateMutability": "nonpayable",
      "type": "function"
    },
    {
      "constant": false,
      "inputs": [
        {
          "internalType": "uint256",
          "name": "_carId",
          "type": "uint256"
        }
      ],
      "name": "startRental",
      "outputs": [],
      "payable": false,
      "stateMutability": "nonpayable",
      "type": "function"
    },
    {
      "constant": false,
      "inputs": [
        {
          "internalType": "uint256",
          "name": "_carId",
          "type": "uint256"
        }
      ],
      "name": "endRental",
      "outputs": [],
      "payable": false,
      "stateMutability": "nonpayable",
      "type": "function"
    },
    {
      "constant": false,
      "inputs": [
        {
          "internalType": "address",
          "name": "_from",
          "type": "address"
        },
        {
          "internalType": "address",
          "name": "_to",
          "type": "address"
        },
        {
          "internalType": "uint256",
          "name": "_amt",
          "type": "uint256"
        }
      ],
      "name": "transferCT",
      "outputs": [],
      "payable": false,
      "stateMutability": "nonpayable",
      "type": "function"
    },
    {
      "constant": true,
      "inputs": [
        {
          "internalType": "uint256",
          "name": "_carId",
          "type": "uint256"
        }
      ],
      "name": "getLocation",
      "outputs": [
        {
          "internalType": "string",
          "name": "",
          "type": "string"
        }
      ],
      "payable": false,
      "stateMutability": "view",
      "type": "function"
    },
    {
      "constant": true,
      "inputs": [
        {
          "internalType": "uint256",
          "name": "_carId",
          "type": "uint256"
        }
      ],
      "name": "getRenter",
      "outputs": [
        {
          "internalType": "address",
          "name": "",
          "type": "address"
        }
      ],
      "payable": false,
      "stateMutability": "view",
      "type": "function"
    },
    {
      "constant": true,
      "inputs": [
        {
          "internalType": "uint256",
          "name": "_carId",
          "type": "uint256"
        }
      ],
      "name": "getDuration",
      "outputs": [
        {
          "internalType": "uint256",
          "name": "",
          "type": "uint256"
        }
      ],
      "payable": false,
      "stateMutability": "view",
      "type": "function"
    },
    {
      "constant": true,
      "inputs": [
        {
          "internalType": "uint256",
          "name": "_carId",
          "type": "uint256"
        }
      ],
      "name": "getRate",
      "outputs": [
        {
          "internalType": "uint256",
          "name": "",
          "type": "uint256"
        }
      ],
      "payable": false,
      "stateMutability": "view",
      "type": "function"
    },
    {
      "constant": true,
      "inputs": [
        {
          "internalType": "uint256",
          "name": "_carId",
          "type": "uint256"
        }
      ],
      "name": "getOwner",
      "outputs": [
        {
          "internalType": "address",
          "name": "",
          "type": "address"
        }
      ],
      "payable": false,
      "stateMutability": "view",
      "type": "function"
    },
    {
      "constant": true,
      "inputs": [
        {
          "internalType": "uint256",
          "name": "_carId",
          "type": "uint256"
        }
      ],
      "name": "getCarDescription",
      "outputs": [
        {
          "internalType": "string",
          "name": "",
          "type": "string"
        }
      ],
      "payable": false,
      "stateMutability": "view",
      "type": "function"
    },
    {
      "constant": true,
      "inputs": [
        {
          "internalType": "uint256",
          "name": "_carId",
          "type": "uint256"
        }
      ],
      "name": "getCarCapacity",
      "outputs": [
        {
          "internalType": "uint8",
          "name": "",
          "type": "uint8"
        }
      ],
      "payable": false,
      "stateMutability": "view",
      "type": "function"
    },
    {
      "constant": true,
      "inputs": [
        {
          "internalType": "uint256",
          "name": "_carId",
          "type": "uint256"
        }
      ],
      "name": "getCarLicenseType",
      "outputs": [
        {
          "internalType": "string",
          "name": "",
          "type": "string"
        }
      ],
      "payable": false,
      "stateMutability": "view",
      "type": "function"
    },
    {
      "constant": true,
      "inputs": [
        {
          "internalType": "uint256",
          "name": "_carId",
          "type": "uint256"
        }
      ],
      "name": "getCarLocation",
      "outputs": [
        {
          "internalType": "string",
          "name": "",
          "type": "string"
        }
      ],
      "payable": false,
      "stateMutability": "view",
      "type": "function"
    },
    {
      "constant": true,
      "inputs": [
        {
          "internalType": "uint256",
          "name": "_carId",
          "type": "uint256"
        }
      ],
      "name": "checkRentalStatus",
      "outputs": [
        {
          "internalType": "uint8",
          "name": "",
          "type": "uint8"
        }
      ],
      "payable": false,
      "stateMutability": "view",
      "type": "function"
    },
    {
      "constant": true,
      "inputs": [
        {
          "internalType": "uint256",
          "name": "_carId",
          "type": "uint256"
        }
      ],
      "name": "checkLicenseType",
      "outputs": [
        {
          "internalType": "string",
          "name": "",
          "type": "string"
        }
      ],
      "payable": false,
      "stateMutability": "view",
      "type": "function"
    }
  ],
  "bytecode": "0x6080604052600060015534801561001557600080fd5b50604051620046e5380380620046e58339818101604052602081101561003a57600080fd5b8101908080519060200190929190505050806000806101000a81548173ffffffffffffffffffffffffffffffffffffffff021916908373ffffffffffffffffffffffffffffffffffffffff16021790555050614649806200009c6000396000f3fe608060405234801561001057600080fd5b506004361061018e5760003560e01c80638bb126a7116100de578063bb3c510d11610097578063c6527dbf11610071578063c6527dbf14610f76578063cfc9262d1461101d578063d1b34dd814611065578063d9f5c56f1461112a5761018e565b8063bb3c510d14610e25578063bd5ff06014610eea578063c41a360a14610f085761018e565b80638bb126a7146106f15780638dbbfc5d1461073357806390ba33ce1461076157806397491d6f14610a995780639c9ff43914610ac7578063b56a399b14610b6e5761018e565b80634eec42c11161014b5780636846490711610125578063684649071461052d5780636a38ddb3146105d45780636f36d44b146106025780637f7b13931461064a5761018e565b80634eec42c11461045b57806357764094146104bd5780635e0dacb4146104ff5761018e565b80630a7ec705146101935780630c3e1dd0146102015780633009c19b1461022f57806338b5400b1461029d57806340a919e01461033c57806348625ebf1461036a575b600080fd5b6101ff600480360360608110156101a957600080fd5b81019080803573ffffffffffffffffffffffffffffffffffffffff169060200190929190803573ffffffffffffffffffffffffffffffffffffffff169060200190929190803590602001909291905050506111d1565b005b61022d6004803603602081101561021757600080fd5b81019080803590602001909291905050506112ca565b005b61025b6004803603602081101561024557600080fd5b810190808035906020019092919050505061137e565b604051808273ffffffffffffffffffffffffffffffffffffffff1673ffffffffffffffffffffffffffffffffffffffff16815260200191505060405180910390f35b6102c9600480360360208110156102b357600080fd5b81019080803590602001909291905050506113be565b604051808781526020018673ffffffffffffffffffffffffffffffffffffffff1673ffffffffffffffffffffffffffffffffffffffff16815260200185815260200184815260200183815260200182600481111561032357fe5b60ff168152602001965050505050505060405180910390f35b6103686004803603602081101561035257600080fd5b8101908080359060200190929190505050611427565b005b6104596004803603608081101561038057600080fd5b8101908080359060200190929190803590602001906401000000008111156103a757600080fd5b8201836020820111156103b957600080fd5b803590602001918460018302840111640100000000831117156103db57600080fd5b91908080601f016020809104026020016040519081016040528093929190818152602001838380828437600081840152601f19601f820116905080830192505050505050509192919290803515159060200190929190803573ffffffffffffffffffffffffffffffffffffffff1690602001909291905050506114dc565b005b6104bb6004803603608081101561047157600080fd5b8101908080359060200190929190803573ffffffffffffffffffffffffffffffffffffffff1690602001909291908035906020019092919080359060200190929190505050611bd2565b005b6104e9600480360360208110156104d357600080fd5b8101908080359060200190929190505050611d5d565b6040518082815260200191505060405180910390f35b61052b6004803603602081101561051557600080fd5b8101908080359060200190929190505050611d7d565b005b6105596004803603602081101561054357600080fd5b8101908080359060200190929190505050611f08565b6040518080602001828103825283818151815260200191508051906020019080838360005b8381101561059957808201518184015260208101905061057e565b50505050905090810190601f1680156105c65780820380516001836020036101000a031916815260200191505b509250505060405180910390f35b610600600480360360208110156105ea57600080fd5b8101908080359060200190929190505050611fc0565b005b61062e6004803603602081101561061857600080fd5b8101908080359060200190929190505050612168565b604051808260ff1660ff16815260200191505060405180910390f35b6106766004803603602081101561066057600080fd5b8101908080359060200190929190505050612195565b6040518080602001828103825283818151815260200191508051906020019080838360005b838110156106b657808201518184015260208101905061069b565b50505050905090810190601f1680156106e35780820380516001836020036101000a031916815260200191505b509250505060405180910390f35b61071d6004803603602081101561070757600080fd5b81019080803590602001909291905050506125b2565b6040518082815260200191505060405180910390f35b61075f6004803603602081101561074957600080fd5b81019080803590602001909291905050506125d2565b005b610a83600480360360c081101561077757600080fd5b810190808035906020019064010000000081111561079457600080fd5b8201836020820111156107a657600080fd5b803590602001918460018302840111640100000000831117156107c857600080fd5b91908080601f016020809104026020016040519081016040528093929190818152602001838380828437600081840152601f19601f820116905080830192505050505050509192919290803560ff1690602001909291908035906020019064010000000081111561083857600080fd5b82018360208201111561084a57600080fd5b8035906020019184600183028401116401000000008311171561086c57600080fd5b91908080601f016020809104026020016040519081016040528093929190818152602001838380828437600081840152601f19601f820116905080830192505050505050509192919290803590602001906401000000008111156108cf57600080fd5b8201836020820111156108e157600080fd5b8035906020019184600183028401116401000000008311171561090357600080fd5b91908080601f016020809104026020016040519081016040528093929190818152602001838380828437600081840152601f19601f8201169050808301925050505050505091929192908035906020019064010000000081111561096657600080fd5b82018360208201111561097857600080fd5b8035906020019184600183028401116401000000008311171561099a57600080fd5b91908080601f016020809104026020016040519081016040528093929190818152602001838380828437600081840152601f19601f820116905080830192505050505050509192919290803590602001906401000000008111156109fd57600080fd5b820183602082011115610a0f57600080fd5b80359060200191846001830284011164010000000083111715610a3157600080fd5b91908080601f016020809104026020016040519081016040528093929190818152602001838380828437600081840152601f19601f820116905080830192505050505050509192919290505050612687565b6040518082815260200191505060405180910390f35b610ac560048036036020811015610aaf57600080fd5b8101908080359060200190929190505050612d51565b005b610af360048036036020811015610add57600080fd5b8101908080359060200190929190505050612e06565b6040518080602001828103825283818151815260200191508051906020019080838360005b83811015610b33578082015181840152602081019050610b18565b50505050905090810190601f168015610b605780820380516001836020036101000a031916815260200191505b509250505060405180910390f35b610b9a60048036036020811015610b8457600080fd5b8101908080359060200190929190505050612ebe565b60405180806020018a60ff1660ff16815260200180602001806020018915151515815260200180602001886002811115610bd057fe5b60ff1681526020018773ffffffffffffffffffffffffffffffffffffffff1673ffffffffffffffffffffffffffffffffffffffff1681526020018060200186810386528f818151815260200191508051906020019080838360005b83811015610c46578082015181840152602081019050610c2b565b50505050905090810190601f168015610c735780820380516001836020036101000a031916815260200191505b5086810385528d818151815260200191508051906020019080838360005b83811015610cac578082015181840152602081019050610c91565b50505050905090810190601f168015610cd95780820380516001836020036101000a031916815260200191505b5086810384528c818151815260200191508051906020019080838360005b83811015610d12578082015181840152602081019050610cf7565b50505050905090810190601f168015610d3f5780820380516001836020036101000a031916815260200191505b5086810383528a818151815260200191508051906020019080838360005b83811015610d78578082015181840152602081019050610d5d565b50505050905090810190601f168015610da55780820380516001836020036101000a031916815260200191505b50868103825287818151815260200191508051906020019080838360005b83811015610dde578082015181840152602081019050610dc3565b50505050905090810190601f168015610e0b5780820380516001836020036101000a031916815260200191505b509e50505050505050505050505050505060405180910390f35b610ee860048036036040811015610e3b57600080fd5b810190808035906020019092919080359060200190640100000000811115610e6257600080fd5b820183602082011115610e7457600080fd5b80359060200191846001830284011164010000000083111715610e9657600080fd5b91908080601f016020809104026020016040519081016040528093929190818152602001838380828437600081840152601f19601f82011690508083019250505050505050919291929050505061324b565b005b610ef26138f8565b6040518082815260200191505060405180910390f35b610f3460048036036020811015610f1e57600080fd5b81019080803590602001909291905050506138fe565b604051808273ffffffffffffffffffffffffffffffffffffffff1673ffffffffffffffffffffffffffffffffffffffff16815260200191505060405180910390f35b610fa260048036036020811015610f8c57600080fd5b810190808035906020019092919050505061393e565b6040518080602001828103825283818151815260200191508051906020019080838360005b83811015610fe2578082015181840152602081019050610fc7565b50505050905090810190601f16801561100f5780820380516001836020036101000a031916815260200191505b509250505060405180910390f35b6110496004803603602081101561103357600080fd5b81019080803590602001909291905050506139f6565b604051808260ff1660ff16815260200191505060405180910390f35b6111286004803603604081101561107b57600080fd5b8101908080359060200190929190803590602001906401000000008111156110a257600080fd5b8201836020820111156110b457600080fd5b803590602001918460018302840111640100000000831117156110d657600080fd5b91908080601f016020809104026020016040519081016040528093929190818152602001838380828437600081840152601f19601f820116905080830192505050505050509192919290505050613b30565b005b6111566004803603602081101561114057600080fd5b810190808035906020019092919050505061439e565b6040518080602001828103825283818151815260200191508051906020019080838360005b8381101561119657808201518184015260208101905061117b565b50505050905090810190601f1680156111c35780820380516001836020036101000a031916815260200191505b509250505060405180910390f35b6000809054906101000a900473ffffffffffffffffffffffffffffffffffffffff1673ffffffffffffffffffffffffffffffffffffffff1663beabacc88484846040518463ffffffff1660e01b8152600401808473ffffffffffffffffffffffffffffffffffffffff1673ffffffffffffffffffffffffffffffffffffffff1681526020018373ffffffffffffffffffffffffffffffffffffffff1673ffffffffffffffffffffffffffffffffffffffff1681526020018281526020019350505050600060405180830381600087803b1580156112ad57600080fd5b505af11580156112c1573d6000803e3d6000fd5b50505050505050565b80600154811115611343576040517f08c379a000000000000000000000000000000000000000000000000000000000815260040180806020018281038252601d8152602001807f596f7520656e746572656420616e20696e76616c69642063617249642100000081525060200191505060405180910390fd5b600380600084815260200190815260200160002060050160006101000a81548160ff0219169083600481111561137557fe5b02179055505050565b60006003600083815260200190815260200160002060010160009054906101000a900473ffffffffffffffffffffffffffffffffffffffff169050919050565b60036020528060005260406000206000915090508060000154908060010160009054906101000a900473ffffffffffffffffffffffffffffffffffffffff16908060020154908060030154908060040154908060050160009054906101000a900460ff16905086565b806001548111156114a0576040517f08c379a000000000000000000000000000000000000000000000000000000000815260040180806020018281038252601d8152602001807f596f7520656e746572656420616e20696e76616c69642063617249642100000081525060200191505060405180910390fd5b60016003600084815260200190815260200160002060050160006101000a81548160ff021916908360048111156114d357fe5b02179055505050565b836002600082815260200190815260200160002060060160019054906101000a900473ffffffffffffffffffffffffffffffffffffffff1673ffffffffffffffffffffffffffffffffffffffff163373ffffffffffffffffffffffffffffffffffffffff1614611597576040517f08c379a00000000000000000000000000000000000000000000000000000000081526004018080602001828103825260228152602001806145f36022913960400191505060405180910390fd5b84600154811115611610576040517f08c379a000000000000000000000000000000000000000000000000000000000815260040180806020018281038252601d8152602001807f596f7520656e746572656420616e20696e76616c69642063617249642100000081525060200191505060405180910390fd5b611618614456565b6002600088815260200190815260200160002060405180610120016040529081600082018054600181600116156101000203166002900480601f0160208091040260200160405190810160405280929190818152602001828054600181600116156101000203166002900480156116d05780601f106116a5576101008083540402835291602001916116d0565b820191906000526020600020905b8154815290600101906020018083116116b357829003601f168201915b505050505081526020016001820160009054906101000a900460ff1660ff1660ff168152602001600282018054600181600116156101000203166002900480601f01602080910402602001604051908101604052809291908181526020018280546001816001161561010002031660029004801561178f5780601f106117645761010080835404028352916020019161178f565b820191906000526020600020905b81548152906001019060200180831161177257829003601f168201915b50505050508152602001600382018054600181600116156101000203166002900480601f0160208091040260200160405190810160405280929190818152602001828054600181600116156101000203166002900480156118315780601f1061180657610100808354040283529160200191611831565b820191906000526020600020905b81548152906001019060200180831161181457829003601f168201915b505050505081526020016004820160009054906101000a900460ff16151515158152602001600582018054600181600116156101000203166002900480601f0160208091040260200160405190810160405280929190818152602001828054600181600116156101000203166002900480156118ee5780601f106118c3576101008083540402835291602001916118ee565b820191906000526020600020905b8154815290600101906020018083116118d157829003601f168201915b505050505081526020016006820160009054906101000a900460ff16600281111561191557fe5b600281111561192057fe5b81526020016006820160019054906101000a900473ffffffffffffffffffffffffffffffffffffffff1673ffffffffffffffffffffffffffffffffffffffff1673ffffffffffffffffffffffffffffffffffffffff168152602001600782018054600181600116156101000203166002900480601f016020809104026020016040519081016040528092919081815260200182805460018160011615610100020316600290048015611a135780601f106119e857610100808354040283529160200191611a13565b820191906000526020600020905b8154815290600101906020018083116119f657829003601f168201915b5050505050815250509050858160a0018190525084816080019015159081151581525050838160e0019073ffffffffffffffffffffffffffffffffffffffff16908173ffffffffffffffffffffffffffffffffffffffff168152505080600260008981526020019081526020016000206000820151816000019080519060200190611a9f9291906144c8565b5060208201518160010160006101000a81548160ff021916908360ff1602179055506040820151816002019080519060200190611add9291906144c8565b506060820151816003019080519060200190611afa9291906144c8565b5060808201518160040160006101000a81548160ff02191690831515021790555060a0820151816005019080519060200190611b379291906144c8565b5060c08201518160060160006101000a81548160ff02191690836002811115611b5c57fe5b021790555060e08201518160060160016101000a81548173ffffffffffffffffffffffffffffffffffffffff021916908373ffffffffffffffffffffffffffffffffffffffff160217905550610100820151816007019080519060200190611bc59291906144c8565b5090505050505050505050565b83600154811115611c4b576040517f08c379a000000000000000000000000000000000000000000000000000000000815260040180806020018281038252601d8152602001807f596f7520656e746572656420616e20696e76616c69642063617249642100000081525060200191505060405180910390fd5b611c53614548565b6040518060c001604052808781526020018673ffffffffffffffffffffffffffffffffffffffff168152602001848152602001858152602001858502815260200160026004811115611ca157fe5b815250905080600360008881526020019081526020016000206000820151816000015560208201518160010160006101000a81548173ffffffffffffffffffffffffffffffffffffffff021916908373ffffffffffffffffffffffffffffffffffffffff16021790555060408201518160020155606082015181600301556080820151816004015560a08201518160050160006101000a81548160ff02191690836004811115611d4d57fe5b0217905550905050505050505050565b600060036000838152602001908152602001600020600301549050919050565b80600154811115611df6576040517f08c379a000000000000000000000000000000000000000000000000000000000815260040180806020018281038252601d8152602001807f596f7520656e746572656420616e20696e76616c69642063617249642100000081525060200191505060405180910390fd5b611dfe614548565b6040518060c0016040528060015481526020013373ffffffffffffffffffffffffffffffffffffffff16815260200160008152602001600081526020016000815260200160016004811115611e4f57fe5b815250905080600360008581526020019081526020016000206000820151816000015560208201518160010160006101000a81548173ffffffffffffffffffffffffffffffffffffffff021916908373ffffffffffffffffffffffffffffffffffffffff16021790555060408201518160020155606082015181600301556080820151816004015560a08201518160050160006101000a81548160ff02191690836004811115611efb57fe5b0217905550905050505050565b6060600260008381526020019081526020016000206005018054600181600116156101000203166002900480601f016020809104026020016040519081016040528092919081815260200182805460018160011615610100020316600290048015611fb45780601f10611f8957610100808354040283529160200191611fb4565b820191906000526020600020905b815481529060010190602001808311611f9757829003601f168201915b50505050509050919050565b806002600082815260200190815260200160002060060160019054906101000a900473ffffffffffffffffffffffffffffffffffffffff1673ffffffffffffffffffffffffffffffffffffffff163373ffffffffffffffffffffffffffffffffffffffff161461207b576040517f08c379a00000000000000000000000000000000000000000000000000000000081526004018080602001828103825260228152602001806145f36022913960400191505060405180910390fd5b816001548111156120f4576040517f08c379a000000000000000000000000000000000000000000000000000000000815260040180806020018281038252601d8152602001807f596f7520656e746572656420616e20696e76616c69642063617249642100000081525060200191505060405180910390fd5b600280600085815260200190815260200160002060060160006101000a81548160ff0219169083600281111561212657fe5b021790555060006003600085815260200190815260200160002060050160006101000a81548160ff0219169083600481111561215e57fe5b0217905550505050565b60006002600083815260200190815260200160002060010160009054906101000a900460ff169050919050565b606061219f614456565b6002600084815260200190815260200160002060405180610120016040529081600082018054600181600116156101000203166002900480601f0160208091040260200160405190810160405280929190818152602001828054600181600116156101000203166002900480156122575780601f1061222c57610100808354040283529160200191612257565b820191906000526020600020905b81548152906001019060200180831161223a57829003601f168201915b505050505081526020016001820160009054906101000a900460ff1660ff1660ff168152602001600282018054600181600116156101000203166002900480601f0160208091040260200160405190810160405280929190818152602001828054600181600116156101000203166002900480156123165780601f106122eb57610100808354040283529160200191612316565b820191906000526020600020905b8154815290600101906020018083116122f957829003601f168201915b50505050508152602001600382018054600181600116156101000203166002900480601f0160208091040260200160405190810160405280929190818152602001828054600181600116156101000203166002900480156123b85780601f1061238d576101008083540402835291602001916123b8565b820191906000526020600020905b81548152906001019060200180831161239b57829003601f168201915b505050505081526020016004820160009054906101000a900460ff16151515158152602001600582018054600181600116156101000203166002900480601f0160208091040260200160405190810160405280929190818152602001828054600181600116156101000203166002900480156124755780601f1061244a57610100808354040283529160200191612475565b820191906000526020600020905b81548152906001019060200180831161245857829003601f168201915b505050505081526020016006820160009054906101000a900460ff16600281111561249c57fe5b60028111156124a757fe5b81526020016006820160019054906101000a900473ffffffffffffffffffffffffffffffffffffffff1673ffffffffffffffffffffffffffffffffffffffff1673ffffffffffffffffffffffffffffffffffffffff168152602001600782018054600181600116156101000203166002900480601f01602080910402602001604051908101604052809291908181526020018280546001816001161561010002031660029004801561259a5780601f1061256f5761010080835404028352916020019161259a565b820191906000526020600020905b81548152906001019060200180831161257d57829003601f168201915b50505050508152505090508060a00151915050919050565b600060036000838152602001908152602001600020600201549050919050565b8060015481111561264b576040517f08c379a000000000000000000000000000000000000000000000000000000000815260040180806020018281038252601d8152602001807f596f7520656e746572656420616e20696e76616c69642063617249642100000081525060200191505060405180910390fd5b60006003600084815260200190815260200160002060050160006101000a81548160ff0219169083600481111561267e57fe5b02179055505050565b6000846000600190506000600190505b60015481116127bd57826040516020018082805190602001908083835b602083106126d757805182526020820191506020810190506020830392506126b4565b6001836020036101000a038019825116818451168082178552505050505050905001915050604051602081830303815290604052805190602001206002600083815260200190815260200160002060030160405160200180828054600181600116156101000203166002900480156127865780601f10612764576101008083540402835291820191612786565b820191906000526020600020905b815481529060010190602001808311612772575b50509150506040516020818303038152906040528051906020012014156127b057600091506127bd565b8080600101915050612697565b50600115158115151461281b576040517f08c379a000000000000000000000000000000000000000000000000000000000815260040180806020018281038252602e8152602001806145c5602e913960400191505060405180910390fd5b6000895111801561282f575060008860ff16115b801561283f575060088860ff1611155b801561284c575060008751115b6128be576040517f08c379a000000000000000000000000000000000000000000000000000000000815260040180806020018281038252601a8152602001807f436865636b2076656869636c6520696e666f726d6174696f6e2e00000000000081525060200191505060405180910390fd5b6000845111612935576040517f08c379a00000000000000000000000000000000000000000000000000000000081526004018080602001828103825260188152602001807f436865636b2076656869636c6520636f6e646974696f6e2e000000000000000081525060200191505060405180910390fd5b6001805401600181905550612948614456565b6040518061012001604052808b81526020018a60ff1681526020018881526020018981526020016001151581526020018781526020016000600281111561298b57fe5b81526020013373ffffffffffffffffffffffffffffffffffffffff1681526020018681525090506129ba614548565b6040518060c0016040528060015481526020013373ffffffffffffffffffffffffffffffffffffffff16815260200160008152602001600081526020016000815260200160006004811115612a0b57fe5b8152509050816002600060015481526020019081526020016000206000820151816000019080519060200190612a429291906144c8565b5060208201518160010160006101000a81548160ff021916908360ff1602179055506040820151816002019080519060200190612a809291906144c8565b506060820151816003019080519060200190612a9d9291906144c8565b5060808201518160040160006101000a81548160ff02191690831515021790555060a0820151816005019080519060200190612ada9291906144c8565b5060c08201518160060160006101000a81548160ff02191690836002811115612aff57fe5b021790555060e08201518160060160016101000a81548173ffffffffffffffffffffffffffffffffffffffff021916908373ffffffffffffffffffffffffffffffffffffffff160217905550610100820151816007019080519060200190612b689291906144c8565b50905050806003600060015481526020019081526020016000206000820151816000015560208201518160010160006101000a81548173ffffffffffffffffffffffffffffffffffffffff021916908373ffffffffffffffffffffffffffffffffffffffff16021790555060408201518160020155606082015181600301556080820151816004015560a08201518160050160006101000a81548160ff02191690836004811115612c1557fe5b02179055509050507fbc3b4258995f32087a943a07f31ffa9525fc80c54e7d4eae5482dfd347e82a756001548c8c8c60405180858152602001806020018460ff1660ff16815260200180602001838103835286818151815260200191508051906020019080838360005b83811015612c9a578082015181840152602081019050612c7f565b50505050905090810190601f168015612cc75780820380516001836020036101000a031916815260200191505b50838103825284818151815260200191508051906020019080838360005b83811015612d00578082015181840152602081019050612ce5565b50505050905090810190601f168015612d2d5780820380516001836020036101000a031916815260200191505b50965050505050505060405180910390a16001549450505050509695505050505050565b80600154811115612dca576040517f08c379a000000000000000000000000000000000000000000000000000000000815260040180806020018281038252601d8152602001807f596f7520656e746572656420616e20696e76616c69642063617249642100000081525060200191505060405180910390fd5b60016003600084815260200190815260200160002060050160006101000a81548160ff02191690836004811115612dfd57fe5b02179055505050565b6060600260008381526020019081526020016000206002018054600181600116156101000203166002900480601f016020809104026020016040519081016040528092919081815260200182805460018160011615610100020316600290048015612eb25780601f10612e8757610100808354040283529160200191612eb2565b820191906000526020600020905b815481529060010190602001808311612e9557829003601f168201915b50505050509050919050565b6002602052806000526040600020600091509050806000018054600181600116156101000203166002900480601f016020809104026020016040519081016040528092919081815260200182805460018160011615610100020316600290048015612f6a5780601f10612f3f57610100808354040283529160200191612f6a565b820191906000526020600020905b815481529060010190602001808311612f4d57829003601f168201915b5050505050908060010160009054906101000a900460ff1690806002018054600181600116156101000203166002900480601f01602080910402602001604051908101604052809291908181526020018280546001816001161561010002031660029004801561301b5780601f10612ff05761010080835404028352916020019161301b565b820191906000526020600020905b815481529060010190602001808311612ffe57829003601f168201915b505050505090806003018054600181600116156101000203166002900480601f0160208091040260200160405190810160405280929190818152602001828054600181600116156101000203166002900480156130b95780601f1061308e576101008083540402835291602001916130b9565b820191906000526020600020905b81548152906001019060200180831161309c57829003601f168201915b5050505050908060040160009054906101000a900460ff1690806005018054600181600116156101000203166002900480601f01602080910402602001604051908101604052809291908181526020018280546001816001161561010002031660029004801561316a5780601f1061313f5761010080835404028352916020019161316a565b820191906000526020600020905b81548152906001019060200180831161314d57829003601f168201915b5050505050908060060160009054906101000a900460ff16908060060160019054906101000a900473ffffffffffffffffffffffffffffffffffffffff1690806007018054600181600116156101000203166002900480601f0160208091040260200160405190810160405280929190818152602001828054600181600116156101000203166002900480156132415780601f1061321657610100808354040283529160200191613241565b820191906000526020600020905b81548152906001019060200180831161322457829003601f168201915b5050505050905089565b816002600082815260200190815260200160002060060160019054906101000a900473ffffffffffffffffffffffffffffffffffffffff1673ffffffffffffffffffffffffffffffffffffffff163373ffffffffffffffffffffffffffffffffffffffff1614613306576040517f08c379a00000000000000000000000000000000000000000000000000000000081526004018080602001828103825260228152602001806145f36022913960400191505060405180910390fd5b8260015481111561337f576040517f08c379a000000000000000000000000000000000000000000000000000000000815260040180806020018281038252601d8152602001807f596f7520656e746572656420616e20696e76616c69642063617249642100000081525060200191505060405180910390fd5b613387614456565b6002600086815260200190815260200160002060405180610120016040529081600082018054600181600116156101000203166002900480601f01602080910402602001604051908101604052809291908181526020018280546001816001161561010002031660029004801561343f5780601f106134145761010080835404028352916020019161343f565b820191906000526020600020905b81548152906001019060200180831161342257829003601f168201915b505050505081526020016001820160009054906101000a900460ff1660ff1660ff168152602001600282018054600181600116156101000203166002900480601f0160208091040260200160405190810160405280929190818152602001828054600181600116156101000203166002900480156134fe5780601f106134d3576101008083540402835291602001916134fe565b820191906000526020600020905b8154815290600101906020018083116134e157829003601f168201915b50505050508152602001600382018054600181600116156101000203166002900480601f0160208091040260200160405190810160405280929190818152602001828054600181600116156101000203166002900480156135a05780601f10613575576101008083540402835291602001916135a0565b820191906000526020600020905b81548152906001019060200180831161358357829003601f168201915b505050505081526020016004820160009054906101000a900460ff16151515158152602001600582018054600181600116156101000203166002900480601f01602080910402602001604051908101604052809291908181526020018280546001816001161561010002031660029004801561365d5780601f106136325761010080835404028352916020019161365d565b820191906000526020600020905b81548152906001019060200180831161364057829003601f168201915b505050505081526020016006820160009054906101000a900460ff16600281111561368457fe5b600281111561368f57fe5b81526020016006820160019054906101000a900473ffffffffffffffffffffffffffffffffffffffff1673ffffffffffffffffffffffffffffffffffffffff1673ffffffffffffffffffffffffffffffffffffffff168152602001600782018054600181600116156101000203166002900480601f0160208091040260200160405190810160405280929190818152602001828054600181600116156101000203166002900480156137825780601f1061375757610100808354040283529160200191613782565b820191906000526020600020905b81548152906001019060200180831161376557829003601f168201915b505050505081525050905083816101000181905250806002600087815260200190815260200160002060008201518160000190805190602001906137c79291906144c8565b5060208201518160010160006101000a81548160ff021916908360ff16021790555060408201518160020190805190602001906138059291906144c8565b5060608201518160030190805190602001906138229291906144c8565b5060808201518160040160006101000a81548160ff02191690831515021790555060a082015181600501908051906020019061385f9291906144c8565b5060c08201518160060160006101000a81548160ff0219169083600281111561388457fe5b021790555060e08201518160060160016101000a81548173ffffffffffffffffffffffffffffffffffffffff021916908373ffffffffffffffffffffffffffffffffffffffff1602179055506101008201518160070190805190602001906138ed9291906144c8565b509050505050505050565b60015481565b60006002600083815260200190815260200160002060060160019054906101000a900473ffffffffffffffffffffffffffffffffffffffff169050919050565b6060600260008381526020019081526020016000206002018054600181600116156101000203166002900480601f0160208091040260200160405190810160405280929190818152602001828054600181600116156101000203166002900480156139ea5780601f106139bf576101008083540402835291602001916139ea565b820191906000526020600020905b8154815290600101906020018083116139cd57829003601f168201915b50505050509050919050565b6000806000905060016004811115613a0a57fe5b6003600085815260200190815260200160002060050160009054906101000a900460ff166004811115613a3957fe5b1415613a485760019050613b27565b60026004811115613a5557fe5b6003600085815260200190815260200160002060050160009054906101000a900460ff166004811115613a8457fe5b1415613a935760029050613b26565b60036004811115613aa057fe5b6003600085815260200190815260200160002060050160009054906101000a900460ff166004811115613acf57fe5b1415613ade5760039050613b25565b600480811115613aea57fe5b6003600085815260200190815260200160002060050160009054906101000a900460ff166004811115613b1957fe5b1415613b2457600490505b5b5b5b80915050919050565b816002600082815260200190815260200160002060060160019054906101000a900473ffffffffffffffffffffffffffffffffffffffff1673ffffffffffffffffffffffffffffffffffffffff163373ffffffffffffffffffffffffffffffffffffffff1614613beb576040517f08c379a00000000000000000000000000000000000000000000000000000000081526004018080602001828103825260228152602001806145f36022913960400191505060405180910390fd5b82600154811115613c64576040517f08c379a000000000000000000000000000000000000000000000000000000000815260040180806020018281038252601d8152602001807f596f7520656e746572656420616e20696e76616c69642063617249642100000081525060200191505060405180910390fd5b613c6c614456565b6002600086815260200190815260200160002060405180610120016040529081600082018054600181600116156101000203166002900480601f016020809104026020016040519081016040528092919081815260200182805460018160011615610100020316600290048015613d245780601f10613cf957610100808354040283529160200191613d24565b820191906000526020600020905b815481529060010190602001808311613d0757829003601f168201915b505050505081526020016001820160009054906101000a900460ff1660ff1660ff168152602001600282018054600181600116156101000203166002900480601f016020809104026020016040519081016040528092919081815260200182805460018160011615610100020316600290048015613de35780601f10613db857610100808354040283529160200191613de3565b820191906000526020600020905b815481529060010190602001808311613dc657829003601f168201915b50505050508152602001600382018054600181600116156101000203166002900480601f016020809104026020016040519081016040528092919081815260200182805460018160011615610100020316600290048015613e855780601f10613e5a57610100808354040283529160200191613e85565b820191906000526020600020905b815481529060010190602001808311613e6857829003601f168201915b505050505081526020016004820160009054906101000a900460ff16151515158152602001600582018054600181600116156101000203166002900480601f016020809104026020016040519081016040528092919081815260200182805460018160011615610100020316600290048015613f425780601f10613f1757610100808354040283529160200191613f42565b820191906000526020600020905b815481529060010190602001808311613f2557829003601f168201915b505050505081526020016006820160009054906101000a900460ff166002811115613f6957fe5b6002811115613f7457fe5b81526020016006820160019054906101000a900473ffffffffffffffffffffffffffffffffffffffff1673ffffffffffffffffffffffffffffffffffffffff1673ffffffffffffffffffffffffffffffffffffffff168152602001600782018054600181600116156101000203166002900480601f0160208091040260200160405190810160405280929190818152602001828054600181600116156101000203166002900480156140675780601f1061403c57610100808354040283529160200191614067565b820191906000526020600020905b81548152906001019060200180831161404a57829003601f168201915b505050505081525050905060405160200180807f5245414459000000000000000000000000000000000000000000000000000000815250600501905060405160208183030381529060405280519060200120846040516020018082805190602001908083835b602083106140f057805182526020820191506020810190506020830392506140cd565b6001836020036101000a0380198251168184511680821785525050505050509050019150506040516020818303038152906040528051906020012014156141595760008160c00190600281111561414357fe5b9081600281111561415057fe5b8152505061423d565b60405160200180807f5245504149520000000000000000000000000000000000000000000000000000815250600601905060405160208183030381529060405280519060200120846040516020018082805190602001908083835b602083106141d757805182526020820191506020810190506020830392506141b4565b6001836020036101000a03801982511681845116808217855250505050505090500191505060405160208183030381529060405280519060200120141561423c5760018160c00190600281111561422a57fe5b9081600281111561423757fe5b815250505b5b8060026000878152602001908152602001600020600082015181600001908051906020019061426d9291906144c8565b5060208201518160010160006101000a81548160ff021916908360ff16021790555060408201518160020190805190602001906142ab9291906144c8565b5060608201518160030190805190602001906142c89291906144c8565b5060808201518160040160006101000a81548160ff02191690831515021790555060a08201518160050190805190602001906143059291906144c8565b5060c08201518160060160006101000a81548160ff0219169083600281111561432a57fe5b021790555060e08201518160060160016101000a81548173ffffffffffffffffffffffffffffffffffffffff021916908373ffffffffffffffffffffffffffffffffffffffff1602179055506101008201518160070190805190602001906143939291906144c8565b509050505050505050565b6060600260008381526020019081526020016000206000018054600181600116156101000203166002900480601f01602080910402602001604051908101604052809291908181526020018280546001816001161561010002031660029004801561444a5780601f1061441f5761010080835404028352916020019161444a565b820191906000526020600020905b81548152906001019060200180831161442d57829003601f168201915b50505050509050919050565b60405180610120016040528060608152602001600060ff1681526020016060815260200160608152602001600015158152602001606081526020016000600281111561449e57fe5b8152602001600073ffffffffffffffffffffffffffffffffffffffff168152602001606081525090565b828054600181600116156101000203166002900490600052602060002090601f016020900481019282601f1061450957805160ff1916838001178555614537565b82800160010185558215614537579182015b8281111561453657825182559160200191906001019061451b565b5b509050614544919061459f565b5090565b6040518060c0016040528060008152602001600073ffffffffffffffffffffffffffffffffffffffff1681526020016000815260200160008152602001600081526020016000600481111561459957fe5b81525090565b6145c191905b808211156145bd5760008160009055506001016145a5565b5090565b9056fe5468617420706c617465206e756d6265722068617320616c7265616479206265656e207265676973746572656421596f7520617265206e6f7420746865206f776e6572206f6620746869732063617221a265627a7a72315820f99fd31a96748fe9ed674212562c8839f4304396720949f5c45517929563809964736f6c63430005100032",
  "source": "pragma solidity ^0.5.0;\r\nimport \"./CarToken.sol\";\r\n\r\ncontract CarPool {\r\n    \r\n    CarToken ctContract;\r\n\r\n    constructor (CarToken ctAddress) public {\r\n        ctContract = ctAddress;\r\n    }\r\n    \r\n    enum carState {READY, REPAIR, REMOVED}\r\n    enum rentalState {NONE, LISTED, RENTED, COLLECTED, RETURNED}\r\n\r\n    struct Car {\r\n        string description;\r\n        uint8 capacity;\r\n        string licenseType;\r\n        string plateNum;\r\n        bool insured;\r\n        string coords;\r\n        carState status;\r\n        address owner;\r\n        string condition; // damage issues of the car\r\n    }\r\n\r\n    struct Rental {\r\n        uint256 carId;\r\n        address renter;\r\n        uint256 duration;\r\n        uint256 rate;\r\n        uint256 total;\r\n        rentalState status;\r\n    }\r\n\r\n    uint public totalCarsCounter = 0; \r\n    mapping(uint256 => Car) public allCars;\r\n    mapping(uint256 => Rental) public allRentals;\r\n    mapping(address => uint256[]) owners;\r\n\r\n    event AddedCar(uint256 _carId, string _description, uint8 _capacity, string _plateNum);\r\n\r\n    modifier ownerOnly(uint256 _carId) {\r\n        require(msg.sender == allCars[_carId].owner, \"You are not the owner of this car!\");\r\n        _;\r\n    }\r\n\r\n    modifier validCarId(uint256 _carId) {\r\n        require(_carId <= totalCarsCounter, \"You entered an invalid carId!\");\r\n        _;\r\n    }\r\n\r\n    modifier validPlateNum(string memory _plateNum) {\r\n        bool unique = true;\r\n        for (uint i=1; i<=totalCarsCounter; i++) {\r\n            if (keccak256(abi.encodePacked(allCars[i].plateNum)) == keccak256(abi.encodePacked(_plateNum))) {\r\n                unique = false;\r\n                break;\r\n            }\r\n        }\r\n        require(unique == true, \"That plate number has already been registered!\");\r\n        _;\r\n    }\r\n\r\n    // register/unregister a car\r\n    function addCar(string memory _description, uint8 _capacity, string memory _plateNum, string memory _licenseType, string memory _coords, string memory _condition) public validPlateNum(_plateNum) returns(uint256) {\r\n        require(bytes(_description).length > 0 && _capacity > 0 && _capacity <= 8 && bytes(_plateNum).length > 0, \"Check vehicle information.\");\r\n        require(bytes(_condition).length > 0, \"Check vehicle condition.\");\r\n\r\n        totalCarsCounter = totalCarsCounter + 1;\r\n        \r\n        Car memory myCar = Car({\r\n            description: _description,\r\n            capacity: _capacity,\r\n            plateNum: _plateNum,\r\n            licenseType: _licenseType,\r\n            insured: true,\r\n            coords: _coords,\r\n            status: carState.READY,\r\n            owner: msg.sender,\r\n            condition: _condition\r\n        });\r\n\r\n        Rental memory myRental = Rental({\r\n            carId: totalCarsCounter,\r\n            renter: msg.sender,\r\n            duration: 0,\r\n            rate: 0,\r\n            total: 0,\r\n            status: rentalState.NONE\r\n        });\r\n        \r\n        allCars[totalCarsCounter] = myCar;\r\n        allRentals[totalCarsCounter] = myRental;\r\n        emit AddedCar(totalCarsCounter, _description, _capacity, _plateNum);\r\n        return totalCarsCounter;\r\n    }\r\n\r\n    function removeCar(uint256 _carId) public ownerOnly(_carId) validCarId(_carId) {\r\n        allCars[_carId].status = carState.REMOVED;\r\n        allRentals[_carId].status = rentalState.NONE;\r\n    }\r\n    \r\n    // edit car properties (location, insurance and owner). these 3 are commonly associated with transfer of car ownership\r\n    function editCar(uint256 _carId, string memory _coords, bool _insured, address _owner) public ownerOnly(_carId) validCarId(_carId) {\r\n        Car memory myCar = allCars[_carId];\r\n        myCar.coords = _coords;\r\n        myCar.insured = _insured;\r\n        myCar.owner = _owner;\r\n\r\n        allCars[_carId] = myCar;\r\n    }\r\n\r\n    // update car status\r\n    function updateStatus(uint256 _carId, string memory _status) public ownerOnly(_carId) validCarId(_carId) {\r\n        Car memory myCar = allCars[_carId];\r\n        if (keccak256(abi.encodePacked(_status)) == keccak256(abi.encodePacked(\"READY\"))) {\r\n            myCar.status = carState.READY;\r\n        } else if (keccak256(abi.encodePacked(_status)) == keccak256(abi.encodePacked(\"REPAIR\"))) {\r\n            myCar.status = carState.REPAIR;\r\n        }\r\n\r\n        allCars[_carId] = myCar;\r\n    }\r\n\r\n    // update car condition\r\n    function updateCondition(uint256 _carId, string memory _condition) public ownerOnly(_carId) validCarId(_carId) {\r\n        Car memory myCar = allCars[_carId];\r\n        myCar.condition = _condition;\r\n\r\n        allCars[_carId] = myCar;\r\n    }\r\n\r\n    // list car for rent\r\n    function listCar(uint256 _carId) public validCarId(_carId) {\r\n        allRentals[_carId].status = rentalState.LISTED;\r\n    }\r\n\r\n    // delist car for rent\r\n    function delistCar(uint256 _carId) public validCarId(_carId) {\r\n        allRentals[_carId].status = rentalState.NONE;\r\n    }\r\n\r\n    // rent the car (will be called from car rental contract)\r\n    function rentCar(uint256 _carId, address _renter, uint256 _rate, uint256 _duration) public validCarId(_carId) {\r\n        Rental memory myRental = Rental({\r\n            carId: _carId,\r\n            renter: _renter,\r\n            duration: _duration,\r\n            rate: _rate,\r\n            total: _duration*_rate,\r\n            status: rentalState.RENTED\r\n        });\r\n        allRentals[_carId] = myRental;\r\n    }\r\n\r\n    // cancel rental (will be called from car rental contract)\r\n    function cancelRental(uint256 _carId) public validCarId(_carId) {\r\n        Rental memory myRental = Rental({\r\n            carId: totalCarsCounter,\r\n            renter: msg.sender,\r\n            duration: 0,\r\n            rate: 0,\r\n            total: 0,\r\n            status: rentalState.LISTED\r\n        });\r\n        allRentals[_carId] = myRental;\r\n    }\r\n\r\n    // renter to start rental (will be called from car rental contract)\r\n    function startRental(uint256 _carId) public validCarId(_carId) {\r\n        allRentals[_carId].status = rentalState.COLLECTED;\r\n    }\r\n\r\n    // owner to end rental (will be called from car rental contract)\r\n    function endRental(uint256 _carId) public validCarId(_carId) {\r\n        allRentals[_carId].status = rentalState.LISTED;\r\n    }\r\n\r\n    // transfer CarToken as payment\r\n    function transferCT(address _from, address _to, uint256 _amt) public {\r\n        ctContract.transfer(_from, _to, _amt);\r\n    }\r\n\r\n    // get car location\r\n    function getLocation(uint256 _carId) public view returns(string memory) {\r\n        Car memory myCar = allCars[_carId];\r\n        return (myCar.coords);\r\n    }\r\n\r\n    // get renter\r\n    function getRenter(uint256 _carId) public view returns(address) {\r\n        return allRentals[_carId].renter;\r\n    }\r\n\r\n    // get duration\r\n    function getDuration(uint256 _carId) public view returns(uint256) {\r\n        return allRentals[_carId].duration;\r\n    }\r\n\r\n    // get rate\r\n    function getRate(uint256 _carId) public view returns(uint256) {\r\n        return allRentals[_carId].rate;\r\n    }\r\n\r\n    // get owner\r\n    function getOwner(uint256 _carId) public view returns(address) {\r\n        return allCars[_carId].owner;\r\n    }\r\n\r\n    // get car info\r\n    function getCarDescription(uint256 _carId) public view returns(string memory) {\r\n        return allCars[_carId].description;\r\n    }\r\n    function getCarCapacity(uint256 _carId) public view returns(uint8) {\r\n        return allCars[_carId].capacity;\r\n    }\r\n    function getCarLicenseType(uint256 _carId) public view returns(string memory) {\r\n        return allCars[_carId].licenseType;\r\n    }\r\n    function getCarLocation(uint256 _carId) public view returns(string memory) {\r\n        return allCars[_carId].coords;\r\n    }\r\n\r\n    // check rental status\r\n    function checkRentalStatus(uint256 _carId) public view returns(uint8) {\r\n        uint8 val = 0;\r\n        if (allRentals[_carId].status == rentalState.LISTED) {\r\n            val = 1;\r\n        } else if (allRentals[_carId].status == rentalState.RENTED) {\r\n            val = 2;\r\n        } else if (allRentals[_carId].status == rentalState.COLLECTED) {\r\n            val = 3;\r\n        } else if (allRentals[_carId].status == rentalState.RETURNED) {\r\n            val = 4;\r\n        }\r\n        return val;\r\n    }\r\n\r\n    // check license type\r\n    function checkLicenseType(uint256 _carId) public view returns(string memory) {\r\n        return allCars[_carId].licenseType;\r\n    }\r\n\r\n}",
  "sourcePath": "C:\\Users\\arvin\\Documents\\1Personal\\Education\\Masters\\IS4302 - Blockchain and Distributed Ledger Technologies\\Project\\code\\src\\contracts\\CarPool.sol",
  "compiler": {
    "name": "solc",
    "version": "0.5.16+commit.9c3226ce.Emscripten.clang"
  },
  "schemaVersion": "3.2.3",
  "updatedAt": "2022-04-08T15:56:10.817Z",
  "devdoc": {
    "methods": {}
  },
  "userdoc": {
    "methods": {}
  }
}