{
  "contractName": "CarRental",
  "abi": [
    {
      "inputs": [
        {
          "internalType": "contract CarPool",
          "name": "carAddress",
          "type": "address"
        },
        {
          "internalType": "contract UserPool",
          "name": "userAddress",
          "type": "address"
        },
        {
          "internalType": "uint256",
          "name": "fee",
          "type": "uint256"
        }
      ],
      "payable": false,
      "stateMutability": "nonpayable",
      "type": "constructor"
    },
    {
      "constant": true,
      "inputs": [
        {
          "internalType": "uint256",
          "name": "",
          "type": "uint256"
        }
      ],
      "name": "allListings",
      "outputs": [
        {
          "internalType": "uint256",
          "name": "",
          "type": "uint256"
        }
      ],
      "payable": false,
      "stateMutability": "view",
      "type": "function"
    },
    {
      "constant": true,
      "inputs": [
        {
          "internalType": "uint256",
          "name": "",
          "type": "uint256"
        },
        {
          "internalType": "uint256",
          "name": "",
          "type": "uint256"
        }
      ],
      "name": "allOffers",
      "outputs": [
        {
          "internalType": "uint256",
          "name": "carId",
          "type": "uint256"
        },
        {
          "internalType": "address",
          "name": "renter",
          "type": "address"
        },
        {
          "internalType": "uint256",
          "name": "rate",
          "type": "uint256"
        },
        {
          "internalType": "uint256",
          "name": "duration",
          "type": "uint256"
        },
        {
          "internalType": "enum CarRental.offerState",
          "name": "status",
          "type": "uint8"
        }
      ],
      "payable": false,
      "stateMutability": "view",
      "type": "function"
    },
    {
      "constant": true,
      "inputs": [],
      "name": "commissionFee",
      "outputs": [
        {
          "internalType": "uint256",
          "name": "",
          "type": "uint256"
        }
      ],
      "payable": false,
      "stateMutability": "view",
      "type": "function"
    },
    {
      "constant": true,
      "inputs": [
        {
          "internalType": "uint256",
          "name": "",
          "type": "uint256"
        }
      ],
      "name": "countOffers",
      "outputs": [
        {
          "internalType": "uint256",
          "name": "",
          "type": "uint256"
        }
      ],
      "payable": false,
      "stateMutability": "view",
      "type": "function"
    },
    {
      "constant": true,
      "inputs": [],
      "name": "totalListingsCounter",
      "outputs": [
        {
          "internalType": "uint256",
          "name": "",
          "type": "uint256"
        }
      ],
      "payable": false,
      "stateMutability": "view",
      "type": "function"
    },
    {
      "constant": false,
      "inputs": [
        {
          "internalType": "uint256",
          "name": "_carId",
          "type": "uint256"
        }
      ],
      "name": "list",
      "outputs": [],
      "payable": false,
      "stateMutability": "nonpayable",
      "type": "function"
    },
    {
      "constant": false,
      "inputs": [
        {
          "internalType": "uint256",
          "name": "_carId",
          "type": "uint256"
        }
      ],
      "name": "delist",
      "outputs": [],
      "payable": false,
      "stateMutability": "nonpayable",
      "type": "function"
    },
    {
      "constant": false,
      "inputs": [
        {
          "internalType": "uint256",
          "name": "_carId",
          "type": "uint256"
        },
        {
          "internalType": "uint256",
          "name": "_rate",
          "type": "uint256"
        },
        {
          "internalType": "uint256",
          "name": "_duration",
          "type": "uint256"
        }
      ],
      "name": "makeOffer",
      "outputs": [],
      "payable": false,
      "stateMutability": "nonpayable",
      "type": "function"
    },
    {
      "constant": false,
      "inputs": [
        {
          "internalType": "uint256",
          "name": "_carId",
          "type": "uint256"
        },
        {
          "internalType": "address",
          "name": "_renter",
          "type": "address"
        }
      ],
      "name": "acceptOffer",
      "outputs": [],
      "payable": false,
      "stateMutability": "nonpayable",
      "type": "function"
    },
    {
      "constant": false,
      "inputs": [
        {
          "internalType": "uint256",
          "name": "_carId",
          "type": "uint256"
        },
        {
          "internalType": "address",
          "name": "_renter",
          "type": "address"
        }
      ],
      "name": "rejectOffer",
      "outputs": [],
      "payable": false,
      "stateMutability": "nonpayable",
      "type": "function"
    },
    {
      "constant": false,
      "inputs": [
        {
          "internalType": "uint256",
          "name": "_carId",
          "type": "uint256"
        }
      ],
      "name": "cancelOffer",
      "outputs": [],
      "payable": false,
      "stateMutability": "nonpayable",
      "type": "function"
    },
    {
      "constant": false,
      "inputs": [
        {
          "internalType": "uint256",
          "name": "_carId",
          "type": "uint256"
        }
      ],
      "name": "startTrip",
      "outputs": [],
      "payable": false,
      "stateMutability": "nonpayable",
      "type": "function"
    },
    {
      "constant": false,
      "inputs": [
        {
          "internalType": "uint256",
          "name": "_carId",
          "type": "uint256"
        }
      ],
      "name": "endTrip",
      "outputs": [],
      "payable": false,
      "stateMutability": "nonpayable",
      "type": "function"
    },
    {
      "constant": false,
      "inputs": [],
      "name": "withdraw",
      "outputs": [],
      "payable": false,
      "stateMutability": "nonpayable",
      "type": "function"
    },
    {
      "constant": true,
      "inputs": [
        {
          "internalType": "uint256",
          "name": "_carId",
          "type": "uint256"
        }
      ],
      "name": "getCarDetails",
      "outputs": [
        {
          "internalType": "string",
          "name": "",
          "type": "string"
        },
        {
          "internalType": "uint8",
          "name": "",
          "type": "uint8"
        },
        {
          "internalType": "string",
          "name": "",
          "type": "string"
        },
        {
          "internalType": "string",
          "name": "",
          "type": "string"
        }
      ],
      "payable": false,
      "stateMutability": "view",
      "type": "function"
    },
    {
      "constant": true,
      "inputs": [
        {
          "internalType": "uint256",
          "name": "carId",
          "type": "uint256"
        },
        {
          "internalType": "uint8",
          "name": "nth",
          "type": "uint8"
        }
      ],
      "name": "getOfferDetails",
      "outputs": [
        {
          "internalType": "uint256",
          "name": "",
          "type": "uint256"
        },
        {
          "internalType": "address",
          "name": "",
          "type": "address"
        },
        {
          "internalType": "uint256",
          "name": "",
          "type": "uint256"
        },
        {
          "internalType": "uint256",
          "name": "",
          "type": "uint256"
        },
        {
          "internalType": "enum CarRental.offerState",
          "name": "",
          "type": "uint8"
        }
      ],
      "payable": false,
      "stateMutability": "view",
      "type": "function"
    }
  ],
  "bytecode": "0x6080604052600060035533600460006101000a81548173ffffffffffffffffffffffffffffffffffffffff021916908373ffffffffffffffffffffffffffffffffffffffff160217905550600060055534801561005b57600080fd5b5060405161378d38038061378d8339818101604052606081101561007e57600080fd5b81019080805190602001909291908051906020019092919080519060200190929190505050826000806101000a81548173ffffffffffffffffffffffffffffffffffffffff021916908373ffffffffffffffffffffffffffffffffffffffff16021790555081600160006101000a81548173ffffffffffffffffffffffffffffffffffffffff021916908373ffffffffffffffffffffffffffffffffffffffff160217905550806002819055505050506136508061013d6000396000f3fe608060405234801561001057600080fd5b50600436106101005760003560e01c8063964bc33f11610097578063db9371c211610066578063db9371c214610566578063e117e18b146105b4578063e210a72d146105f6578063ef706adf1461063857610100565b8063964bc33f146103d35780639ab2f2a0146104015780639bd13452146104a3578063c6906f631461054857610100565b806360d17c08116100d357806360d17c081461030b5780636fb1eb0c1461033957806380c9419e14610357578063918d407d1461038557610100565b80630eeaa2ef146101055780633ccfd60b146101475780633dde315e14610151578063472ec4541461017f575b600080fd5b6101316004803603602081101561011b57600080fd5b8101908080359060200190929190505050610666565b6040518082815260200191505060405180910390f35b61014f61067e565b005b61017d6004803603602081101561016757600080fd5b81019080803590602001909291905050506107f2565b005b6101ab6004803603602081101561019557600080fd5b8101908080359060200190929190505050610a42565b60405180806020018560ff1660ff1681526020018060200180602001848103845288818151815260200191508051906020019080838360005b838110156101ff5780820151818401526020810190506101e4565b50505050905090810190601f16801561022c5780820380516001836020036101000a031916815260200191505b50848103835286818151815260200191508051906020019080838360005b8381101561026557808201518184015260208101905061024a565b50505050905090810190601f1680156102925780820380516001836020036101000a031916815260200191505b50848103825285818151815260200191508051906020019080838360005b838110156102cb5780820151818401526020810190506102b0565b50505050905090810190601f1680156102f85780820380516001836020036101000a031916815260200191505b5097505050505050505060405180910390f35b6103376004803603602081101561032157600080fd5b8101908080359060200190929190505050610f5e565b005b610341611538565b6040518082815260200191505060405180910390f35b6103836004803603602081101561036d57600080fd5b810190808035906020019092919050505061153e565b005b6103d16004803603604081101561039b57600080fd5b8101908080359060200190929190803573ffffffffffffffffffffffffffffffffffffffff169060200190929190505050611725565b005b6103ff600480360360208110156103e957600080fd5b8101908080359060200190929190505050611c4e565b005b6104376004803603604081101561041757600080fd5b810190808035906020019092919080359060200190929190505050611ef3565b604051808681526020018573ffffffffffffffffffffffffffffffffffffffff1673ffffffffffffffffffffffffffffffffffffffff16815260200184815260200183815260200182600181111561048b57fe5b60ff1681526020019550505050505060405180910390f35b6104dc600480360360408110156104b957600080fd5b8101908080359060200190929190803560ff169060200190929190505050611f70565b604051808681526020018573ffffffffffffffffffffffffffffffffffffffff1673ffffffffffffffffffffffffffffffffffffffff16815260200184815260200183815260200182600181111561053057fe5b60ff1681526020019550505050505060405180910390f35b6105506120d5565b6040518082815260200191505060405180910390f35b6105b26004803603604081101561057c57600080fd5b8101908080359060200190929190803573ffffffffffffffffffffffffffffffffffffffff1690602001909291905050506120db565b005b6105e0600480360360208110156105ca57600080fd5b8101908080359060200190929190505050612572565b6040518082815260200191505060405180910390f35b6106366004803603606081101561060c57600080fd5b8101908080359060200190929190803590602001909291908035906020019092919050505061258a565b005b6106646004803603602081101561064e57600080fd5b8101908080359060200190929190505050612ef4565b005b60076020528060005260406000206000915090505481565b3373ffffffffffffffffffffffffffffffffffffffff16600460009054906101000a900473ffffffffffffffffffffffffffffffffffffffff1673ffffffffffffffffffffffffffffffffffffffff16146106d857600080fd5b6000809054906101000a900473ffffffffffffffffffffffffffffffffffffffff1673ffffffffffffffffffffffffffffffffffffffff16630a7ec70530600460009054906101000a900473ffffffffffffffffffffffffffffffffffffffff166003546040518463ffffffff1660e01b8152600401808473ffffffffffffffffffffffffffffffffffffffff1673ffffffffffffffffffffffffffffffffffffffff1681526020018373ffffffffffffffffffffffffffffffffffffffff1673ffffffffffffffffffffffffffffffffffffffff1681526020018281526020019350505050600060405180830381600087803b1580156107d857600080fd5b505af11580156107ec573d6000803e3d6000fd5b50505050565b803373ffffffffffffffffffffffffffffffffffffffff166000809054906101000a900473ffffffffffffffffffffffffffffffffffffffff1673ffffffffffffffffffffffffffffffffffffffff16633009c19b836040518263ffffffff1660e01b81526004018082815260200191505060206040518083038186803b15801561087c57600080fd5b505afa158015610890573d6000803e3d6000fd5b505050506040513d60208110156108a657600080fd5b810190808051906020019092919050505073ffffffffffffffffffffffffffffffffffffffff1614610940576040517f08c379a00000000000000000000000000000000000000000000000000000000081526004018080602001828103825260178152602001807f596f7520617265206e6f74207468652072656e7465722100000000000000000081525060200191505060405180910390fd5b6000809054906101000a900473ffffffffffffffffffffffffffffffffffffffff1673ffffffffffffffffffffffffffffffffffffffff16630c3e1dd0836040518263ffffffff1660e01b815260040180828152602001915050600060405180830381600087803b1580156109b457600080fd5b505af11580156109c8573d6000803e3d6000fd5b5050505060008090505b6006600084815260200190815260200160002080549050811015610a245760066000848152602001908152602001600020805480919060019003610a16919061349f565b5080806001019150506109d2565b50600060086000848152602001908152602001600020819055505050565b6060600060608060606000809054906101000a900473ffffffffffffffffffffffffffffffffffffffff1673ffffffffffffffffffffffffffffffffffffffff1663d9f5c56f876040518263ffffffff1660e01b81526004018082815260200191505060006040518083038186803b158015610abd57600080fd5b505afa158015610ad1573d6000803e3d6000fd5b505050506040513d6000823e3d601f19601f820116820180604052506020811015610afb57600080fd5b8101908080516040519392919084640100000000821115610b1b57600080fd5b83820191506020820185811115610b3157600080fd5b8251866001820283011164010000000082111715610b4e57600080fd5b8083526020830192505050908051906020019080838360005b83811015610b82578082015181840152602081019050610b67565b50505050905090810190601f168015610baf5780820380516001836020036101000a031916815260200191505b50604052505050905060008060009054906101000a900473ffffffffffffffffffffffffffffffffffffffff1673ffffffffffffffffffffffffffffffffffffffff16636f36d44b886040518263ffffffff1660e01b81526004018082815260200191505060206040518083038186803b158015610c2c57600080fd5b505afa158015610c40573d6000803e3d6000fd5b505050506040513d6020811015610c5657600080fd5b8101908080519060200190929190505050905060606000809054906101000a900473ffffffffffffffffffffffffffffffffffffffff1673ffffffffffffffffffffffffffffffffffffffff1663c6527dbf896040518263ffffffff1660e01b81526004018082815260200191505060006040518083038186803b158015610cdd57600080fd5b505afa158015610cf1573d6000803e3d6000fd5b505050506040513d6000823e3d601f19601f820116820180604052506020811015610d1b57600080fd5b8101908080516040519392919084640100000000821115610d3b57600080fd5b83820191506020820185811115610d5157600080fd5b8251866001820283011164010000000082111715610d6e57600080fd5b8083526020830192505050908051906020019080838360005b83811015610da2578082015181840152602081019050610d87565b50505050905090810190601f168015610dcf5780820380516001836020036101000a031916815260200191505b50604052505050905060606000809054906101000a900473ffffffffffffffffffffffffffffffffffffffff1673ffffffffffffffffffffffffffffffffffffffff1663684649078a6040518263ffffffff1660e01b81526004018082815260200191505060006040518083038186803b158015610e4c57600080fd5b505afa158015610e60573d6000803e3d6000fd5b505050506040513d6000823e3d601f19601f820116820180604052506020811015610e8a57600080fd5b8101908080516040519392919084640100000000821115610eaa57600080fd5b83820191506020820185811115610ec057600080fd5b8251866001820283011164010000000082111715610edd57600080fd5b8083526020830192505050908051906020019080838360005b83811015610f11578082015181840152602081019050610ef6565b50505050905090810190601f168015610f3e5780820380516001836020036101000a031916815260200191505b506040525050509050838383839750975097509750505050509193509193565b806000809054906101000a900473ffffffffffffffffffffffffffffffffffffffff1673ffffffffffffffffffffffffffffffffffffffff1663c41a360a826040518263ffffffff1660e01b81526004018082815260200191505060206040518083038186803b158015610fd157600080fd5b505afa158015610fe5573d6000803e3d6000fd5b505050506040513d6020811015610ffb57600080fd5b810190808051906020019092919050505073ffffffffffffffffffffffffffffffffffffffff163373ffffffffffffffffffffffffffffffffffffffff161461108f576040517f08c379a00000000000000000000000000000000000000000000000000000000081526004018080602001828103825260228152602001806135fa6022913960400191505060405180910390fd5b6000809054906101000a900473ffffffffffffffffffffffffffffffffffffffff1673ffffffffffffffffffffffffffffffffffffffff166397491d6f836040518263ffffffff1660e01b815260040180828152602001915050600060405180830381600087803b15801561110357600080fd5b505af1158015611117573d6000803e3d6000fd5b5050505060008060009054906101000a900473ffffffffffffffffffffffffffffffffffffffff1673ffffffffffffffffffffffffffffffffffffffff16633009c19b846040518263ffffffff1660e01b81526004018082815260200191505060206040518083038186803b15801561118f57600080fd5b505afa1580156111a3573d6000803e3d6000fd5b505050506040513d60208110156111b957600080fd5b8101908080519060200190929190505050905060008060009054906101000a900473ffffffffffffffffffffffffffffffffffffffff1673ffffffffffffffffffffffffffffffffffffffff166357764094856040518263ffffffff1660e01b81526004018082815260200191505060206040518083038186803b15801561124057600080fd5b505afa158015611254573d6000803e3d6000fd5b505050506040513d602081101561126a57600080fd5b8101908080519060200190929190505050905060008060009054906101000a900473ffffffffffffffffffffffffffffffffffffffff1673ffffffffffffffffffffffffffffffffffffffff16638bb126a7866040518263ffffffff1660e01b81526004018082815260200191505060206040518083038186803b1580156112f157600080fd5b505afa158015611305573d6000803e3d6000fd5b505050506040513d602081101561131b57600080fd5b8101908080519060200190929190505050905060006002548284020390506000809054906101000a900473ffffffffffffffffffffffffffffffffffffffff1673ffffffffffffffffffffffffffffffffffffffff16630a7ec7058533846040518463ffffffff1660e01b8152600401808473ffffffffffffffffffffffffffffffffffffffff1673ffffffffffffffffffffffffffffffffffffffff1681526020018373ffffffffffffffffffffffffffffffffffffffff1673ffffffffffffffffffffffffffffffffffffffff1681526020018281526020019350505050600060405180830381600087803b15801561141557600080fd5b505af1158015611429573d6000803e3d6000fd5b505050506000809054906101000a900473ffffffffffffffffffffffffffffffffffffffff1673ffffffffffffffffffffffffffffffffffffffff16630a7ec70585306002546040518463ffffffff1660e01b8152600401808473ffffffffffffffffffffffffffffffffffffffff1673ffffffffffffffffffffffffffffffffffffffff1681526020018373ffffffffffffffffffffffffffffffffffffffff1673ffffffffffffffffffffffffffffffffffffffff1681526020018281526020019350505050600060405180830381600087803b15801561150b57600080fd5b505af115801561151f573d6000803e3d6000fd5b5050505060025460035401600381905550505050505050565b60025481565b806000809054906101000a900473ffffffffffffffffffffffffffffffffffffffff1673ffffffffffffffffffffffffffffffffffffffff1663c41a360a826040518263ffffffff1660e01b81526004018082815260200191505060206040518083038186803b1580156115b157600080fd5b505afa1580156115c5573d6000803e3d6000fd5b505050506040513d60208110156115db57600080fd5b810190808051906020019092919050505073ffffffffffffffffffffffffffffffffffffffff163373ffffffffffffffffffffffffffffffffffffffff161461166f576040517f08c379a00000000000000000000000000000000000000000000000000000000081526004018080602001828103825260228152602001806135fa6022913960400191505060405180910390fd5b6000809054906101000a900473ffffffffffffffffffffffffffffffffffffffff1673ffffffffffffffffffffffffffffffffffffffff166340a919e0836040518263ffffffff1660e01b815260040180828152602001915050600060405180830381600087803b1580156116e357600080fd5b505af11580156116f7573d6000803e3d6000fd5b5050505060016005540160058190555081600760006005548152602001908152602001600020819055505050565b816000809054906101000a900473ffffffffffffffffffffffffffffffffffffffff1673ffffffffffffffffffffffffffffffffffffffff1663c41a360a826040518263ffffffff1660e01b81526004018082815260200191505060206040518083038186803b15801561179857600080fd5b505afa1580156117ac573d6000803e3d6000fd5b505050506040513d60208110156117c257600080fd5b810190808051906020019092919050505073ffffffffffffffffffffffffffffffffffffffff163373ffffffffffffffffffffffffffffffffffffffff1614611856576040517f08c379a00000000000000000000000000000000000000000000000000000000081526004018080602001828103825260228152602001806135fa6022913960400191505060405180910390fd5b8260016000809054906101000a900473ffffffffffffffffffffffffffffffffffffffff1673ffffffffffffffffffffffffffffffffffffffff1663cfc9262d836040518263ffffffff1660e01b81526004018082815260200191505060206040518083038186803b1580156118cb57600080fd5b505afa1580156118df573d6000803e3d6000fd5b505050506040513d60208110156118f557600080fd5b810190808051906020019092919050505060ff161461197c576040517f08c379a00000000000000000000000000000000000000000000000000000000081526004018080602001828103825260128152602001807f436172206973206e6f74206c697374656421000000000000000000000000000081525060200191505060405180910390fd5b600080600090505b6006600087815260200190815260200160002080549050811015611a3a578473ffffffffffffffffffffffffffffffffffffffff166006600088815260200190815260200160002082815481106119d757fe5b906000526020600020906005020160010160009054906101000a900473ffffffffffffffffffffffffffffffffffffffff1673ffffffffffffffffffffffffffffffffffffffff161415611a2d57809150611a3a565b8080600101915050611984565b50611a436134d1565b600660008781526020019081526020016000208281548110611a6157fe5b90600052602060002090600502016040518060a0016040529081600082015481526020016001820160009054906101000a900473ffffffffffffffffffffffffffffffffffffffff1673ffffffffffffffffffffffffffffffffffffffff1673ffffffffffffffffffffffffffffffffffffffff16815260200160028201548152602001600382015481526020016004820160009054906101000a900460ff166001811115611b0c57fe5b6001811115611b1757fe5b8152505090506001600660008881526020019081526020016000208381548110611b3d57fe5b906000526020600020906005020160040160006101000a81548160ff02191690836001811115611b6957fe5b02179055506000809054906101000a900473ffffffffffffffffffffffffffffffffffffffff1673ffffffffffffffffffffffffffffffffffffffff16634eec42c18787846040015185606001516040518563ffffffff1660e01b8152600401808581526020018473ffffffffffffffffffffffffffffffffffffffff1673ffffffffffffffffffffffffffffffffffffffff168152602001838152602001828152602001945050505050600060405180830381600087803b158015611c2e57600080fd5b505af1158015611c42573d6000803e3d6000fd5b50505050505050505050565b806000809054906101000a900473ffffffffffffffffffffffffffffffffffffffff1673ffffffffffffffffffffffffffffffffffffffff1663c41a360a826040518263ffffffff1660e01b81526004018082815260200191505060206040518083038186803b158015611cc157600080fd5b505afa158015611cd5573d6000803e3d6000fd5b505050506040513d6020811015611ceb57600080fd5b810190808051906020019092919050505073ffffffffffffffffffffffffffffffffffffffff163373ffffffffffffffffffffffffffffffffffffffff1614611d7f576040517f08c379a00000000000000000000000000000000000000000000000000000000081526004018080602001828103825260228152602001806135fa6022913960400191505060405180910390fd5b6000809054906101000a900473ffffffffffffffffffffffffffffffffffffffff1673ffffffffffffffffffffffffffffffffffffffff16638dbbfc5d836040518263ffffffff1660e01b815260040180828152602001915050600060405180830381600087803b158015611df357600080fd5b505af1158015611e07573d6000803e3d6000fd5b50505050600080600090505b600554811015611e4d578360076000838152602001908152602001600020541415611e4057809150611e4d565b8080600101915050611e13565b50600760008281526020019081526020016000206000905560016005540360058190555060008090505b6006600085815260200190815260200160002080549050811015611eed5760066000858152602001908152602001600020805480919060019003611ebb919061349f565b506008600085815260200190815260200160002060008154809291906001900391905055508080600101915050611e77565b50505050565b60066020528160005260406000208181548110611f0c57fe5b9060005260206000209060050201600091509150508060000154908060010160009054906101000a900473ffffffffffffffffffffffffffffffffffffffff16908060020154908060030154908060040160009054906101000a900460ff16905085565b600080600080600080600660008981526020019081526020016000208760ff1681548110611f9a57fe5b90600052602060002090600502016000015490506000600660008a81526020019081526020016000208860ff1681548110611fd157fe5b906000526020600020906005020160010160009054906101000a900473ffffffffffffffffffffffffffffffffffffffff1690506000600660008b81526020019081526020016000208960ff168154811061202857fe5b90600052602060002090600502016002015490506000600660008c81526020019081526020016000208a60ff168154811061205f57fe5b90600052602060002090600502016003015490506000600660008d81526020019081526020016000208b60ff168154811061209657fe5b906000526020600020906005020160040160009054906101000a900460ff16905084848484849950995099509950995050505050509295509295909350565b60055481565b816000809054906101000a900473ffffffffffffffffffffffffffffffffffffffff1673ffffffffffffffffffffffffffffffffffffffff1663c41a360a826040518263ffffffff1660e01b81526004018082815260200191505060206040518083038186803b15801561214e57600080fd5b505afa158015612162573d6000803e3d6000fd5b505050506040513d602081101561217857600080fd5b810190808051906020019092919050505073ffffffffffffffffffffffffffffffffffffffff163373ffffffffffffffffffffffffffffffffffffffff161461220c576040517f08c379a00000000000000000000000000000000000000000000000000000000081526004018080602001828103825260228152602001806135fa6022913960400191505060405180910390fd5b8260016000809054906101000a900473ffffffffffffffffffffffffffffffffffffffff1673ffffffffffffffffffffffffffffffffffffffff1663cfc9262d836040518263ffffffff1660e01b81526004018082815260200191505060206040518083038186803b15801561228157600080fd5b505afa158015612295573d6000803e3d6000fd5b505050506040513d60208110156122ab57600080fd5b810190808051906020019092919050505060ff1614612332576040517f08c379a00000000000000000000000000000000000000000000000000000000081526004018080602001828103825260128152602001807f436172206973206e6f74206c697374656421000000000000000000000000000081525060200191505060405180910390fd5b600080600090505b60066000878152602001908152602001600020805490508110156123f0578473ffffffffffffffffffffffffffffffffffffffff1660066000888152602001908152602001600020828154811061238d57fe5b906000526020600020906005020160010160009054906101000a900473ffffffffffffffffffffffffffffffffffffffff1673ffffffffffffffffffffffffffffffffffffffff1614156123e3578091506123f0565b808060010191505061233a565b506006600086815260200190815260200160002060016006600088815260200190815260200160002080549050038154811061242857fe5b906000526020600020906005020160066000878152602001908152602001600020828154811061245457fe5b9060005260206000209060050201600082015481600001556001820160009054906101000a900473ffffffffffffffffffffffffffffffffffffffff168160010160006101000a81548173ffffffffffffffffffffffffffffffffffffffff021916908373ffffffffffffffffffffffffffffffffffffffff16021790555060028201548160020155600382015481600301556004820160009054906101000a900460ff168160040160006101000a81548160ff0219169083600181111561251857fe5b021790555090505060066000868152602001908152602001600020805480919060019003612546919061349f565b506008600086815260200190815260200160002060008154809291906001900391905055505050505050565b60086020528060005260406000206000915090505481565b8260016000809054906101000a900473ffffffffffffffffffffffffffffffffffffffff1673ffffffffffffffffffffffffffffffffffffffff1663cfc9262d836040518263ffffffff1660e01b81526004018082815260200191505060206040518083038186803b1580156125ff57600080fd5b505afa158015612613573d6000803e3d6000fd5b505050506040513d602081101561262957600080fd5b810190808051906020019092919050505060ff16146126b0576040517f08c379a00000000000000000000000000000000000000000000000000000000081526004018080602001828103825260128152602001807f436172206973206e6f74206c697374656421000000000000000000000000000081525060200191505060405180910390fd5b3360011515600160009054906101000a900473ffffffffffffffffffffffffffffffffffffffff1673ffffffffffffffffffffffffffffffffffffffff1663ee2574af836040518263ffffffff1660e01b8152600401808273ffffffffffffffffffffffffffffffffffffffff1673ffffffffffffffffffffffffffffffffffffffff16815260200191505060206040518083038186803b15801561275457600080fd5b505afa158015612768573d6000803e3d6000fd5b505050506040513d602081101561277e57600080fd5b8101908080519060200190929190505050151514612804576040517f08c379a000000000000000000000000000000000000000000000000000000000815260040180806020018281038252601e8152602001807f596f7520617265206e6f7420612072656769737465726564207573657221000081525060200191505060405180910390fd5b83836000600160009054906101000a900473ffffffffffffffffffffffffffffffffffffffff1673ffffffffffffffffffffffffffffffffffffffff1663f8b2cb4f336040518263ffffffff1660e01b8152600401808273ffffffffffffffffffffffffffffffffffffffff1673ffffffffffffffffffffffffffffffffffffffff16815260200191505060206040518083038186803b1580156128a757600080fd5b505afa1580156128bb573d6000803e3d6000fd5b505050506040513d60208110156128d157600080fd5b8101908080519060200190929190505050905081830281101561295c576040517f08c379a000000000000000000000000000000000000000000000000000000000815260040180806020018281038252601d8152602001807f596f75206861766520696e73756666696369656e7420746f6b656e732100000081525060200191505060405180910390fd5b6060600160009054906101000a900473ffffffffffffffffffffffffffffffffffffffff1673ffffffffffffffffffffffffffffffffffffffff16630b9a697e336040518263ffffffff1660e01b8152600401808273ffffffffffffffffffffffffffffffffffffffff1673ffffffffffffffffffffffffffffffffffffffff16815260200191505060006040518083038186803b1580156129fd57600080fd5b505afa158015612a11573d6000803e3d6000fd5b505050506040513d6000823e3d601f19601f820116820180604052506020811015612a3b57600080fd5b8101908080516040519392919084640100000000821115612a5b57600080fd5b83820191506020820185811115612a7157600080fd5b8251866001820283011164010000000082111715612a8e57600080fd5b8083526020830192505050908051906020019080838360005b83811015612ac2578082015181840152602081019050612aa7565b50505050905090810190601f168015612aef5780820380516001836020036101000a031916815260200191505b50604052505050905060606000809054906101000a900473ffffffffffffffffffffffffffffffffffffffff1673ffffffffffffffffffffffffffffffffffffffff16639c9ff4398b6040518263ffffffff1660e01b81526004018082815260200191505060006040518083038186803b158015612b6c57600080fd5b505afa158015612b80573d6000803e3d6000fd5b505050506040513d6000823e3d601f19601f820116820180604052506020811015612baa57600080fd5b8101908080516040519392919084640100000000821115612bca57600080fd5b83820191506020820185811115612be057600080fd5b8251866001820283011164010000000082111715612bfd57600080fd5b8083526020830192505050908051906020019080838360005b83811015612c31578082015181840152602081019050612c16565b50505050905090810190601f168015612c5e5780820380516001836020036101000a031916815260200191505b506040525050509050806040516020018082805190602001908083835b60208310612c9e5780518252602082019150602081019050602083039250612c7b565b6001836020036101000a03801982511681845116808217855250505050505090500191505060405160208183030381529060405280519060200120826040516020018082805190602001908083835b60208310612d105780518252602082019150602081019050602083039250612ced565b6001836020036101000a0380198251168184511680821785525050505050509050019150506040516020818303038152906040528051906020012014612da1576040517f08c379a000000000000000000000000000000000000000000000000000000000815260040180806020018281038252603a8152602001806135c0603a913960400191505060405180910390fd5b612da96134d1565b6040518060a001604052808c81526020013373ffffffffffffffffffffffffffffffffffffffff1681526020018b81526020018a815260200160006001811115612def57fe5b8152509050600660008c815260200190815260200160002081908060018154018082558091505090600182039060005260206000209060050201600090919290919091506000820151816000015560208201518160010160006101000a81548173ffffffffffffffffffffffffffffffffffffffff021916908373ffffffffffffffffffffffffffffffffffffffff160217905550604082015181600201556060820151816003015560808201518160040160006101000a81548160ff02191690836001811115612ebc57fe5b0217905550505050600860008c8152602001908152602001600020600081548092919060010191905055505050505050505050505050565b8060026000809054906101000a900473ffffffffffffffffffffffffffffffffffffffff1673ffffffffffffffffffffffffffffffffffffffff1663cfc9262d836040518263ffffffff1660e01b81526004018082815260200191505060206040518083038186803b158015612f6957600080fd5b505afa158015612f7d573d6000803e3d6000fd5b505050506040513d6020811015612f9357600080fd5b810190808051906020019092919050505060ff161461301a576040517f08c379a00000000000000000000000000000000000000000000000000000000081526004018080602001828103825260128152602001807f436172206973206e6f742072656e74656421000000000000000000000000000081525060200191505060405180910390fd5b60036000809054906101000a900473ffffffffffffffffffffffffffffffffffffffff1673ffffffffffffffffffffffffffffffffffffffff1663cfc9262d846040518263ffffffff1660e01b81526004018082815260200191505060206040518083038186803b15801561308e57600080fd5b505afa1580156130a2573d6000803e3d6000fd5b505050506040513d60208110156130b857600080fd5b810190808051906020019092919050505060ff161415613123576040517f08c379a000000000000000000000000000000000000000000000000000000000815260040180806020018281038252602c815260200180613594602c913960400191505060405180910390fd5b60008060009054906101000a900473ffffffffffffffffffffffffffffffffffffffff1673ffffffffffffffffffffffffffffffffffffffff16633009c19b846040518263ffffffff1660e01b81526004018082815260200191505060206040518083038186803b15801561319757600080fd5b505afa1580156131ab573d6000803e3d6000fd5b505050506040513d60208110156131c157600080fd5b81019080805190602001909291905050509050600080600090505b6006600086815260200190815260200160002080549050811015613292578273ffffffffffffffffffffffffffffffffffffffff1660066000878152602001908152602001600020828154811061322f57fe5b906000526020600020906005020160010160009054906101000a900473ffffffffffffffffffffffffffffffffffffffff1673ffffffffffffffffffffffffffffffffffffffff16141561328557809150613292565b80806001019150506131dc565b50600660008581526020019081526020016000206001600660008781526020019081526020016000208054905003815481106132ca57fe5b90600052602060002090600502016006600086815260200190815260200160002082815481106132f657fe5b9060005260206000209060050201600082015481600001556001820160009054906101000a900473ffffffffffffffffffffffffffffffffffffffff168160010160006101000a81548173ffffffffffffffffffffffffffffffffffffffff021916908373ffffffffffffffffffffffffffffffffffffffff16021790555060028201548160020155600382015481600301556004820160009054906101000a900460ff168160040160006101000a81548160ff021916908360018111156133ba57fe5b0217905550905050600660008581526020019081526020016000208054809190600190036133e8919061349f565b506008600085815260200190815260200160002060008154809291906001900391905055506000809054906101000a900473ffffffffffffffffffffffffffffffffffffffff1673ffffffffffffffffffffffffffffffffffffffff16635e0dacb4856040518263ffffffff1660e01b815260040180828152602001915050600060405180830381600087803b15801561348157600080fd5b505af1158015613495573d6000803e3d6000fd5b5050505050505050565b8154818355818111156134cc576005028160050283600052602060002091820191016134cb9190613521565b5b505050565b6040518060a0016040528060008152602001600073ffffffffffffffffffffffffffffffffffffffff16815260200160008152602001600081526020016000600181111561351b57fe5b81525090565b61359091905b8082111561358c576000808201600090556001820160006101000a81549073ffffffffffffffffffffffffffffffffffffffff0219169055600282016000905560038201600090556004820160006101000a81549060ff021916905550600501613527565b5090565b9056fe54686973206361722068617320616c7265616479206265656e20636f6c6c656374656420666f722075736521596f7520646f206e6f74206861766520746865207265717569726564206c6963656e736520746f2072656e7420746869732076656869636c6521596f7520617265206e6f7420746865206f776e6572206f6620746869732063617221a265627a7a72315820e05657b0fb9b2fc0118d3d34bf31fadf497201329c9966983f3fe1c394d814ba64736f6c63430005100032",
  "source": "pragma solidity ^0.5.0;\r\nimport \"./CarPool.sol\";\r\nimport \"./UserPool.sol\";\r\n\r\ncontract CarRental {\r\n    CarPool carsContract;\r\n    UserPool usersContract;\r\n    uint256 public commissionFee;\r\n    uint256 totalCommission = 0;\r\n    address _owner = msg.sender;\r\n\r\n    enum offerState {IN_PROCESS, ACCEPTED}\r\n    struct Offer {\r\n        uint256 carId;\r\n        address renter;\r\n        uint256 rate;\r\n        uint256 duration;\r\n        offerState status;\r\n    }\r\n\r\n    uint public totalListingsCounter = 0;\r\n    mapping(uint256 => Offer[]) public allOffers;\r\n    mapping(uint256 => uint256) public allListings;\r\n    mapping(uint256 => uint256) public countOffers;\r\n\r\n    constructor(CarPool carAddress, UserPool userAddress, uint256 fee) public {\r\n        carsContract = carAddress;\r\n        usersContract = userAddress;\r\n        commissionFee = fee;\r\n    }\r\n\r\n    // modifier to ensure user is owner of car\r\n    modifier isOwner(uint256 _carId) {\r\n        require(msg.sender == carsContract.getOwner(_carId), \"You are not the owner of this car!\");\r\n        _;\r\n    }\r\n\r\n    // modifier to ensure user is registered\r\n    modifier isRegistered(address _renter) {\r\n        require(usersContract.checkRegistered(_renter) == true, \"You are not a registered user!\");\r\n        _;\r\n    }\r\n\r\n    // modifier to ensure car is listed\r\n    modifier isListed(uint256 _carId) {\r\n        require(carsContract.checkRentalStatus(_carId) == 1, \"Car is not listed!\");\r\n        _;\r\n    }\r\n\r\n    // modifier to ensure car is rented\r\n    modifier isRented(uint256 _carId) {\r\n        require(carsContract.checkRentalStatus(_carId) == 2, \"Car is not rented!\");\r\n        _;\r\n    }\r\n\r\n    // modifier to ensure user calling is the renter\r\n    modifier isRenter(uint256 _carId) {\r\n        require(carsContract.getRenter(_carId) == msg.sender, \"You are not the renter!\");\r\n        _;\r\n    }\r\n\r\n    // modifier to ensure balance is enough to rent car\r\n    modifier sufficientBalance(uint256 _rate, uint256 _duration) {\r\n        uint256 _balance = usersContract.getBalance(msg.sender);\r\n        require(_balance >= (_rate * _duration), \"You have insufficient tokens!\");\r\n        _;\r\n    }\r\n\r\n    // modifier to ensure administrator can call the function\r\n    modifier administratorOnly {\r\n        require(_owner == msg.sender);\r\n        _;\r\n    }\r\n\r\n    // list a car for rental\r\n    function list(uint256 _carId) public isOwner(_carId) {\r\n        carsContract.listCar(_carId);\r\n        totalListingsCounter = totalListingsCounter + 1;\r\n        allListings[totalListingsCounter] = _carId;\r\n    }\r\n\r\n    // delist a car\r\n    function delist(uint256 _carId) public isOwner(_carId) {\r\n        carsContract.delistCar(_carId);\r\n        uint index;\r\n        for(uint i=0; i<totalListingsCounter; i++) {\r\n            if(allListings[i] == _carId) {\r\n                index = i;\r\n                break;\r\n            }\r\n        }\r\n        delete allListings[index];\r\n        totalListingsCounter = totalListingsCounter - 1;\r\n\r\n        // delete all offers as well\r\n        for(uint i=0; i<allOffers[_carId].length; i++) {\r\n            allOffers[_carId].length--;\r\n            countOffers[_carId]--;\r\n        }\r\n    }\r\n\r\n    // make offer for listed car\r\n    function makeOffer(uint256 _carId, uint256 _rate, uint256 _duration) public isListed(_carId) isRegistered(msg.sender) sufficientBalance(_rate, _duration) {\r\n        string memory renterLType = usersContract.getLicenseType(msg.sender);\r\n        string memory carLType = carsContract.checkLicenseType(_carId);\r\n        require(keccak256(abi.encodePacked(renterLType)) == keccak256(abi.encodePacked(carLType)), \"You do not have the required license to rent this vehicle!\");\r\n        Offer memory myOffer = Offer({\r\n            carId: _carId,\r\n            renter: msg.sender,\r\n            rate: _rate,\r\n            duration: _duration,\r\n            status: offerState.IN_PROCESS\r\n        });\r\n\r\n        allOffers[_carId].push(myOffer);\r\n        countOffers[_carId]++;\r\n    }\r\n\r\n    // owner can accept rental offers\r\n    function acceptOffer(uint256 _carId, address _renter) public isOwner(_carId) isListed(_carId) {\r\n        uint index;\r\n        for(uint i=0; i<allOffers[_carId].length; i++) {\r\n            if(allOffers[_carId][i].renter == _renter) {\r\n                index = i;\r\n                break;\r\n            }\r\n        }\r\n        Offer memory myOffer = allOffers[_carId][index];\r\n        allOffers[_carId][index].status = offerState.ACCEPTED;\r\n        carsContract.rentCar(_carId, _renter, myOffer.rate, myOffer.duration);\r\n    }\r\n\r\n    // owner can reject rental offers\r\n    function rejectOffer(uint256 _carId, address _renter) public isOwner(_carId) isListed(_carId) {\r\n        uint index;\r\n        for(uint i=0; i<allOffers[_carId].length; i++) {\r\n            if(allOffers[_carId][i].renter == _renter) {\r\n                index = i;\r\n                break;\r\n            }\r\n        }\r\n        //Remove offer\r\n        allOffers[_carId][index] = allOffers[_carId][(allOffers[_carId].length-1)];\r\n        allOffers[_carId].length--;\r\n        countOffers[_carId]--;\r\n    }\r\n\r\n    // renter can cancel offer\r\n    function cancelOffer(uint _carId) isRented(_carId) public {\r\n        require(carsContract.checkRentalStatus(_carId) != 3, \"This car has already been collected for use!\");\r\n        address _renter = carsContract.getRenter(_carId);\r\n        uint index;\r\n        for(uint i=0; i<allOffers[_carId].length; i++) {\r\n            if(allOffers[_carId][i].renter == _renter) {\r\n                index = i;\r\n                break;\r\n            }\r\n        }\r\n        //Remove offer\r\n        allOffers[_carId][index] = allOffers[_carId][(allOffers[_carId].length-1)];\r\n        allOffers[_carId].length--;\r\n        countOffers[_carId]--;\r\n\r\n        //If buyer is cancelling an offer that has already been accepted by a seller.\r\n        carsContract.cancelRental(_carId);\r\n    }\r\n\r\n    // renter starts trip\r\n    function startTrip(uint256 _carId) isRenter(_carId) public {\r\n        carsContract.startRental(_carId);\r\n        //Remove all offers on the car\r\n        for(uint i=0; i<allOffers[_carId].length; i++) {\r\n            allOffers[_carId].length--;\r\n        }\r\n        countOffers[_carId] = 0;\r\n    }\r\n\r\n    // owner ends trip\r\n    function endTrip(uint256 _carId) isOwner(_carId) public {\r\n        carsContract.endRental(_carId);\r\n        // transfer funds\r\n        address _renter = carsContract.getRenter(_carId);\r\n        uint256 _rate = carsContract.getRate(_carId);\r\n        uint256 _duration = carsContract.getDuration(_carId);\r\n        uint256 _amt = (_rate*_duration)-commissionFee;\r\n        carsContract.transferCT(_renter, msg.sender, _amt);\r\n        carsContract.transferCT(_renter, address(this), commissionFee);\r\n        totalCommission = totalCommission + commissionFee;\r\n    }\r\n\r\n    // withdraw commission fee for administrator\r\n    function withdraw() public administratorOnly {\r\n        carsContract.transferCT(address(this), _owner, totalCommission);\r\n    }\r\n\r\n    // function to show listed car details\r\n    function getCarDetails(uint256 _carId) public view returns(string memory, uint8, string memory, string memory) {\r\n        string memory _description = carsContract.getCarDescription(_carId);\r\n        uint8 _capacity = carsContract.getCarCapacity(_carId);\r\n        string memory _licenseType = carsContract.getCarLicenseType(_carId);\r\n        string memory _location = carsContract.getCarLocation(_carId);\r\n        return (_description, _capacity, _licenseType, _location);\r\n    }\r\n\r\n    // function to get offer\r\n    function getOfferDetails(uint256 carId, uint8 nth) public view returns(uint256, address, uint256, uint256, offerState){\r\n        uint256 _carId = allOffers[carId][nth].carId;\r\n        address _renter = allOffers[carId][nth].renter;\r\n        uint256 _rate = allOffers[carId][nth].rate;\r\n        uint256 _duration = allOffers[carId][nth].duration;\r\n        offerState _status = allOffers[carId][nth].status;\r\n        return (_carId, _renter, _rate, _duration, _status);\r\n    }\r\n}",
  "sourcePath": "D:\\ANG\\Desktop\\semester2\\IS4302\\IS4302_Group22\\src\\contracts\\CarRental.sol",
  "compiler": {
    "name": "solc",
    "version": "0.5.16+commit.9c3226ce.Emscripten.clang"
  },
  "schemaVersion": "3.4.4",
  "updatedAt": "2022-04-10T09:20:02.258Z",
  "networkType": "ethereum",
  "devdoc": {
    "methods": {}
  },
  "userdoc": {
    "methods": {}
  }
}