{
  "contractName": "CarRental",
  "abi": [
    {
      "inputs": [
        {
          "internalType": "contract CarPool",
          "name": "carAddress",
          "type": "address"
        },
        {
          "internalType": "contract UserPool",
          "name": "userAddress",
          "type": "address"
        },
        {
          "internalType": "uint256",
          "name": "fee",
          "type": "uint256"
        }
      ],
      "payable": false,
      "stateMutability": "nonpayable",
      "type": "constructor"
    },
    {
      "constant": true,
      "inputs": [
        {
          "internalType": "uint256",
          "name": "",
          "type": "uint256"
        }
      ],
      "name": "allListings",
      "outputs": [
        {
          "internalType": "uint256",
          "name": "",
          "type": "uint256"
        }
      ],
      "payable": false,
      "stateMutability": "view",
      "type": "function"
    },
    {
      "constant": true,
      "inputs": [
        {
          "internalType": "uint256",
          "name": "",
          "type": "uint256"
        },
        {
          "internalType": "uint256",
          "name": "",
          "type": "uint256"
        }
      ],
      "name": "allOffers",
      "outputs": [
        {
          "internalType": "uint256",
          "name": "carId",
          "type": "uint256"
        },
        {
          "internalType": "address",
          "name": "renter",
          "type": "address"
        },
        {
          "internalType": "uint256",
          "name": "rate",
          "type": "uint256"
        },
        {
          "internalType": "uint256",
          "name": "duration",
          "type": "uint256"
        },
        {
          "internalType": "enum CarRental.offerState",
          "name": "status",
          "type": "uint8"
        }
      ],
      "payable": false,
      "stateMutability": "view",
      "type": "function"
    },
    {
      "constant": true,
      "inputs": [],
      "name": "commissionFee",
      "outputs": [
        {
          "internalType": "uint256",
          "name": "",
          "type": "uint256"
        }
      ],
      "payable": false,
      "stateMutability": "view",
      "type": "function"
    },
    {
      "constant": true,
      "inputs": [
        {
          "internalType": "uint256",
          "name": "",
          "type": "uint256"
        }
      ],
      "name": "countOffers",
      "outputs": [
        {
          "internalType": "uint256",
          "name": "",
          "type": "uint256"
        }
      ],
      "payable": false,
      "stateMutability": "view",
      "type": "function"
    },
    {
      "constant": true,
      "inputs": [],
      "name": "totalListingsCounter",
      "outputs": [
        {
          "internalType": "uint256",
          "name": "",
          "type": "uint256"
        }
      ],
      "payable": false,
      "stateMutability": "view",
      "type": "function"
    },
    {
      "constant": false,
      "inputs": [
        {
          "internalType": "uint256",
          "name": "_carId",
          "type": "uint256"
        }
      ],
      "name": "list",
      "outputs": [],
      "payable": false,
      "stateMutability": "nonpayable",
      "type": "function"
    },
    {
      "constant": false,
      "inputs": [
        {
          "internalType": "uint256",
          "name": "_carId",
          "type": "uint256"
        }
      ],
      "name": "delist",
      "outputs": [],
      "payable": false,
      "stateMutability": "nonpayable",
      "type": "function"
    },
    {
      "constant": false,
      "inputs": [
        {
          "internalType": "uint256",
          "name": "_carId",
          "type": "uint256"
        },
        {
          "internalType": "uint256",
          "name": "_rate",
          "type": "uint256"
        },
        {
          "internalType": "uint256",
          "name": "_duration",
          "type": "uint256"
        }
      ],
      "name": "makeOffer",
      "outputs": [],
      "payable": false,
      "stateMutability": "nonpayable",
      "type": "function"
    },
    {
      "constant": false,
      "inputs": [
        {
          "internalType": "uint256",
          "name": "_carId",
          "type": "uint256"
        },
        {
          "internalType": "address",
          "name": "_renter",
          "type": "address"
        }
      ],
      "name": "acceptOffer",
      "outputs": [],
      "payable": false,
      "stateMutability": "nonpayable",
      "type": "function"
    },
    {
      "constant": false,
      "inputs": [
        {
          "internalType": "uint256",
          "name": "_carId",
          "type": "uint256"
        },
        {
          "internalType": "address",
          "name": "_renter",
          "type": "address"
        }
      ],
      "name": "rejectOffer",
      "outputs": [],
      "payable": false,
      "stateMutability": "nonpayable",
      "type": "function"
    },
    {
      "constant": false,
      "inputs": [
        {
          "internalType": "uint256",
          "name": "_carId",
          "type": "uint256"
        }
      ],
      "name": "cancelOffer",
      "outputs": [],
      "payable": false,
      "stateMutability": "nonpayable",
      "type": "function"
    },
    {
      "constant": false,
      "inputs": [
        {
          "internalType": "uint256",
          "name": "_carId",
          "type": "uint256"
        }
      ],
      "name": "startTrip",
      "outputs": [],
      "payable": false,
      "stateMutability": "nonpayable",
      "type": "function"
    },
    {
      "constant": false,
      "inputs": [
        {
          "internalType": "uint256",
          "name": "_carId",
          "type": "uint256"
        }
      ],
      "name": "endTrip",
      "outputs": [],
      "payable": false,
      "stateMutability": "nonpayable",
      "type": "function"
    },
    {
      "constant": false,
      "inputs": [],
      "name": "withdraw",
      "outputs": [],
      "payable": false,
      "stateMutability": "nonpayable",
      "type": "function"
    },
    {
      "constant": true,
      "inputs": [
        {
          "internalType": "uint256",
          "name": "_carId",
          "type": "uint256"
        }
      ],
      "name": "getCarDetails",
      "outputs": [
        {
          "internalType": "string",
          "name": "",
          "type": "string"
        },
        {
          "internalType": "uint8",
          "name": "",
          "type": "uint8"
        },
        {
          "internalType": "string",
          "name": "",
          "type": "string"
        },
        {
          "internalType": "string",
          "name": "",
          "type": "string"
        }
      ],
      "payable": false,
      "stateMutability": "view",
      "type": "function"
    }
  ],
  "bytecode": "0x6080604052600060035533600460006101000a81548173ffffffffffffffffffffffffffffffffffffffff021916908373ffffffffffffffffffffffffffffffffffffffff160217905550600060055534801561005b57600080fd5b506040516135783803806135788339818101604052606081101561007e57600080fd5b81019080805190602001909291908051906020019092919080519060200190929190505050826000806101000a81548173ffffffffffffffffffffffffffffffffffffffff021916908373ffffffffffffffffffffffffffffffffffffffff16021790555081600160006101000a81548173ffffffffffffffffffffffffffffffffffffffff021916908373ffffffffffffffffffffffffffffffffffffffff1602179055508060028190555050505061343b8061013d6000396000f3fe608060405234801561001057600080fd5b50600436106100f55760003560e01c8063918d407d11610097578063db9371c211610066578063db9371c2146104b6578063e117e18b14610504578063e210a72d14610546578063ef706adf14610588576100f5565b8063918d407d1461037a578063964bc33f146103c85780639ab2f2a0146103f6578063c6906f6314610498576100f5565b8063472ec454116100d3578063472ec4541461017457806360d17c08146103005780636fb1eb0c1461032e57806380c9419e1461034c576100f5565b80630eeaa2ef146100fa5780633ccfd60b1461013c5780633dde315e14610146575b600080fd5b6101266004803603602081101561011057600080fd5b81019080803590602001909291905050506105b6565b6040518082815260200191505060405180910390f35b6101446105ce565b005b6101726004803603602081101561015c57600080fd5b8101908080359060200190929190505050610742565b005b6101a06004803603602081101561018a57600080fd5b8101908080359060200190929190505050610992565b60405180806020018560ff1660ff1681526020018060200180602001848103845288818151815260200191508051906020019080838360005b838110156101f45780820151818401526020810190506101d9565b50505050905090810190601f1680156102215780820380516001836020036101000a031916815260200191505b50848103835286818151815260200191508051906020019080838360005b8381101561025a57808201518184015260208101905061023f565b50505050905090810190601f1680156102875780820380516001836020036101000a031916815260200191505b50848103825285818151815260200191508051906020019080838360005b838110156102c05780820151818401526020810190506102a5565b50505050905090810190601f1680156102ed5780820380516001836020036101000a031916815260200191505b5097505050505050505060405180910390f35b61032c6004803603602081101561031657600080fd5b8101908080359060200190929190505050610eae565b005b610336611488565b6040518082815260200191505060405180910390f35b6103786004803603602081101561036257600080fd5b810190808035906020019092919050505061148e565b005b6103c66004803603604081101561039057600080fd5b8101908080359060200190929190803573ffffffffffffffffffffffffffffffffffffffff169060200190929190505050611675565b005b6103f4600480360360208110156103de57600080fd5b8101908080359060200190929190505050611b9e565b005b61042c6004803603604081101561040c57600080fd5b810190808035906020019092919080359060200190929190505050611e43565b604051808681526020018573ffffffffffffffffffffffffffffffffffffffff1673ffffffffffffffffffffffffffffffffffffffff16815260200184815260200183815260200182600181111561048057fe5b60ff1681526020019550505050505060405180910390f35b6104a0611ec0565b6040518082815260200191505060405180910390f35b610502600480360360408110156104cc57600080fd5b8101908080359060200190929190803573ffffffffffffffffffffffffffffffffffffffff169060200190929190505050611ec6565b005b6105306004803603602081101561051a57600080fd5b810190808035906020019092919050505061235d565b6040518082815260200191505060405180910390f35b6105866004803603606081101561055c57600080fd5b81019080803590602001909291908035906020019092919080359060200190929190505050612375565b005b6105b46004803603602081101561059e57600080fd5b8101908080359060200190929190505050612cdf565b005b60076020528060005260406000206000915090505481565b3373ffffffffffffffffffffffffffffffffffffffff16600460009054906101000a900473ffffffffffffffffffffffffffffffffffffffff1673ffffffffffffffffffffffffffffffffffffffff161461062857600080fd5b6000809054906101000a900473ffffffffffffffffffffffffffffffffffffffff1673ffffffffffffffffffffffffffffffffffffffff16630a7ec70530600460009054906101000a900473ffffffffffffffffffffffffffffffffffffffff166003546040518463ffffffff1660e01b8152600401808473ffffffffffffffffffffffffffffffffffffffff1673ffffffffffffffffffffffffffffffffffffffff1681526020018373ffffffffffffffffffffffffffffffffffffffff1673ffffffffffffffffffffffffffffffffffffffff1681526020018281526020019350505050600060405180830381600087803b15801561072857600080fd5b505af115801561073c573d6000803e3d6000fd5b50505050565b803373ffffffffffffffffffffffffffffffffffffffff166000809054906101000a900473ffffffffffffffffffffffffffffffffffffffff1673ffffffffffffffffffffffffffffffffffffffff16633009c19b836040518263ffffffff1660e01b81526004018082815260200191505060206040518083038186803b1580156107cc57600080fd5b505afa1580156107e0573d6000803e3d6000fd5b505050506040513d60208110156107f657600080fd5b810190808051906020019092919050505073ffffffffffffffffffffffffffffffffffffffff1614610890576040517f08c379a00000000000000000000000000000000000000000000000000000000081526004018080602001828103825260178152602001807f596f7520617265206e6f74207468652072656e7465722100000000000000000081525060200191505060405180910390fd5b6000809054906101000a900473ffffffffffffffffffffffffffffffffffffffff1673ffffffffffffffffffffffffffffffffffffffff16630c3e1dd0836040518263ffffffff1660e01b815260040180828152602001915050600060405180830381600087803b15801561090457600080fd5b505af1158015610918573d6000803e3d6000fd5b5050505060008090505b60066000848152602001908152602001600020805490508110156109745760066000848152602001908152602001600020805480919060019003610966919061328a565b508080600101915050610922565b50600060086000848152602001908152602001600020819055505050565b6060600060608060606000809054906101000a900473ffffffffffffffffffffffffffffffffffffffff1673ffffffffffffffffffffffffffffffffffffffff1663d9f5c56f876040518263ffffffff1660e01b81526004018082815260200191505060006040518083038186803b158015610a0d57600080fd5b505afa158015610a21573d6000803e3d6000fd5b505050506040513d6000823e3d601f19601f820116820180604052506020811015610a4b57600080fd5b8101908080516040519392919084640100000000821115610a6b57600080fd5b83820191506020820185811115610a8157600080fd5b8251866001820283011164010000000082111715610a9e57600080fd5b8083526020830192505050908051906020019080838360005b83811015610ad2578082015181840152602081019050610ab7565b50505050905090810190601f168015610aff5780820380516001836020036101000a031916815260200191505b50604052505050905060008060009054906101000a900473ffffffffffffffffffffffffffffffffffffffff1673ffffffffffffffffffffffffffffffffffffffff16636f36d44b886040518263ffffffff1660e01b81526004018082815260200191505060206040518083038186803b158015610b7c57600080fd5b505afa158015610b90573d6000803e3d6000fd5b505050506040513d6020811015610ba657600080fd5b8101908080519060200190929190505050905060606000809054906101000a900473ffffffffffffffffffffffffffffffffffffffff1673ffffffffffffffffffffffffffffffffffffffff1663c6527dbf896040518263ffffffff1660e01b81526004018082815260200191505060006040518083038186803b158015610c2d57600080fd5b505afa158015610c41573d6000803e3d6000fd5b505050506040513d6000823e3d601f19601f820116820180604052506020811015610c6b57600080fd5b8101908080516040519392919084640100000000821115610c8b57600080fd5b83820191506020820185811115610ca157600080fd5b8251866001820283011164010000000082111715610cbe57600080fd5b8083526020830192505050908051906020019080838360005b83811015610cf2578082015181840152602081019050610cd7565b50505050905090810190601f168015610d1f5780820380516001836020036101000a031916815260200191505b50604052505050905060606000809054906101000a900473ffffffffffffffffffffffffffffffffffffffff1673ffffffffffffffffffffffffffffffffffffffff1663684649078a6040518263ffffffff1660e01b81526004018082815260200191505060006040518083038186803b158015610d9c57600080fd5b505afa158015610db0573d6000803e3d6000fd5b505050506040513d6000823e3d601f19601f820116820180604052506020811015610dda57600080fd5b8101908080516040519392919084640100000000821115610dfa57600080fd5b83820191506020820185811115610e1057600080fd5b8251866001820283011164010000000082111715610e2d57600080fd5b8083526020830192505050908051906020019080838360005b83811015610e61578082015181840152602081019050610e46565b50505050905090810190601f168015610e8e5780820380516001836020036101000a031916815260200191505b506040525050509050838383839750975097509750505050509193509193565b806000809054906101000a900473ffffffffffffffffffffffffffffffffffffffff1673ffffffffffffffffffffffffffffffffffffffff1663c41a360a826040518263ffffffff1660e01b81526004018082815260200191505060206040518083038186803b158015610f2157600080fd5b505afa158015610f35573d6000803e3d6000fd5b505050506040513d6020811015610f4b57600080fd5b810190808051906020019092919050505073ffffffffffffffffffffffffffffffffffffffff163373ffffffffffffffffffffffffffffffffffffffff1614610fdf576040517f08c379a00000000000000000000000000000000000000000000000000000000081526004018080602001828103825260228152602001806133e56022913960400191505060405180910390fd5b6000809054906101000a900473ffffffffffffffffffffffffffffffffffffffff1673ffffffffffffffffffffffffffffffffffffffff166397491d6f836040518263ffffffff1660e01b815260040180828152602001915050600060405180830381600087803b15801561105357600080fd5b505af1158015611067573d6000803e3d6000fd5b5050505060008060009054906101000a900473ffffffffffffffffffffffffffffffffffffffff1673ffffffffffffffffffffffffffffffffffffffff16633009c19b846040518263ffffffff1660e01b81526004018082815260200191505060206040518083038186803b1580156110df57600080fd5b505afa1580156110f3573d6000803e3d6000fd5b505050506040513d602081101561110957600080fd5b8101908080519060200190929190505050905060008060009054906101000a900473ffffffffffffffffffffffffffffffffffffffff1673ffffffffffffffffffffffffffffffffffffffff166357764094856040518263ffffffff1660e01b81526004018082815260200191505060206040518083038186803b15801561119057600080fd5b505afa1580156111a4573d6000803e3d6000fd5b505050506040513d60208110156111ba57600080fd5b8101908080519060200190929190505050905060008060009054906101000a900473ffffffffffffffffffffffffffffffffffffffff1673ffffffffffffffffffffffffffffffffffffffff16638bb126a7866040518263ffffffff1660e01b81526004018082815260200191505060206040518083038186803b15801561124157600080fd5b505afa158015611255573d6000803e3d6000fd5b505050506040513d602081101561126b57600080fd5b8101908080519060200190929190505050905060006002548284020390506000809054906101000a900473ffffffffffffffffffffffffffffffffffffffff1673ffffffffffffffffffffffffffffffffffffffff16630a7ec7058533846040518463ffffffff1660e01b8152600401808473ffffffffffffffffffffffffffffffffffffffff1673ffffffffffffffffffffffffffffffffffffffff1681526020018373ffffffffffffffffffffffffffffffffffffffff1673ffffffffffffffffffffffffffffffffffffffff1681526020018281526020019350505050600060405180830381600087803b15801561136557600080fd5b505af1158015611379573d6000803e3d6000fd5b505050506000809054906101000a900473ffffffffffffffffffffffffffffffffffffffff1673ffffffffffffffffffffffffffffffffffffffff16630a7ec70585306002546040518463ffffffff1660e01b8152600401808473ffffffffffffffffffffffffffffffffffffffff1673ffffffffffffffffffffffffffffffffffffffff1681526020018373ffffffffffffffffffffffffffffffffffffffff1673ffffffffffffffffffffffffffffffffffffffff1681526020018281526020019350505050600060405180830381600087803b15801561145b57600080fd5b505af115801561146f573d6000803e3d6000fd5b5050505060025460035401600381905550505050505050565b60025481565b806000809054906101000a900473ffffffffffffffffffffffffffffffffffffffff1673ffffffffffffffffffffffffffffffffffffffff1663c41a360a826040518263ffffffff1660e01b81526004018082815260200191505060206040518083038186803b15801561150157600080fd5b505afa158015611515573d6000803e3d6000fd5b505050506040513d602081101561152b57600080fd5b810190808051906020019092919050505073ffffffffffffffffffffffffffffffffffffffff163373ffffffffffffffffffffffffffffffffffffffff16146115bf576040517f08c379a00000000000000000000000000000000000000000000000000000000081526004018080602001828103825260228152602001806133e56022913960400191505060405180910390fd5b6000809054906101000a900473ffffffffffffffffffffffffffffffffffffffff1673ffffffffffffffffffffffffffffffffffffffff166340a919e0836040518263ffffffff1660e01b815260040180828152602001915050600060405180830381600087803b15801561163357600080fd5b505af1158015611647573d6000803e3d6000fd5b5050505060016005540160058190555081600760006005548152602001908152602001600020819055505050565b816000809054906101000a900473ffffffffffffffffffffffffffffffffffffffff1673ffffffffffffffffffffffffffffffffffffffff1663c41a360a826040518263ffffffff1660e01b81526004018082815260200191505060206040518083038186803b1580156116e857600080fd5b505afa1580156116fc573d6000803e3d6000fd5b505050506040513d602081101561171257600080fd5b810190808051906020019092919050505073ffffffffffffffffffffffffffffffffffffffff163373ffffffffffffffffffffffffffffffffffffffff16146117a6576040517f08c379a00000000000000000000000000000000000000000000000000000000081526004018080602001828103825260228152602001806133e56022913960400191505060405180910390fd5b8260016000809054906101000a900473ffffffffffffffffffffffffffffffffffffffff1673ffffffffffffffffffffffffffffffffffffffff1663cfc9262d836040518263ffffffff1660e01b81526004018082815260200191505060206040518083038186803b15801561181b57600080fd5b505afa15801561182f573d6000803e3d6000fd5b505050506040513d602081101561184557600080fd5b810190808051906020019092919050505060ff16146118cc576040517f08c379a00000000000000000000000000000000000000000000000000000000081526004018080602001828103825260128152602001807f436172206973206e6f74206c697374656421000000000000000000000000000081525060200191505060405180910390fd5b600080600090505b600660008781526020019081526020016000208054905081101561198a578473ffffffffffffffffffffffffffffffffffffffff1660066000888152602001908152602001600020828154811061192757fe5b906000526020600020906005020160010160009054906101000a900473ffffffffffffffffffffffffffffffffffffffff1673ffffffffffffffffffffffffffffffffffffffff16141561197d5780915061198a565b80806001019150506118d4565b506119936132bc565b6006600087815260200190815260200160002082815481106119b157fe5b90600052602060002090600502016040518060a0016040529081600082015481526020016001820160009054906101000a900473ffffffffffffffffffffffffffffffffffffffff1673ffffffffffffffffffffffffffffffffffffffff1673ffffffffffffffffffffffffffffffffffffffff16815260200160028201548152602001600382015481526020016004820160009054906101000a900460ff166001811115611a5c57fe5b6001811115611a6757fe5b8152505090506001600660008881526020019081526020016000208381548110611a8d57fe5b906000526020600020906005020160040160006101000a81548160ff02191690836001811115611ab957fe5b02179055506000809054906101000a900473ffffffffffffffffffffffffffffffffffffffff1673ffffffffffffffffffffffffffffffffffffffff16634eec42c18787846040015185606001516040518563ffffffff1660e01b8152600401808581526020018473ffffffffffffffffffffffffffffffffffffffff1673ffffffffffffffffffffffffffffffffffffffff168152602001838152602001828152602001945050505050600060405180830381600087803b158015611b7e57600080fd5b505af1158015611b92573d6000803e3d6000fd5b50505050505050505050565b806000809054906101000a900473ffffffffffffffffffffffffffffffffffffffff1673ffffffffffffffffffffffffffffffffffffffff1663c41a360a826040518263ffffffff1660e01b81526004018082815260200191505060206040518083038186803b158015611c1157600080fd5b505afa158015611c25573d6000803e3d6000fd5b505050506040513d6020811015611c3b57600080fd5b810190808051906020019092919050505073ffffffffffffffffffffffffffffffffffffffff163373ffffffffffffffffffffffffffffffffffffffff1614611ccf576040517f08c379a00000000000000000000000000000000000000000000000000000000081526004018080602001828103825260228152602001806133e56022913960400191505060405180910390fd5b6000809054906101000a900473ffffffffffffffffffffffffffffffffffffffff1673ffffffffffffffffffffffffffffffffffffffff16638dbbfc5d836040518263ffffffff1660e01b815260040180828152602001915050600060405180830381600087803b158015611d4357600080fd5b505af1158015611d57573d6000803e3d6000fd5b50505050600080600090505b600554811015611d9d578360076000838152602001908152602001600020541415611d9057809150611d9d565b8080600101915050611d63565b50600760008281526020019081526020016000206000905560016005540360058190555060008090505b6006600085815260200190815260200160002080549050811015611e3d5760066000858152602001908152602001600020805480919060019003611e0b919061328a565b506008600085815260200190815260200160002060008154809291906001900391905055508080600101915050611dc7565b50505050565b60066020528160005260406000208181548110611e5c57fe5b9060005260206000209060050201600091509150508060000154908060010160009054906101000a900473ffffffffffffffffffffffffffffffffffffffff16908060020154908060030154908060040160009054906101000a900460ff16905085565b60055481565b816000809054906101000a900473ffffffffffffffffffffffffffffffffffffffff1673ffffffffffffffffffffffffffffffffffffffff1663c41a360a826040518263ffffffff1660e01b81526004018082815260200191505060206040518083038186803b158015611f3957600080fd5b505afa158015611f4d573d6000803e3d6000fd5b505050506040513d6020811015611f6357600080fd5b810190808051906020019092919050505073ffffffffffffffffffffffffffffffffffffffff163373ffffffffffffffffffffffffffffffffffffffff1614611ff7576040517f08c379a00000000000000000000000000000000000000000000000000000000081526004018080602001828103825260228152602001806133e56022913960400191505060405180910390fd5b8260016000809054906101000a900473ffffffffffffffffffffffffffffffffffffffff1673ffffffffffffffffffffffffffffffffffffffff1663cfc9262d836040518263ffffffff1660e01b81526004018082815260200191505060206040518083038186803b15801561206c57600080fd5b505afa158015612080573d6000803e3d6000fd5b505050506040513d602081101561209657600080fd5b810190808051906020019092919050505060ff161461211d576040517f08c379a00000000000000000000000000000000000000000000000000000000081526004018080602001828103825260128152602001807f436172206973206e6f74206c697374656421000000000000000000000000000081525060200191505060405180910390fd5b600080600090505b60066000878152602001908152602001600020805490508110156121db578473ffffffffffffffffffffffffffffffffffffffff1660066000888152602001908152602001600020828154811061217857fe5b906000526020600020906005020160010160009054906101000a900473ffffffffffffffffffffffffffffffffffffffff1673ffffffffffffffffffffffffffffffffffffffff1614156121ce578091506121db565b8080600101915050612125565b506006600086815260200190815260200160002060016006600088815260200190815260200160002080549050038154811061221357fe5b906000526020600020906005020160066000878152602001908152602001600020828154811061223f57fe5b9060005260206000209060050201600082015481600001556001820160009054906101000a900473ffffffffffffffffffffffffffffffffffffffff168160010160006101000a81548173ffffffffffffffffffffffffffffffffffffffff021916908373ffffffffffffffffffffffffffffffffffffffff16021790555060028201548160020155600382015481600301556004820160009054906101000a900460ff168160040160006101000a81548160ff0219169083600181111561230357fe5b021790555090505060066000868152602001908152602001600020805480919060019003612331919061328a565b506008600086815260200190815260200160002060008154809291906001900391905055505050505050565b60086020528060005260406000206000915090505481565b8260016000809054906101000a900473ffffffffffffffffffffffffffffffffffffffff1673ffffffffffffffffffffffffffffffffffffffff1663cfc9262d836040518263ffffffff1660e01b81526004018082815260200191505060206040518083038186803b1580156123ea57600080fd5b505afa1580156123fe573d6000803e3d6000fd5b505050506040513d602081101561241457600080fd5b810190808051906020019092919050505060ff161461249b576040517f08c379a00000000000000000000000000000000000000000000000000000000081526004018080602001828103825260128152602001807f436172206973206e6f74206c697374656421000000000000000000000000000081525060200191505060405180910390fd5b3360011515600160009054906101000a900473ffffffffffffffffffffffffffffffffffffffff1673ffffffffffffffffffffffffffffffffffffffff1663ee2574af836040518263ffffffff1660e01b8152600401808273ffffffffffffffffffffffffffffffffffffffff1673ffffffffffffffffffffffffffffffffffffffff16815260200191505060206040518083038186803b15801561253f57600080fd5b505afa158015612553573d6000803e3d6000fd5b505050506040513d602081101561256957600080fd5b81019080805190602001909291905050501515146125ef576040517f08c379a000000000000000000000000000000000000000000000000000000000815260040180806020018281038252601e8152602001807f596f7520617265206e6f7420612072656769737465726564207573657221000081525060200191505060405180910390fd5b83836000600160009054906101000a900473ffffffffffffffffffffffffffffffffffffffff1673ffffffffffffffffffffffffffffffffffffffff1663f8b2cb4f336040518263ffffffff1660e01b8152600401808273ffffffffffffffffffffffffffffffffffffffff1673ffffffffffffffffffffffffffffffffffffffff16815260200191505060206040518083038186803b15801561269257600080fd5b505afa1580156126a6573d6000803e3d6000fd5b505050506040513d60208110156126bc57600080fd5b81019080805190602001909291905050509050818302811015612747576040517f08c379a000000000000000000000000000000000000000000000000000000000815260040180806020018281038252601d8152602001807f596f75206861766520696e73756666696369656e7420746f6b656e732100000081525060200191505060405180910390fd5b6060600160009054906101000a900473ffffffffffffffffffffffffffffffffffffffff1673ffffffffffffffffffffffffffffffffffffffff16630b9a697e336040518263ffffffff1660e01b8152600401808273ffffffffffffffffffffffffffffffffffffffff1673ffffffffffffffffffffffffffffffffffffffff16815260200191505060006040518083038186803b1580156127e857600080fd5b505afa1580156127fc573d6000803e3d6000fd5b505050506040513d6000823e3d601f19601f82011682018060405250602081101561282657600080fd5b810190808051604051939291908464010000000082111561284657600080fd5b8382019150602082018581111561285c57600080fd5b825186600182028301116401000000008211171561287957600080fd5b8083526020830192505050908051906020019080838360005b838110156128ad578082015181840152602081019050612892565b50505050905090810190601f1680156128da5780820380516001836020036101000a031916815260200191505b50604052505050905060606000809054906101000a900473ffffffffffffffffffffffffffffffffffffffff1673ffffffffffffffffffffffffffffffffffffffff16639c9ff4398b6040518263ffffffff1660e01b81526004018082815260200191505060006040518083038186803b15801561295757600080fd5b505afa15801561296b573d6000803e3d6000fd5b505050506040513d6000823e3d601f19601f82011682018060405250602081101561299557600080fd5b81019080805160405193929190846401000000008211156129b557600080fd5b838201915060208201858111156129cb57600080fd5b82518660018202830111640100000000821117156129e857600080fd5b8083526020830192505050908051906020019080838360005b83811015612a1c578082015181840152602081019050612a01565b50505050905090810190601f168015612a495780820380516001836020036101000a031916815260200191505b506040525050509050806040516020018082805190602001908083835b60208310612a895780518252602082019150602081019050602083039250612a66565b6001836020036101000a03801982511681845116808217855250505050505090500191505060405160208183030381529060405280519060200120826040516020018082805190602001908083835b60208310612afb5780518252602082019150602081019050602083039250612ad8565b6001836020036101000a0380198251168184511680821785525050505050509050019150506040516020818303038152906040528051906020012014612b8c576040517f08c379a000000000000000000000000000000000000000000000000000000000815260040180806020018281038252603a8152602001806133ab603a913960400191505060405180910390fd5b612b946132bc565b6040518060a001604052808c81526020013373ffffffffffffffffffffffffffffffffffffffff1681526020018b81526020018a815260200160006001811115612bda57fe5b8152509050600660008c815260200190815260200160002081908060018154018082558091505090600182039060005260206000209060050201600090919290919091506000820151816000015560208201518160010160006101000a81548173ffffffffffffffffffffffffffffffffffffffff021916908373ffffffffffffffffffffffffffffffffffffffff160217905550604082015181600201556060820151816003015560808201518160040160006101000a81548160ff02191690836001811115612ca757fe5b0217905550505050600860008c8152602001908152602001600020600081548092919060010191905055505050505050505050505050565b8060026000809054906101000a900473ffffffffffffffffffffffffffffffffffffffff1673ffffffffffffffffffffffffffffffffffffffff1663cfc9262d836040518263ffffffff1660e01b81526004018082815260200191505060206040518083038186803b158015612d5457600080fd5b505afa158015612d68573d6000803e3d6000fd5b505050506040513d6020811015612d7e57600080fd5b810190808051906020019092919050505060ff1614612e05576040517f08c379a00000000000000000000000000000000000000000000000000000000081526004018080602001828103825260128152602001807f436172206973206e6f742072656e74656421000000000000000000000000000081525060200191505060405180910390fd5b60036000809054906101000a900473ffffffffffffffffffffffffffffffffffffffff1673ffffffffffffffffffffffffffffffffffffffff1663cfc9262d846040518263ffffffff1660e01b81526004018082815260200191505060206040518083038186803b158015612e7957600080fd5b505afa158015612e8d573d6000803e3d6000fd5b505050506040513d6020811015612ea357600080fd5b810190808051906020019092919050505060ff161415612f0e576040517f08c379a000000000000000000000000000000000000000000000000000000000815260040180806020018281038252602c81526020018061337f602c913960400191505060405180910390fd5b60008060009054906101000a900473ffffffffffffffffffffffffffffffffffffffff1673ffffffffffffffffffffffffffffffffffffffff16633009c19b846040518263ffffffff1660e01b81526004018082815260200191505060206040518083038186803b158015612f8257600080fd5b505afa158015612f96573d6000803e3d6000fd5b505050506040513d6020811015612fac57600080fd5b81019080805190602001909291905050509050600080600090505b600660008681526020019081526020016000208054905081101561307d578273ffffffffffffffffffffffffffffffffffffffff1660066000878152602001908152602001600020828154811061301a57fe5b906000526020600020906005020160010160009054906101000a900473ffffffffffffffffffffffffffffffffffffffff1673ffffffffffffffffffffffffffffffffffffffff1614156130705780915061307d565b8080600101915050612fc7565b50600660008581526020019081526020016000206001600660008781526020019081526020016000208054905003815481106130b557fe5b90600052602060002090600502016006600086815260200190815260200160002082815481106130e157fe5b9060005260206000209060050201600082015481600001556001820160009054906101000a900473ffffffffffffffffffffffffffffffffffffffff168160010160006101000a81548173ffffffffffffffffffffffffffffffffffffffff021916908373ffffffffffffffffffffffffffffffffffffffff16021790555060028201548160020155600382015481600301556004820160009054906101000a900460ff168160040160006101000a81548160ff021916908360018111156131a557fe5b0217905550905050600660008581526020019081526020016000208054809190600190036131d3919061328a565b506008600085815260200190815260200160002060008154809291906001900391905055506000809054906101000a900473ffffffffffffffffffffffffffffffffffffffff1673ffffffffffffffffffffffffffffffffffffffff16635e0dacb4856040518263ffffffff1660e01b815260040180828152602001915050600060405180830381600087803b15801561326c57600080fd5b505af1158015613280573d6000803e3d6000fd5b5050505050505050565b8154818355818111156132b7576005028160050283600052602060002091820191016132b6919061330c565b5b505050565b6040518060a0016040528060008152602001600073ffffffffffffffffffffffffffffffffffffffff16815260200160008152602001600081526020016000600181111561330657fe5b81525090565b61337b91905b80821115613377576000808201600090556001820160006101000a81549073ffffffffffffffffffffffffffffffffffffffff0219169055600282016000905560038201600090556004820160006101000a81549060ff021916905550600501613312565b5090565b9056fe54686973206361722068617320616c7265616479206265656e20636f6c6c656374656420666f722075736521596f7520646f206e6f74206861766520746865207265717569726564206c6963656e736520746f2072656e7420746869732076656869636c6521596f7520617265206e6f7420746865206f776e6572206f6620746869732063617221a265627a7a7231582003364b17cd939510f98992ec4c10c421c831eb454489fceec1a67a9a69e7690964736f6c63430005100032",
  "source": "pragma solidity ^0.5.0;\r\nimport \"./CarPool.sol\";\r\nimport \"./UserPool.sol\";\r\n\r\ncontract CarRental {\r\n    CarPool carsContract;\r\n    UserPool usersContract;\r\n    uint256 public commissionFee;\r\n    uint256 totalCommission = 0;\r\n    address _owner = msg.sender;\r\n\r\n    enum offerState {IN_PROCESS, ACCEPTED}\r\n    struct Offer {\r\n        uint256 carId;\r\n        address renter;\r\n        uint256 rate;\r\n        uint256 duration;\r\n        offerState status;\r\n    }\r\n\r\n    uint public totalListingsCounter = 0;\r\n    mapping(uint256 => Offer[]) public allOffers;\r\n    mapping(uint256 => uint256) public allListings;\r\n    mapping(uint256 => uint256) public countOffers;\r\n\r\n    constructor(CarPool carAddress, UserPool userAddress, uint256 fee) public {\r\n        carsContract = carAddress;\r\n        usersContract = userAddress;\r\n        commissionFee = fee;\r\n    }\r\n\r\n    // modifier to ensure user is owner of car\r\n    modifier isOwner(uint256 _carId) {\r\n        require(msg.sender == carsContract.getOwner(_carId), \"You are not the owner of this car!\");\r\n        _;\r\n    }\r\n\r\n    // modifier to ensure user is registered\r\n    modifier isRegistered(address _renter) {\r\n        require(usersContract.checkRegistered(_renter) == true, \"You are not a registered user!\");\r\n        _;\r\n    }\r\n\r\n    // modifier to ensure car is listed\r\n    modifier isListed(uint256 _carId) {\r\n        require(carsContract.checkRentalStatus(_carId) == 1, \"Car is not listed!\");\r\n        _;\r\n    }\r\n\r\n    // modifier to ensure car is rented\r\n    modifier isRented(uint256 _carId) {\r\n        require(carsContract.checkRentalStatus(_carId) == 2, \"Car is not rented!\");\r\n        _;\r\n    }\r\n\r\n    // modifier to ensure user calling is the renter\r\n    modifier isRenter(uint256 _carId) {\r\n        require(carsContract.getRenter(_carId) == msg.sender, \"You are not the renter!\");\r\n        _;\r\n    }\r\n\r\n    // modifier to ensure balance is enough to rent car\r\n    modifier sufficientBalance(uint256 _rate, uint256 _duration) {\r\n        uint256 _balance = usersContract.getBalance(msg.sender);\r\n        require(_balance >= (_rate * _duration), \"You have insufficient tokens!\");\r\n        _;\r\n    }\r\n\r\n    // modifier to ensure administrator can call the function\r\n    modifier administratorOnly {\r\n        require(_owner == msg.sender);\r\n        _;\r\n    }\r\n\r\n    // list a car for rental\r\n    function list(uint256 _carId) public isOwner(_carId) {\r\n        carsContract.listCar(_carId);\r\n        totalListingsCounter = totalListingsCounter + 1;\r\n        allListings[totalListingsCounter] = _carId;\r\n    }\r\n\r\n    // delist a car\r\n    function delist(uint256 _carId) public isOwner(_carId) {\r\n        carsContract.delistCar(_carId);\r\n        uint index;\r\n        for(uint i=0; i<totalListingsCounter; i++) {\r\n            if(allListings[i] == _carId) {\r\n                index = i;\r\n                break;\r\n            }\r\n        }\r\n        delete allListings[index];\r\n        totalListingsCounter = totalListingsCounter - 1;\r\n\r\n        // delete all offers as well\r\n        for(uint i=0; i<allOffers[_carId].length; i++) {\r\n            allOffers[_carId].length--;\r\n            countOffers[_carId]--;\r\n        }\r\n    }\r\n\r\n    // make offer for listed car\r\n    function makeOffer(uint256 _carId, uint256 _rate, uint256 _duration) public isListed(_carId) isRegistered(msg.sender) sufficientBalance(_rate, _duration) {\r\n        string memory renterLType = usersContract.getLicenseType(msg.sender);\r\n        string memory carLType = carsContract.checkLicenseType(_carId);\r\n        require(keccak256(abi.encodePacked(renterLType)) == keccak256(abi.encodePacked(carLType)), \"You do not have the required license to rent this vehicle!\");\r\n        Offer memory myOffer = Offer({\r\n            carId: _carId,\r\n            renter: msg.sender,\r\n            rate: _rate,\r\n            duration: _duration,\r\n            status: offerState.IN_PROCESS\r\n        });\r\n\r\n        allOffers[_carId].push(myOffer);\r\n        countOffers[_carId]++;\r\n    }\r\n\r\n    // owner can accept rental offers\r\n    function acceptOffer(uint256 _carId, address _renter) public isOwner(_carId) isListed(_carId) {\r\n        uint index;\r\n        for(uint i=0; i<allOffers[_carId].length; i++) {\r\n            if(allOffers[_carId][i].renter == _renter) {\r\n                index = i;\r\n                break;\r\n            }\r\n        }\r\n        Offer memory myOffer = allOffers[_carId][index];\r\n        allOffers[_carId][index].status = offerState.ACCEPTED;\r\n        carsContract.rentCar(_carId, _renter, myOffer.rate, myOffer.duration);\r\n    }\r\n\r\n    // owner can reject rental offers\r\n    function rejectOffer(uint256 _carId, address _renter) public isOwner(_carId) isListed(_carId) {\r\n        uint index;\r\n        for(uint i=0; i<allOffers[_carId].length; i++) {\r\n            if(allOffers[_carId][i].renter == _renter) {\r\n                index = i;\r\n                break;\r\n            }\r\n        }\r\n        //Remove offer\r\n        allOffers[_carId][index] = allOffers[_carId][(allOffers[_carId].length-1)];\r\n        allOffers[_carId].length--;\r\n        countOffers[_carId]--;\r\n    }\r\n\r\n    // renter can cancel offer\r\n    function cancelOffer(uint _carId) isRented(_carId) public {\r\n        require(carsContract.checkRentalStatus(_carId) != 3, \"This car has already been collected for use!\");\r\n        address _renter = carsContract.getRenter(_carId);\r\n        uint index;\r\n        for(uint i=0; i<allOffers[_carId].length; i++) {\r\n            if(allOffers[_carId][i].renter == _renter) {\r\n                index = i;\r\n                break;\r\n            }\r\n        }\r\n        //Remove offer\r\n        allOffers[_carId][index] = allOffers[_carId][(allOffers[_carId].length-1)];\r\n        allOffers[_carId].length--;\r\n        countOffers[_carId]--;\r\n\r\n        //If buyer is cancelling an offer that has already been accepted by a seller.\r\n        carsContract.cancelRental(_carId);\r\n    }\r\n\r\n    // renter starts trip\r\n    function startTrip(uint256 _carId) isRenter(_carId) public {\r\n        carsContract.startRental(_carId);\r\n        //Remove all offers on the car\r\n        for(uint i=0; i<allOffers[_carId].length; i++) {\r\n            allOffers[_carId].length--;\r\n        }\r\n        countOffers[_carId] = 0;\r\n    }\r\n\r\n    // owner ends trip\r\n    function endTrip(uint256 _carId) isOwner(_carId) public {\r\n        carsContract.endRental(_carId);\r\n        // transfer funds\r\n        address _renter = carsContract.getRenter(_carId);\r\n        uint256 _rate = carsContract.getRate(_carId);\r\n        uint256 _duration = carsContract.getDuration(_carId);\r\n        uint256 _amt = (_rate*_duration)-commissionFee;\r\n        carsContract.transferCT(_renter, msg.sender, _amt);\r\n        carsContract.transferCT(_renter, address(this), commissionFee);\r\n        totalCommission = totalCommission + commissionFee;\r\n    }\r\n\r\n    // withdraw commission fee for administrator\r\n    function withdraw() public administratorOnly {\r\n        carsContract.transferCT(address(this), _owner, totalCommission);\r\n    }\r\n\r\n    // function to show listed car details\r\n    function getCarDetails(uint256 _carId) public view returns(string memory, uint8, string memory, string memory) {\r\n        string memory _description = carsContract.getCarDescription(_carId);\r\n        uint8 _capacity = carsContract.getCarCapacity(_carId);\r\n        string memory _licenseType = carsContract.getCarLicenseType(_carId);\r\n        string memory _location = carsContract.getCarLocation(_carId);\r\n        return (_description, _capacity, _licenseType, _location);\r\n    }\r\n}",
  "sourcePath": "C:/Users/arvin/Documents/1Personal/Education/Masters/IS4302 - Blockchain and Distributed Ledger Technologies/Project/code/src/contracts/CarRental.sol",
  "compiler": {
    "name": "solc",
    "version": "0.5.16+commit.9c3226ce.Emscripten.clang"
  },
  "schemaVersion": "3.2.3",
  "updatedAt": "2022-04-08T15:56:10.831Z",
  "devdoc": {
    "methods": {}
  },
  "userdoc": {
    "methods": {}
  }
}