{
  "contractName": "UserPool",
  "abi": [
    {
      "inputs": [
        {
          "internalType": "contract CarToken",
          "name": "ctAddress",
          "type": "address"
        }
      ],
      "payable": false,
      "stateMutability": "nonpayable",
      "type": "constructor"
    },
    {
      "anonymous": false,
      "inputs": [
        {
          "indexed": false,
          "internalType": "uint256",
          "name": "totalUsersCounter",
          "type": "uint256"
        },
        {
          "indexed": false,
          "internalType": "string",
          "name": "_name",
          "type": "string"
        },
        {
          "indexed": false,
          "internalType": "string",
          "name": "_licenseNum",
          "type": "string"
        },
        {
          "indexed": false,
          "internalType": "string",
          "name": "_licenseType",
          "type": "string"
        }
      ],
      "name": "UserRegistered",
      "type": "event"
    },
    {
      "constant": true,
      "inputs": [
        {
          "internalType": "uint256",
          "name": "",
          "type": "uint256"
        }
      ],
      "name": "allUsers",
      "outputs": [
        {
          "internalType": "address",
          "name": "userAddress",
          "type": "address"
        },
        {
          "internalType": "string",
          "name": "name",
          "type": "string"
        },
        {
          "internalType": "string",
          "name": "licenseNum",
          "type": "string"
        },
        {
          "internalType": "string",
          "name": "licenseType",
          "type": "string"
        },
        {
          "internalType": "string",
          "name": "coords",
          "type": "string"
        },
        {
          "internalType": "uint256",
          "name": "balance",
          "type": "uint256"
        }
      ],
      "payable": false,
      "stateMutability": "view",
      "type": "function"
    },
    {
      "constant": true,
      "inputs": [],
      "name": "totalUsersCounter",
      "outputs": [
        {
          "internalType": "uint256",
          "name": "",
          "type": "uint256"
        }
      ],
      "payable": false,
      "stateMutability": "view",
      "type": "function"
    },
    {
      "constant": false,
      "inputs": [
        {
          "internalType": "string",
          "name": "_name",
          "type": "string"
        },
        {
          "internalType": "string",
          "name": "_licenseNum",
          "type": "string"
        },
        {
          "internalType": "string",
          "name": "_licenseType",
          "type": "string"
        },
        {
          "internalType": "string",
          "name": "_coords",
          "type": "string"
        }
      ],
      "name": "registerUser",
      "outputs": [
        {
          "internalType": "uint256",
          "name": "",
          "type": "uint256"
        }
      ],
      "payable": false,
      "stateMutability": "nonpayable",
      "type": "function"
    },
    {
      "constant": false,
      "inputs": [
        {
          "internalType": "string",
          "name": "_coords",
          "type": "string"
        },
        {
          "internalType": "uint256",
          "name": "_userId",
          "type": "uint256"
        }
      ],
      "name": "userLocUpdate",
      "outputs": [],
      "payable": false,
      "stateMutability": "nonpayable",
      "type": "function"
    },
    {
      "constant": true,
      "inputs": [
        {
          "internalType": "address",
          "name": "_renter",
          "type": "address"
        }
      ],
      "name": "getLicenseNum",
      "outputs": [
        {
          "internalType": "string",
          "name": "",
          "type": "string"
        }
      ],
      "payable": false,
      "stateMutability": "view",
      "type": "function"
    },
    {
      "constant": true,
      "inputs": [
        {
          "internalType": "address",
          "name": "_renter",
          "type": "address"
        }
      ],
      "name": "getLicenseType",
      "outputs": [
        {
          "internalType": "string",
          "name": "",
          "type": "string"
        }
      ],
      "payable": false,
      "stateMutability": "view",
      "type": "function"
    },
    {
      "constant": true,
      "inputs": [
        {
          "internalType": "address",
          "name": "_renter",
          "type": "address"
        }
      ],
      "name": "getLocation",
      "outputs": [
        {
          "internalType": "string",
          "name": "",
          "type": "string"
        }
      ],
      "payable": false,
      "stateMutability": "view",
      "type": "function"
    },
    {
      "constant": false,
      "inputs": [
        {
          "internalType": "address",
          "name": "_renter",
          "type": "address"
        }
      ],
      "name": "updateBalance",
      "outputs": [],
      "payable": false,
      "stateMutability": "nonpayable",
      "type": "function"
    },
    {
      "constant": true,
      "inputs": [
        {
          "internalType": "address",
          "name": "_renter",
          "type": "address"
        }
      ],
      "name": "getBalance",
      "outputs": [
        {
          "internalType": "uint256",
          "name": "",
          "type": "uint256"
        }
      ],
      "payable": false,
      "stateMutability": "view",
      "type": "function"
    },
    {
      "constant": true,
      "inputs": [
        {
          "internalType": "address",
          "name": "_renter",
          "type": "address"
        }
      ],
      "name": "checkRegistered",
      "outputs": [
        {
          "internalType": "bool",
          "name": "",
          "type": "bool"
        }
      ],
      "payable": false,
      "stateMutability": "view",
      "type": "function"
    }
  ],
  "bytecode": "0x6080604052600060015534801561001557600080fd5b50604051611edc380380611edc8339818101604052602081101561003857600080fd5b8101908080519060200190929190505050806000806101000a81548173ffffffffffffffffffffffffffffffffffffffff021916908373ffffffffffffffffffffffffffffffffffffffff16021790555050611e43806100996000396000f3fe608060405234801561001057600080fd5b506004361061009e5760003560e01c806393e54a561161006657806393e54a5614610344578063a2bdedf4146105d8578063d9e0dc59146107fd578063ee2574af146108ba578063f8b2cb4f146109165761009e565b80630b9a697e146100a35780632621413114610160578063267ac8f71461021d57806340b8405a1461023b57806390a266631461027f575b600080fd5b6100e5600480360360208110156100b957600080fd5b81019080803573ffffffffffffffffffffffffffffffffffffffff16906020019092919050505061096e565b6040518080602001828103825283818151815260200191508051906020019080838360005b8381101561012557808201518184015260208101905061010a565b50505050905090810190601f1680156101525780820380516001836020036101000a031916815260200191505b509250505060405180910390f35b6101a26004803603602081101561017657600080fd5b81019080803573ffffffffffffffffffffffffffffffffffffffff169060200190929190505050610ab9565b6040518080602001828103825283818151815260200191508051906020019080838360005b838110156101e25780820151818401526020810190506101c7565b50505050905090810190601f16801561020f5780820380516001836020036101000a031916815260200191505b509250505060405180910390f35b610225610c04565b6040518082815260200191505060405180910390f35b61027d6004803603602081101561025157600080fd5b81019080803573ffffffffffffffffffffffffffffffffffffffff169060200190929190505050610c0a565b005b6103426004803603604081101561029557600080fd5b81019080803590602001906401000000008111156102b257600080fd5b8201836020820111156102c457600080fd5b803590602001918460018302840111640100000000831117156102e657600080fd5b91908080601f016020809104026020016040519081016040528093929190818152602001838380828437600081840152601f19601f82011690508083019250505050505050919291929080359060200190929190505050610d99565b005b6105c26004803603608081101561035a57600080fd5b810190808035906020019064010000000081111561037757600080fd5b82018360208201111561038957600080fd5b803590602001918460018302840111640100000000831117156103ab57600080fd5b91908080601f016020809104026020016040519081016040528093929190818152602001838380828437600081840152601f19601f8201169050808301925050505050505091929192908035906020019064010000000081111561040e57600080fd5b82018360208201111561042057600080fd5b8035906020019184600183028401116401000000008311171561044257600080fd5b91908080601f016020809104026020016040519081016040528093929190818152602001838380828437600081840152601f19601f820116905080830192505050505050509192919290803590602001906401000000008111156104a557600080fd5b8201836020820111156104b757600080fd5b803590602001918460018302840111640100000000831117156104d957600080fd5b91908080601f016020809104026020016040519081016040528093929190818152602001838380828437600081840152601f19601f8201169050808301925050505050505091929192908035906020019064010000000081111561053c57600080fd5b82018360208201111561054e57600080fd5b8035906020019184600183028401116401000000008311171561057057600080fd5b91908080601f016020809104026020016040519081016040528093929190818152602001838380828437600081840152601f19601f820116905080830192505050505050509192919290505050610dc8565b6040518082815260200191505060405180910390f35b610604600480360360208110156105ee57600080fd5b81019080803590602001909291905050506116e8565b604051808773ffffffffffffffffffffffffffffffffffffffff1673ffffffffffffffffffffffffffffffffffffffff1681526020018060200180602001806020018060200186815260200185810385528a818151815260200191508051906020019080838360005b8381101561068857808201518184015260208101905061066d565b50505050905090810190601f1680156106b55780820380516001836020036101000a031916815260200191505b50858103845289818151815260200191508051906020019080838360005b838110156106ee5780820151818401526020810190506106d3565b50505050905090810190601f16801561071b5780820380516001836020036101000a031916815260200191505b50858103835288818151815260200191508051906020019080838360005b83811015610754578082015181840152602081019050610739565b50505050905090810190601f1680156107815780820380516001836020036101000a031916815260200191505b50858103825287818151815260200191508051906020019080838360005b838110156107ba57808201518184015260208101905061079f565b50505050905090810190601f1680156107e75780820380516001836020036101000a031916815260200191505b509a505050505050505050505060405180910390f35b61083f6004803603602081101561081357600080fd5b81019080803573ffffffffffffffffffffffffffffffffffffffff1690602001909291905050506119a4565b6040518080602001828103825283818151815260200191508051906020019080838360005b8381101561087f578082015181840152602081019050610864565b50505050905090810190601f1680156108ac5780820380516001836020036101000a031916815260200191505b509250505060405180910390f35b6108fc600480360360208110156108d057600080fd5b81019080803573ffffffffffffffffffffffffffffffffffffffff169060200190929190505050611aef565b604051808215151515815260200191505060405180910390f35b6109586004803603602081101561092c57600080fd5b81019080803573ffffffffffffffffffffffffffffffffffffffff169060200190929190505050611b90565b6040518082815260200191505060405180910390f35b6060600080600090505b600154811015610a01578373ffffffffffffffffffffffffffffffffffffffff166002600083815260200190815260200160002060000160009054906101000a900473ffffffffffffffffffffffffffffffffffffffff1673ffffffffffffffffffffffffffffffffffffffff1614156109f457809150610a01565b8080600101915050610978565b50600260008281526020019081526020016000206003018054600181600116156101000203166002900480601f016020809104026020016040519081016040528092919081815260200182805460018160011615610100020316600290048015610aac5780601f10610a8157610100808354040283529160200191610aac565b820191906000526020600020905b815481529060010190602001808311610a8f57829003601f168201915b5050505050915050919050565b6060600080600090505b600154811015610b4c578373ffffffffffffffffffffffffffffffffffffffff166002600083815260200190815260200160002060000160009054906101000a900473ffffffffffffffffffffffffffffffffffffffff1673ffffffffffffffffffffffffffffffffffffffff161415610b3f57809150610b4c565b8080600101915050610ac3565b50600260008281526020019081526020016000206002018054600181600116156101000203166002900480601f016020809104026020016040519081016040528092919081815260200182805460018160011615610100020316600290048015610bf75780601f10610bcc57610100808354040283529160200191610bf7565b820191906000526020600020905b815481529060010190602001808311610bda57829003601f168201915b5050505050915050919050565b60015481565b60008060009054906101000a900473ffffffffffffffffffffffffffffffffffffffff1673ffffffffffffffffffffffffffffffffffffffff1663584a0927836040518263ffffffff1660e01b8152600401808273ffffffffffffffffffffffffffffffffffffffff1673ffffffffffffffffffffffffffffffffffffffff16815260200191505060206040518083038186803b158015610caa57600080fd5b505afa158015610cbe573d6000803e3d6000fd5b505050506040513d6020811015610cd457600080fd5b81019080805190602001909291905050509050600080600090505b600154811015610d78578373ffffffffffffffffffffffffffffffffffffffff166002600083815260200190815260200160002060000160009054906101000a900473ffffffffffffffffffffffffffffffffffffffff1673ffffffffffffffffffffffffffffffffffffffff161415610d6b57809150610d78565b8080600101915050610cef565b50816002600083815260200190815260200160002060050181905550505050565b81600260008381526020019081526020016000206004019080519060200190610dc3929190611c72565b505050565b600083809050606081905060098151148015610f3c5750605360f81b81600081518110610df157fe5b602001015160f81c60f81b7effffffffffffffffffffffffffffffffffffffffffffffffffffffffffffff19161480610e665750605460f81b81600081518110610e3757fe5b602001015160f81c60f81b7effffffffffffffffffffffffffffffffffffffffffffffffffffffffffffff1916145b80610ead5750604660f81b81600081518110610e7e57fe5b602001015160f81c60f81b7effffffffffffffffffffffffffffffffffffffffffffffffffffffffffffff1916145b80610ef45750604760f81b81600081518110610ec557fe5b602001015160f81c60f81b7effffffffffffffffffffffffffffffffffffffffffffffffffffffffffffff1916145b80610f3b5750604d60f81b81600081518110610f0c57fe5b602001015160f81c60f81b7effffffffffffffffffffffffffffffffffffffffffffffffffffffffffffff1916145b5b8015610fce5750603060f81b81600181518110610f5557fe5b602001015160f81c60f81b7effffffffffffffffffffffffffffffffffffffffffffffffffffffffffffff191610158015610fcd5750603960f81b81600181518110610f9d57fe5b602001015160f81c60f81b7effffffffffffffffffffffffffffffffffffffffffffffffffffffffffffff191611155b5b80156110605750603060f81b81600281518110610fe757fe5b602001015160f81c60f81b7effffffffffffffffffffffffffffffffffffffffffffffffffffffffffffff19161015801561105f5750603960f81b8160028151811061102f57fe5b602001015160f81c60f81b7effffffffffffffffffffffffffffffffffffffffffffffffffffffffffffff191611155b5b80156110f25750603060f81b8160038151811061107957fe5b602001015160f81c60f81b7effffffffffffffffffffffffffffffffffffffffffffffffffffffffffffff1916101580156110f15750603960f81b816003815181106110c157fe5b602001015160f81c60f81b7effffffffffffffffffffffffffffffffffffffffffffffffffffffffffffff191611155b5b80156111845750603060f81b8160048151811061110b57fe5b602001015160f81c60f81b7effffffffffffffffffffffffffffffffffffffffffffffffffffffffffffff1916101580156111835750603960f81b8160048151811061115357fe5b602001015160f81c60f81b7effffffffffffffffffffffffffffffffffffffffffffffffffffffffffffff191611155b5b80156112165750603060f81b8160058151811061119d57fe5b602001015160f81c60f81b7effffffffffffffffffffffffffffffffffffffffffffffffffffffffffffff1916101580156112155750603960f81b816005815181106111e557fe5b602001015160f81c60f81b7effffffffffffffffffffffffffffffffffffffffffffffffffffffffffffff191611155b5b80156112a85750603060f81b8160068151811061122f57fe5b602001015160f81c60f81b7effffffffffffffffffffffffffffffffffffffffffffffffffffffffffffff1916101580156112a75750603960f81b8160068151811061127757fe5b602001015160f81c60f81b7effffffffffffffffffffffffffffffffffffffffffffffffffffffffffffff191611155b5b801561133a5750603060f81b816007815181106112c157fe5b602001015160f81c60f81b7effffffffffffffffffffffffffffffffffffffffffffffffffffffffffffff1916101580156113395750603960f81b8160078151811061130957fe5b602001015160f81c60f81b7effffffffffffffffffffffffffffffffffffffffffffffffffffffffffffff191611155b5b80156113cc5750604160f81b8160088151811061135357fe5b602001015160f81c60f81b7effffffffffffffffffffffffffffffffffffffffffffffffffffffffffffff1916101580156113cb5750605a60f81b8160088151811061139b57fe5b602001015160f81c60f81b7effffffffffffffffffffffffffffffffffffffffffffffffffffffffffffff191611155b5b611421576040517f08c379a000000000000000000000000000000000000000000000000000000000815260040180806020018281038252602b815260200180611de4602b913960400191505060405180910390fd5b6001805401600181905550611434611cf2565b6040518060c001604052803373ffffffffffffffffffffffffffffffffffffffff168152602001898152602001888152602001878152602001868152602001600081525090508060026000600154815260200190815260200160002060008201518160000160006101000a81548173ffffffffffffffffffffffffffffffffffffffff021916908373ffffffffffffffffffffffffffffffffffffffff16021790555060208201518160010190805190602001906114f3929190611d3e565b506040820151816002019080519060200190611510929190611d3e565b50606082015181600301908051906020019061152d929190611d3e565b50608082015181600401908051906020019061154a929190611d3e565b5060a082015181600501559050507f7d69ad0f6e10ca07609feaff78bc489610b12ff6c581a5434206bddfcfdb43c260015489898960405180858152602001806020018060200180602001848103845287818151815260200191508051906020019080838360005b838110156115cd5780820151818401526020810190506115b2565b50505050905090810190601f1680156115fa5780820380516001836020036101000a031916815260200191505b50848103835286818151815260200191508051906020019080838360005b83811015611633578082015181840152602081019050611618565b50505050905090810190601f1680156116605780820380516001836020036101000a031916815260200191505b50848103825285818151815260200191508051906020019080838360005b8381101561169957808201518184015260208101905061167e565b50505050905090810190601f1680156116c65780820380516001836020036101000a031916815260200191505b5097505050505050505060405180910390a16001549350505050949350505050565b60026020528060005260406000206000915090508060000160009054906101000a900473ffffffffffffffffffffffffffffffffffffffff1690806001018054600181600116156101000203166002900480601f0160208091040260200160405190810160405280929190818152602001828054600181600116156101000203166002900480156117ba5780601f1061178f576101008083540402835291602001916117ba565b820191906000526020600020905b81548152906001019060200180831161179d57829003601f168201915b505050505090806002018054600181600116156101000203166002900480601f0160208091040260200160405190810160405280929190818152602001828054600181600116156101000203166002900480156118585780601f1061182d57610100808354040283529160200191611858565b820191906000526020600020905b81548152906001019060200180831161183b57829003601f168201915b505050505090806003018054600181600116156101000203166002900480601f0160208091040260200160405190810160405280929190818152602001828054600181600116156101000203166002900480156118f65780601f106118cb576101008083540402835291602001916118f6565b820191906000526020600020905b8154815290600101906020018083116118d957829003601f168201915b505050505090806004018054600181600116156101000203166002900480601f0160208091040260200160405190810160405280929190818152602001828054600181600116156101000203166002900480156119945780601f1061196957610100808354040283529160200191611994565b820191906000526020600020905b81548152906001019060200180831161197757829003601f168201915b5050505050908060050154905086565b6060600080600090505b600154811015611a37578373ffffffffffffffffffffffffffffffffffffffff166002600083815260200190815260200160002060000160009054906101000a900473ffffffffffffffffffffffffffffffffffffffff1673ffffffffffffffffffffffffffffffffffffffff161415611a2a57809150611a37565b80806001019150506119ae565b50600260008281526020019081526020016000206004018054600181600116156101000203166002900480601f016020809104026020016040519081016040528092919081815260200182805460018160011615610100020316600290048015611ae25780601f10611ab757610100808354040283529160200191611ae2565b820191906000526020600020905b815481529060010190602001808311611ac557829003601f168201915b5050505050915050919050565b6000806000905060008090505b600154811015611b86578373ffffffffffffffffffffffffffffffffffffffff166002600083815260200190815260200160002060000160009054906101000a900473ffffffffffffffffffffffffffffffffffffffff1673ffffffffffffffffffffffffffffffffffffffff161415611b795760019150611b86565b8080600101915050611afc565b5080915050919050565b60008060009054906101000a900473ffffffffffffffffffffffffffffffffffffffff1673ffffffffffffffffffffffffffffffffffffffff1663584a0927836040518263ffffffff1660e01b8152600401808273ffffffffffffffffffffffffffffffffffffffff1673ffffffffffffffffffffffffffffffffffffffff16815260200191505060206040518083038186803b158015611c3057600080fd5b505afa158015611c44573d6000803e3d6000fd5b505050506040513d6020811015611c5a57600080fd5b81019080805190602001909291905050509050919050565b828054600181600116156101000203166002900490600052602060002090601f016020900481019282601f10611cb357805160ff1916838001178555611ce1565b82800160010185558215611ce1579182015b82811115611ce0578251825591602001919060010190611cc5565b5b509050611cee9190611dbe565b5090565b6040518060c00160405280600073ffffffffffffffffffffffffffffffffffffffff16815260200160608152602001606081526020016060815260200160608152602001600081525090565b828054600181600116156101000203166002900490600052602060002090601f016020900481019282601f10611d7f57805160ff1916838001178555611dad565b82800160010185558215611dad579182015b82811115611dac578251825591602001919060010190611d91565b5b509050611dba9190611dbe565b5090565b611de091905b80821115611ddc576000816000905550600101611dc4565b5090565b9056fe596f75206861766520656e746572656420616e20696e76616c6964206c6963656e6365206e756d62657221a265627a7a723158203247045df8b8b1c598a2fc65bfd56bba07cf8d056f4ec76257a024d3c6b5ccb364736f6c63430005100032",
  "source": "pragma solidity ^0.5.0;\r\nimport \"./CarToken.sol\";\r\n\r\ncontract UserPool {\r\n\r\n    CarToken ctContract;\r\n\r\n    constructor (CarToken ctAddress) public {\r\n        ctContract = ctAddress;\r\n    }\r\n\r\n    struct User{\r\n        address userAddress;\r\n        string name;\r\n        string licenseNum;\r\n        string licenseType;\r\n        string coords;\r\n        uint256 balance;\r\n    }\r\n\r\n    uint public totalUsersCounter = 0;\r\n    mapping(uint256 => User) public allUsers;\r\n\r\n    event UserRegistered(uint256 totalUsersCounter, string _name, string _licenseNum, string _licenseType);\r\n\r\n    modifier licenseNumValid(string memory _licenceNum) {\r\n        _licenceNum = _licenceNum;\r\n        bytes memory b = bytes(_licenceNum);\r\n\r\n        require(b.length == 9 &&\r\n                (b[0] == 0x53 || b[0] == 0x54 || b[0] == 0x46 || b[0] == 0x47 || b[0] == 0x4D) && //check first char of NRIC\r\n                (b[1] >= 0x30 && b[1] <= 0x39) && //numeric\r\n                (b[2] >= 0x30 && b[2] <= 0x39) &&\r\n                (b[3] >= 0x30 && b[3] <= 0x39) &&\r\n                (b[4] >= 0x30 && b[4] <= 0x39) &&\r\n                (b[5] >= 0x30 && b[5] <= 0x39) &&\r\n                (b[6] >= 0x30 && b[6] <= 0x39) &&\r\n                (b[7] >= 0x30 && b[7] <= 0x39) &&\r\n                (b[8] >= 0x41 && b[8] <= 0x5A)    //alphabetical\r\n                , \"You have entered an invalid licence number!\");\r\n        _;\r\n    }\r\n\r\n    function registerUser(string memory _name, string memory _licenseNum, string memory _licenseType, string memory _coords) public licenseNumValid(_licenseNum) returns (uint256) {\r\n        totalUsersCounter = totalUsersCounter + 1;\r\n        \r\n        User memory myUser = User({\r\n            userAddress: msg.sender,\r\n            name: _name,\r\n            licenseNum: _licenseNum,\r\n            licenseType: _licenseType,\r\n            coords: _coords,\r\n            balance: 0\r\n        });\r\n\r\n        allUsers[totalUsersCounter] = myUser;\r\n        emit UserRegistered(totalUsersCounter, _name, _licenseNum, _licenseType);\r\n        return totalUsersCounter;\r\n    }\r\n\r\n    function userLocUpdate(string memory _coords, uint256 _userId) public {\r\n        allUsers[_userId].coords = _coords;\r\n    }\r\n\r\n    function getLicenseNum(address _renter) public view returns(string memory) {\r\n        uint index;\r\n        for(uint i=0; i<totalUsersCounter; i++) {\r\n            if(allUsers[i].userAddress == _renter) {\r\n                index = i;\r\n                break;\r\n            }\r\n        }\r\n        return allUsers[index].licenseNum;\r\n    }\r\n\r\n    function getLicenseType(address _renter) public view returns(string memory) {\r\n        uint index;\r\n        for(uint i=0; i<totalUsersCounter; i++) {\r\n            if(allUsers[i].userAddress == _renter) {\r\n                index = i;\r\n                break;\r\n            }\r\n        }\r\n        return allUsers[index].licenseType;\r\n    }\r\n\r\n    function getLocation(address _renter) public view returns(string memory) {\r\n        uint index;\r\n        for(uint i=0; i<totalUsersCounter; i++) {\r\n            if(allUsers[i].userAddress == _renter) {\r\n                index = i;\r\n                break;\r\n            }\r\n        }\r\n        return (allUsers[index].coords);\r\n    }\r\n\r\n    function updateBalance(address _renter) public {\r\n        uint256 newbal = ctContract.checkBal(_renter);\r\n        uint index;\r\n        for(uint i=0; i<totalUsersCounter; i++) {\r\n            if(allUsers[i].userAddress == _renter) {\r\n                index = i;\r\n                break;\r\n            }\r\n        }\r\n        allUsers[index].balance = newbal;\r\n    }\r\n\r\n    function getBalance(address _renter) public view returns(uint256) {\r\n        return ctContract.checkBal(_renter);\r\n    }\r\n\r\n    function checkRegistered(address _renter) public view returns(bool) {\r\n        bool registered = false;\r\n        for(uint i=0; i<totalUsersCounter; i++) {\r\n            if(allUsers[i].userAddress == _renter) {\r\n                registered = true;\r\n                break;\r\n            }\r\n        }\r\n        return registered;\r\n    }\r\n \r\n}",
  "sourcePath": "D:\\ANG\\Desktop\\semester2\\IS4302\\IS4302_Group22\\src\\contracts\\UserPool.sol",
  "compiler": {
    "name": "solc",
    "version": "0.5.16+commit.9c3226ce.Emscripten.clang"
  },
  "schemaVersion": "3.4.4",
  "updatedAt": "2022-04-10T09:20:02.245Z",
  "networkType": "ethereum",
  "devdoc": {
    "methods": {}
  },
  "userdoc": {
    "methods": {}
  }
}